{
	"data": {
		"bytecode": {
			"linkReferences": {},
			"object": "60806040526000600755600880546001600160a01b0319167369e6830fb2009952571dee88ca2041d2bd6fd4911790553480156200003c57600080fd5b50604080518082018252600a8152694d757369636f736d6f7360b01b6020808301918252835180850190945260038452624d534360e81b9084015281519192916200008a91600091620000ae565b508051620000a0906001906020840190620000ae565b505060016006555062000191565b828054620000bc9062000154565b90600052602060002090601f016020900481019282620000e057600085556200012b565b82601f10620000fb57805160ff19168380011785556200012b565b828001600101855582156200012b579182015b828111156200012b5782518255916020019190600101906200010e565b50620001399291506200013d565b5090565b5b808211156200013957600081556001016200013e565b600181811c908216806200016957607f821691505b602082108114156200018b57634e487b7160e01b600052602260045260246000fd5b50919050565b615dfc80620001a16000396000f3fe60806040526004361061012a5760003560e01c80635cc11b34116100ab57806395d89b411161006f57806395d89b4114610323578063a22cb46514610338578063b88d4fde14610358578063c87b56dd14610378578063e985e9c514610398578063ee169bd3146103e157600080fd5b80635cc11b341461029b5780636352211e146102b057806370a08231146102d05780637b3e4ce0146102f057806382367b2d1461030357600080fd5b806323b872dd116100f257806323b872dd146102025780633f0e317b1461022257806342842e0e146102375780634e8172b8146102575780635375faa51461027b57600080fd5b806301ffc9a71461012f57806306fdde0314610164578063081812fc14610186578063095ea7b3146101be578063202e3740146101e0575b600080fd5b34801561013b57600080fd5b5061014f61014a366004615401565b610401565b60405190151581526020015b60405180910390f35b34801561017057600080fd5b50610179610453565b60405161015b9190615a72565b34801561019257600080fd5b506101a66101a1366004615596565b6104e5565b6040516001600160a01b03909116815260200161015b565b3480156101ca57600080fd5b506101de6101d93660046153d7565b61050c565b005b3480156101ec57600080fd5b506101f5610627565b60405161015b919061591f565b34801561020e57600080fd5b506101de61021d3660046152f6565b6112cb565b34801561022e57600080fd5b506101f56112fc565b34801561024357600080fd5b506101de6102523660046152f6565b611f39565b34801561026357600080fd5b5061026d60075481565b60405190815260200161015b565b34801561028757600080fd5b506101de61029636600461543b565b611f54565b3480156102a757600080fd5b506101f5612516565b3480156102bc57600080fd5b506101a66102cb366004615596565b6131b1565b3480156102dc57600080fd5b5061026d6102eb3660046152a8565b613211565b6101de6102fe366004615596565b613297565b34801561030f57600080fd5b506101de61031e3660046155af565b613a14565b34801561032f57600080fd5b50610179613e33565b34801561034457600080fd5b506101de6103533660046153ad565b613e42565b34801561036457600080fd5b506101de610373366004615332565b613e51565b34801561038457600080fd5b50610179610393366004615596565b613e89565b3480156103a457600080fd5b5061014f6103b33660046152c3565b6001600160a01b03918216600090815260056020908152604080832093909416825291909152205460ff1690565b3480156103ed57600080fd5b506101de6103fc366004615596565b613efd565b60006001600160e01b031982166380ac58cd60e01b148061043257506001600160e01b03198216635b5e139f60e01b145b8061044d57506301ffc9a760e01b6001600160e01b03198316145b92915050565b60606000805461046290615cf4565b80601f016020809104026020016040519081016040528092919081815260200182805461048e90615cf4565b80156104db5780601f106104b0576101008083540402835291602001916104db565b820191906000526020600020905b8154815290600101906020018083116104be57829003601f168201915b5050505050905090565b60006104f0826143e9565b506000908152600460205260409020546001600160a01b031690565b6000610517826131b1565b9050806001600160a01b0316836001600160a01b0316141561058a5760405162461bcd60e51b815260206004820152602160248201527f4552433732313a20617070726f76616c20746f2063757272656e74206f776e656044820152603960f91b60648201526084015b60405180910390fd5b336001600160a01b03821614806105a657506105a681336103b3565b6106185760405162461bcd60e51b815260206004820152603e60248201527f4552433732313a20617070726f76652063616c6c6572206973206e6f7420746f60448201527f6b656e206f776e6572206e6f7220617070726f76656420666f7220616c6c00006064820152608401610581565b610622838361444b565b505050565b600754606090600080805b8381101561068d57336009600061064a846001615c66565b81526020810191909152604001600020600a01546001600160a01b0316141561067b57610678600184615c66565b92505b8061068581615d29565b915050610632565b506000826001600160401b038111156106a8576106a8615d9a565b6040519080825280602002602001820160405280156106e157816020015b6106ce614b87565b8152602001906001900390816106c65790505b50905060005b848110156112c25733600960006106ff846001615c66565b81526020810191909152604001600020600a01546001600160a01b031614156112b057600061072f826001615c66565b9050600060096000838152602001908152602001600020905080604051806101800160405290816000820154815260200160018201805461076f90615cf4565b80601f016020809104026020016040519081016040528092919081815260200182805461079b90615cf4565b80156107e85780601f106107bd576101008083540402835291602001916107e8565b820191906000526020600020905b8154815290600101906020018083116107cb57829003601f168201915b5050505050815260200160028201805461080190615cf4565b80601f016020809104026020016040519081016040528092919081815260200182805461082d90615cf4565b801561087a5780601f1061084f5761010080835404028352916020019161087a565b820191906000526020600020905b81548152906001019060200180831161085d57829003601f168201915b505050505081526020016003820154815260200160048201548152602001600582016040518060800160405290816000820180546108b790615cf4565b80601f01602080910402602001604051908101604052809291908181526020018280546108e390615cf4565b80156109305780601f1061090557610100808354040283529160200191610930565b820191906000526020600020905b81548152906001019060200180831161091357829003601f168201915b5050505050815260200160018201805461094990615cf4565b80601f016020809104026020016040519081016040528092919081815260200182805461097590615cf4565b80156109c25780601f10610997576101008083540402835291602001916109c2565b820191906000526020600020905b8154815290600101906020018083116109a557829003601f168201915b505050505081526020016002820180546109db90615cf4565b80601f0160208091040260200160405190810160405280929190818152602001828054610a0790615cf4565b8015610a545780601f10610a2957610100808354040283529160200191610a54565b820191906000526020600020905b815481529060010190602001808311610a3757829003601f168201915b50505050508152602001600382018054610a6d90615cf4565b80601f0160208091040260200160405190810160405280929190818152602001828054610a9990615cf4565b8015610ae65780601f10610abb57610100808354040283529160200191610ae6565b820191906000526020600020905b815481529060010190602001808311610ac957829003601f168201915b50505091909252505050815260098201546001600160a01b03908116602080840191909152600a840154918216604080850191909152600160a01b90920460ff1615156060808501919091528251600b86018054608094810283018501909552918101848152948301949093919284928491840182828015610b9157602002820191906000526020600020905b81546001600160a01b03168152600190910190602001808311610b73575b5050505050815260200160018201805480602002602001604051908101604052809291908181526020018280548015610be957602002820191906000526020600020905b815481526020019060010190808311610bd5575b5050505050815260200160028201805480602002602001604051908101604052809291908181526020018280548015610c4157602002820191906000526020600020905b815481526020019060010190808311610c2d575b5050505050815250508152602001600e8201604051806080016040529081600082018054610c6e90615cf4565b80601f0160208091040260200160405190810160405280929190818152602001828054610c9a90615cf4565b8015610ce75780601f10610cbc57610100808354040283529160200191610ce7565b820191906000526020600020905b815481529060010190602001808311610cca57829003601f168201915b50505050508152602001600182018054610d0090615cf4565b80601f0160208091040260200160405190810160405280929190818152602001828054610d2c90615cf4565b8015610d795780601f10610d4e57610100808354040283529160200191610d79565b820191906000526020600020905b815481529060010190602001808311610d5c57829003601f168201915b50505050508152602001600282018054610d9290615cf4565b80601f0160208091040260200160405190810160405280929190818152602001828054610dbe90615cf4565b8015610e0b5780601f10610de057610100808354040283529160200191610e0b565b820191906000526020600020905b815481529060010190602001808311610dee57829003601f168201915b50505050508152602001600382018054610e2490615cf4565b80601f0160208091040260200160405190810160405280929190818152602001828054610e5090615cf4565b8015610e9d5780601f10610e7257610100808354040283529160200191610e9d565b820191906000526020600020905b815481529060010190602001808311610e8057829003601f168201915b5050505050815250508152602001601282016040518060e0016040529081600082018054610eca90615cf4565b80601f0160208091040260200160405190810160405280929190818152602001828054610ef690615cf4565b8015610f435780601f10610f1857610100808354040283529160200191610f43565b820191906000526020600020905b815481529060010190602001808311610f2657829003601f168201915b5050505050815260200160018201805480602002602001604051908101604052809291908181526020016000905b8282101561101d578382906000526020600020018054610f9090615cf4565b80601f0160208091040260200160405190810160405280929190818152602001828054610fbc90615cf4565b80156110095780601f10610fde57610100808354040283529160200191611009565b820191906000526020600020905b815481529060010190602001808311610fec57829003601f168201915b505050505081526020019060010190610f71565b50505050815260200160028201805461103590615cf4565b80601f016020809104026020016040519081016040528092919081815260200182805461106190615cf4565b80156110ae5780601f10611083576101008083540402835291602001916110ae565b820191906000526020600020905b81548152906001019060200180831161109157829003601f168201915b505050505081526020016003820180546110c790615cf4565b80601f01602080910402602001604051908101604052809291908181526020018280546110f390615cf4565b80156111405780601f1061111557610100808354040283529160200191611140565b820191906000526020600020905b81548152906001019060200180831161112357829003601f168201915b5050505050815260200160048201805461115990615cf4565b80601f016020809104026020016040519081016040528092919081815260200182805461118590615cf4565b80156111d25780601f106111a7576101008083540402835291602001916111d2565b820191906000526020600020905b8154815290600101906020018083116111b557829003601f168201915b505050505081526020016005820180546111eb90615cf4565b80601f016020809104026020016040519081016040528092919081815260200182805461121790615cf4565b80156112645780601f1061123957610100808354040283529160200191611264565b820191906000526020600020905b81548152906001019060200180831161124757829003601f168201915b50505091835250506006919091015460ff161515602090910152905250845185908790811061129557611295615d84565b60209081029190910101526112ab600186615c66565b945050505b806112ba81615d29565b9150506106e7565b50949350505050565b6112d533826144b9565b6112f15760405162461bcd60e51b815260040161058190615b00565b610622838383614538565b60606000600754116113445760405162461bcd60e51b815260206004820152601160248201527009cde40e6dedccee640e8de40cccae8c6d607b1b6044820152606401610581565b60006007546001600160401b0381111561136057611360615d9a565b60405190808252806020026020018201604052801561139957816020015b611386614b87565b81526020019060019003908161137e5790505b50905060015b6007548111611f335760006009600083815260200190815260200160002090508060405180610180016040529081600082015481526020016001820180546113e690615cf4565b80601f016020809104026020016040519081016040528092919081815260200182805461141290615cf4565b801561145f5780601f106114345761010080835404028352916020019161145f565b820191906000526020600020905b81548152906001019060200180831161144257829003601f168201915b5050505050815260200160028201805461147890615cf4565b80601f01602080910402602001604051908101604052809291908181526020018280546114a490615cf4565b80156114f15780601f106114c6576101008083540402835291602001916114f1565b820191906000526020600020905b8154815290600101906020018083116114d457829003601f168201915b5050505050815260200160038201548152602001600482015481526020016005820160405180608001604052908160008201805461152e90615cf4565b80601f016020809104026020016040519081016040528092919081815260200182805461155a90615cf4565b80156115a75780601f1061157c576101008083540402835291602001916115a7565b820191906000526020600020905b81548152906001019060200180831161158a57829003601f168201915b505050505081526020016001820180546115c090615cf4565b80601f01602080910402602001604051908101604052809291908181526020018280546115ec90615cf4565b80156116395780601f1061160e57610100808354040283529160200191611639565b820191906000526020600020905b81548152906001019060200180831161161c57829003601f168201915b5050505050815260200160028201805461165290615cf4565b80601f016020809104026020016040519081016040528092919081815260200182805461167e90615cf4565b80156116cb5780601f106116a0576101008083540402835291602001916116cb565b820191906000526020600020905b8154815290600101906020018083116116ae57829003601f168201915b505050505081526020016003820180546116e490615cf4565b80601f016020809104026020016040519081016040528092919081815260200182805461171090615cf4565b801561175d5780601f106117325761010080835404028352916020019161175d565b820191906000526020600020905b81548152906001019060200180831161174057829003601f168201915b50505091909252505050815260098201546001600160a01b03908116602080840191909152600a840154918216604080850191909152600160a01b90920460ff1615156060808501919091528251600b8601805460809481028301850190955291810184815294830194909391928492849184018282801561180857602002820191906000526020600020905b81546001600160a01b031681526001909101906020018083116117ea575b505050505081526020016001820180548060200260200160405190810160405280929190818152602001828054801561186057602002820191906000526020600020905b81548152602001906001019080831161184c575b50505050508152602001600282018054806020026020016040519081016040528092919081815260200182805480156118b857602002820191906000526020600020905b8154815260200190600101908083116118a4575b5050505050815250508152602001600e82016040518060800160405290816000820180546118e590615cf4565b80601f016020809104026020016040519081016040528092919081815260200182805461191190615cf4565b801561195e5780601f106119335761010080835404028352916020019161195e565b820191906000526020600020905b81548152906001019060200180831161194157829003601f168201915b5050505050815260200160018201805461197790615cf4565b80601f01602080910402602001604051908101604052809291908181526020018280546119a390615cf4565b80156119f05780601f106119c5576101008083540402835291602001916119f0565b820191906000526020600020905b8154815290600101906020018083116119d357829003601f168201915b50505050508152602001600282018054611a0990615cf4565b80601f0160208091040260200160405190810160405280929190818152602001828054611a3590615cf4565b8015611a825780601f10611a5757610100808354040283529160200191611a82565b820191906000526020600020905b815481529060010190602001808311611a6557829003601f168201915b50505050508152602001600382018054611a9b90615cf4565b80601f0160208091040260200160405190810160405280929190818152602001828054611ac790615cf4565b8015611b145780601f10611ae957610100808354040283529160200191611b14565b820191906000526020600020905b815481529060010190602001808311611af757829003601f168201915b5050505050815250508152602001601282016040518060e0016040529081600082018054611b4190615cf4565b80601f0160208091040260200160405190810160405280929190818152602001828054611b6d90615cf4565b8015611bba5780601f10611b8f57610100808354040283529160200191611bba565b820191906000526020600020905b815481529060010190602001808311611b9d57829003601f168201915b5050505050815260200160018201805480602002602001604051908101604052809291908181526020016000905b82821015611c94578382906000526020600020018054611c0790615cf4565b80601f0160208091040260200160405190810160405280929190818152602001828054611c3390615cf4565b8015611c805780601f10611c5557610100808354040283529160200191611c80565b820191906000526020600020905b815481529060010190602001808311611c6357829003601f168201915b505050505081526020019060010190611be8565b505050508152602001600282018054611cac90615cf4565b80601f0160208091040260200160405190810160405280929190818152602001828054611cd890615cf4565b8015611d255780601f10611cfa57610100808354040283529160200191611d25565b820191906000526020600020905b815481529060010190602001808311611d0857829003601f168201915b50505050508152602001600382018054611d3e90615cf4565b80601f0160208091040260200160405190810160405280929190818152602001828054611d6a90615cf4565b8015611db75780601f10611d8c57610100808354040283529160200191611db7565b820191906000526020600020905b815481529060010190602001808311611d9a57829003601f168201915b50505050508152602001600482018054611dd090615cf4565b80601f0160208091040260200160405190810160405280929190818152602001828054611dfc90615cf4565b8015611e495780601f10611e1e57610100808354040283529160200191611e49565b820191906000526020600020905b815481529060010190602001808311611e2c57829003601f168201915b50505050508152602001600582018054611e6290615cf4565b80601f0160208091040260200160405190810160405280929190818152602001828054611e8e90615cf4565b8015611edb5780601f10611eb057610100808354040283529160200191611edb565b820191906000526020600020905b815481529060010190602001808311611ebe57829003601f168201915b50505091835250506006919091015460ff16151560209091015290525083611f04600185615cb1565b81518110611f1457611f14615d84565b6020026020010181905250508080611f2b90615d29565b91505061139f565b50919050565b61062283838360405180602001604052806000815250613e51565b60026006541415611fa75760405162461bcd60e51b815260206004820152601f60248201527f5265656e7472616e637947756172643a207265656e7472616e742063616c6c006044820152606401610581565b60026006558951611ffa5760405162461bcd60e51b815260206004820152601960248201527f536f6e67206e616d652063616e6e6f7420626520656d707479000000000000006044820152606401610581565b600089511161204b5760405162461bcd60e51b815260206004820152601b60248201527f417274697374206e616d652063616e6e6f7420626520656d70747900000000006044820152606401610581565b6000881161209b5760405162461bcd60e51b815260206004820152601c60248201527f5072696365206d757374206265206174206c65617374203120776569000000006044820152606401610581565b60008751116120ec5760405162461bcd60e51b815260206004820152601c60248201527f436f76657220696d616765206d7573742062652070726f7669646564000000006044820152606401610581565b60008651116121355760405162461bcd60e51b815260206004820152601560248201527414dbdb99c81b5d5cdd081899481c1c9bdd9a591959605a1b6044820152606401610581565b6001600760008282546121489190615c66565b909155505060408051606080820183528082526020820181905291810191909152429060405180610180016040528060075481526020018d81526020018c81526020018b815260200183815260200160405180608001604052808c81526020018b81526020018a8152602001898152508152602001336001600160a01b03168152602001336001600160a01b0316815260200186151581526020018281526020018581526020018481525060096000600754815260200190815260200160002060008201518160000155602082015181600101908051906020019061222e929190614caf565b506040820151805161224a916002840191602090910190614caf565b50606082015160038201556080820151600482015560a082015180518051600584019161227c91839160200190614caf565b5060208281015180516122959260018501920190614caf565b50604082015180516122b1916002840191602090910190614caf565b50606082015180516122cd916003840191602090910190614caf565b50505060c08201516009820180546001600160a01b0319166001600160a01b0392831617905560e0830151600a83018054610100860151929093166001600160a81b031990931692909217600160a01b9115159190910217905561012082015180518051600b84019161234591839160200190614d33565b50602082810151805161235e9260018501920190614d88565b506040820151805161237a916002840191602090910190614d88565b50505061014082015180518051600e84019161239b91839160200190614caf565b5060208281015180516123b49260018501920190614caf565b50604082015180516123d0916002840191602090910190614caf565b50606082015180516123ec916003840191602090910190614caf565b50505061016082015180518051601284019161240d91839160200190614caf565b5060208281015180516124269260018501920190614dc2565b5060408201518051612442916002840191602090910190614caf565b506060820151805161245e916003840191602090910190614caf565b506080820151805161247a916004840191602090910190614caf565b5060a08201518051612496916005840191602090910190614caf565b5060c091909101516006909101805460ff191691151591909117905550506007546124c29033906146d4565b7ff96f5a22b702e245197d25380b983bdb8de270d638f04994781b9faaf3df61636007548d8d8d866040516124fb959493929190615b4e565b60405180910390a15050600160065550505050505050505050565b600754606090600080805b8381101561257c573360096000612539846001615c66565b81526020810191909152604001600020600901546001600160a01b0316141561256a57612567600184615c66565b92505b8061257481615d29565b915050612521565b506000826001600160401b0381111561259757612597615d9a565b6040519080825280602002602001820160405280156125d057816020015b6125bd614b87565b8152602001906001900390816125b55790505b50905060005b848110156112c25733600960006125ee846001615c66565b81526020810191909152604001600020600901546001600160a01b0316141561319f57600061261e826001615c66565b9050600060096000838152602001908152602001600020905080604051806101800160405290816000820154815260200160018201805461265e90615cf4565b80601f016020809104026020016040519081016040528092919081815260200182805461268a90615cf4565b80156126d75780601f106126ac576101008083540402835291602001916126d7565b820191906000526020600020905b8154815290600101906020018083116126ba57829003601f168201915b505050505081526020016002820180546126f090615cf4565b80601f016020809104026020016040519081016040528092919081815260200182805461271c90615cf4565b80156127695780601f1061273e57610100808354040283529160200191612769565b820191906000526020600020905b81548152906001019060200180831161274c57829003601f168201915b505050505081526020016003820154815260200160048201548152602001600582016040518060800160405290816000820180546127a690615cf4565b80601f01602080910402602001604051908101604052809291908181526020018280546127d290615cf4565b801561281f5780601f106127f45761010080835404028352916020019161281f565b820191906000526020600020905b81548152906001019060200180831161280257829003601f168201915b5050505050815260200160018201805461283890615cf4565b80601f016020809104026020016040519081016040528092919081815260200182805461286490615cf4565b80156128b15780601f10612886576101008083540402835291602001916128b1565b820191906000526020600020905b81548152906001019060200180831161289457829003601f168201915b505050505081526020016002820180546128ca90615cf4565b80601f01602080910402602001604051908101604052809291908181526020018280546128f690615cf4565b80156129435780601f1061291857610100808354040283529160200191612943565b820191906000526020600020905b81548152906001019060200180831161292657829003601f168201915b5050505050815260200160038201805461295c90615cf4565b80601f016020809104026020016040519081016040528092919081815260200182805461298890615cf4565b80156129d55780601f106129aa576101008083540402835291602001916129d5565b820191906000526020600020905b8154815290600101906020018083116129b857829003601f168201915b50505091909252505050815260098201546001600160a01b03908116602080840191909152600a840154918216604080850191909152600160a01b90920460ff1615156060808501919091528251600b86018054608094810283018501909552918101848152948301949093919284928491840182828015612a8057602002820191906000526020600020905b81546001600160a01b03168152600190910190602001808311612a62575b5050505050815260200160018201805480602002602001604051908101604052809291908181526020018280548015612ad857602002820191906000526020600020905b815481526020019060010190808311612ac4575b5050505050815260200160028201805480602002602001604051908101604052809291908181526020018280548015612b3057602002820191906000526020600020905b815481526020019060010190808311612b1c575b5050505050815250508152602001600e8201604051806080016040529081600082018054612b5d90615cf4565b80601f0160208091040260200160405190810160405280929190818152602001828054612b8990615cf4565b8015612bd65780601f10612bab57610100808354040283529160200191612bd6565b820191906000526020600020905b815481529060010190602001808311612bb957829003601f168201915b50505050508152602001600182018054612bef90615cf4565b80601f0160208091040260200160405190810160405280929190818152602001828054612c1b90615cf4565b8015612c685780601f10612c3d57610100808354040283529160200191612c68565b820191906000526020600020905b815481529060010190602001808311612c4b57829003601f168201915b50505050508152602001600282018054612c8190615cf4565b80601f0160208091040260200160405190810160405280929190818152602001828054612cad90615cf4565b8015612cfa5780601f10612ccf57610100808354040283529160200191612cfa565b820191906000526020600020905b815481529060010190602001808311612cdd57829003601f168201915b50505050508152602001600382018054612d1390615cf4565b80601f0160208091040260200160405190810160405280929190818152602001828054612d3f90615cf4565b8015612d8c5780601f10612d6157610100808354040283529160200191612d8c565b820191906000526020600020905b815481529060010190602001808311612d6f57829003601f168201915b5050505050815250508152602001601282016040518060e0016040529081600082018054612db990615cf4565b80601f0160208091040260200160405190810160405280929190818152602001828054612de590615cf4565b8015612e325780601f10612e0757610100808354040283529160200191612e32565b820191906000526020600020905b815481529060010190602001808311612e1557829003601f168201915b5050505050815260200160018201805480602002602001604051908101604052809291908181526020016000905b82821015612f0c578382906000526020600020018054612e7f90615cf4565b80601f0160208091040260200160405190810160405280929190818152602001828054612eab90615cf4565b8015612ef85780601f10612ecd57610100808354040283529160200191612ef8565b820191906000526020600020905b815481529060010190602001808311612edb57829003601f168201915b505050505081526020019060010190612e60565b505050508152602001600282018054612f2490615cf4565b80601f0160208091040260200160405190810160405280929190818152602001828054612f5090615cf4565b8015612f9d5780601f10612f7257610100808354040283529160200191612f9d565b820191906000526020600020905b815481529060010190602001808311612f8057829003601f168201915b50505050508152602001600382018054612fb690615cf4565b80601f0160208091040260200160405190810160405280929190818152602001828054612fe290615cf4565b801561302f5780601f106130045761010080835404028352916020019161302f565b820191906000526020600020905b81548152906001019060200180831161301257829003601f168201915b5050505050815260200160048201805461304890615cf4565b80601f016020809104026020016040519081016040528092919081815260200182805461307490615cf4565b80156130c15780601f10613096576101008083540402835291602001916130c1565b820191906000526020600020905b8154815290600101906020018083116130a457829003601f168201915b505050505081526020016005820180546130da90615cf4565b80601f016020809104026020016040519081016040528092919081815260200182805461310690615cf4565b80156131535780601f1061312857610100808354040283529160200191613153565b820191906000526020600020905b81548152906001019060200180831161313657829003601f168201915b50505091835250506006919091015460ff161515602090910152905250845185908790811061318457613184615d84565b602090810291909101015261319a600186615c66565b945050505b806131a981615d29565b9150506125d6565b6000818152600260205260408120546001600160a01b03168061044d5760405162461bcd60e51b8152602060048201526018602482015277115490cdcc8c4e881a5b9d985b1a59081d1bdad95b88125160421b6044820152606401610581565b60006001600160a01b03821661327b5760405162461bcd60e51b815260206004820152602960248201527f4552433732313a2061646472657373207a65726f206973206e6f7420612076616044820152683634b21037bbb732b960b91b6064820152608401610581565b506001600160a01b031660009081526003602052604090205490565b600260065414156132ea5760405162461bcd60e51b815260206004820152601f60248201527f5265656e7472616e637947756172643a207265656e7472616e742063616c6c006044820152606401610581565b6002600655801580159061330057506007548111155b61331c5760405162461bcd60e51b815260040161058190615ad7565b6000818152600960205260409020600381015434101561337e5760405162461bcd60e51b815260206004820152601960248201527f4e6f7420656e6f756768204d415449432070726f7669646564000000000000006044820152606401610581565b600a810154600160a01b900460ff166133d95760405162461bcd60e51b815260206004820152601e60248201527f536f6e67206973206e6f7420617661696c61626c6520666f722073616c6500006044820152606401610581565b600a8101546001600160a01b03163314156134405760405162461bcd60e51b815260206004820152602160248201527f596f752063616e6e6f7420707572636861736520796f7572206f776e20736f6e6044820152606760f81b6064820152608401610581565b600a81018054600b83018054600181810183556000928352602080842090920180546001600160a01b0319166001600160a01b039586161790556003860154600c8701805480840182559085528385200155600d86018054918201815583529120429101556009830154915481169116141561352a57600a8101546040516001600160a01b03909116903480156108fc02916000818181858888f193505050501580156134f1573d6000803e3d6000fd5b506040513481527f65c6d8fba61178d7d13f40f93101dc43462b1c7b157b0425857039999938e5f79060200160405180910390a161365b565b6000613542606461353c34605e6146ee565b906146fa565b600a8301546040519192506001600160a01b03169082156108fc029083906000818181858888f1935050505015801561357f573d6000803e3d6000fd5b506000613592606461353c3460056146ee565b60098401546040519192506001600160a01b03169082156108fc029083906000818181858888f193505050501580156135cf573d6000803e3d6000fd5b5060006135e2606461353c3460016146ee565b6008546040519192506001600160a01b03169082156108fc029083906000818181858888f1935050505015801561361d573d6000803e3d6000fd5b5060408051848152602081018490527f5c1cc83fbc8e7a522bf0644cacfec8391f6ab9a547c34594a325a98733254815910160405180910390a15050505b600a810154613674906001600160a01b03163384614538565b600a810180546001600160a01b03191633179055600381015461369f9060649061353c9060786146ee565b600382015560008281526009602052604090208154815560018083018054849392830191906136cd90615cf4565b6136d8929190614e1b565b5060028201816002019080546136ed90615cf4565b6136f8929190614e1b565b5060038201548160030155600482015481600401556005820181600501600082018160000190805461372990615cf4565b613734929190614e1b565b50600182018160010190805461374990615cf4565b613754929190614e1b565b50600282018160020190805461376990615cf4565b613774929190614e1b565b50600382018160030190805461378990615cf4565b613794929190614e1b565b50505060098281015490820180546001600160a01b03199081166001600160a01b0393841617909155600a808501805491850180549384169290941691821784555460ff600160a01b91829004161515026001600160a81b031990921617179055600b8083018054909183019061380e9082908490614e96565b50600182810180546138239284019190614e96565b50600282810180546138389284019190614e96565b505050600e820181600e01600082018160000190805461385790615cf4565b613862929190614e1b565b50600182018160010190805461387790615cf4565b613882929190614e1b565b50600282018160020190805461389790615cf4565b6138a2929190614e1b565b5060038201816003019080546138b790615cf4565b6138c2929190614e1b565b505050601282018160120160008201816000019080546138e190615cf4565b6138ec929190614e1b565b50600182810180546139019284019190614ed5565b50600282018160020190805461391690615cf4565b613921929190614e1b565b50600382018160030190805461393690615cf4565b613941929190614e1b565b50600482018160040190805461395690615cf4565b613961929190614e1b565b50600582018160050190805461397690615cf4565b613981929190614e1b565b506006918201549101805460ff191660ff928316151517905560075460038501546009860154600a8701546040517f30c844a06fa0a42a14be9be128319db44e764ee66debb78baacff0f327ad926e9750613a0396509394600189019460028a0194936001600160a01b039081169390811692600160a01b9091041690615b8e565b60405180910390a150506001600655565b600082118015613a2657506007548211155b613a425760405162461bcd60e51b815260040161058190615ad7565b6000828152600960205260409020600a8101546001600160a01b03163314613ac05760405162461bcd60e51b815260206004820152602b60248201527f4f6e6c79207468652063757272656e74206f776e65722063616e20757064617460448201526a652074686520707269636560a81b6064820152608401610581565b600381018290556000838152600960205260409020815481556001808301805484939283019190613af090615cf4565b613afb929190614e1b565b506002820181600201908054613b1090615cf4565b613b1b929190614e1b565b50600382015481600301556004820154816004015560058201816005016000820181600001908054613b4c90615cf4565b613b57929190614e1b565b506001820181600101908054613b6c90615cf4565b613b77929190614e1b565b506002820181600201908054613b8c90615cf4565b613b97929190614e1b565b506003820181600301908054613bac90615cf4565b613bb7929190614e1b565b50505060098281015490820180546001600160a01b03199081166001600160a01b0393841617909155600a808501805491850180549384169290941691821784555460ff600160a01b91829004161515026001600160a81b031990921617179055600b80830180549091830190613c319082908490614e96565b5060018281018054613c469284019190614e96565b5060028281018054613c5b9284019190614e96565b505050600e820181600e016000820181600001908054613c7a90615cf4565b613c85929190614e1b565b506001820181600101908054613c9a90615cf4565b613ca5929190614e1b565b506002820181600201908054613cba90615cf4565b613cc5929190614e1b565b506003820181600301908054613cda90615cf4565b613ce5929190614e1b565b50505060128201816012016000820181600001908054613d0490615cf4565b613d0f929190614e1b565b5060018281018054613d249284019190614ed5565b506002820181600201908054613d3990615cf4565b613d44929190614e1b565b506003820181600301908054613d5990615cf4565b613d64929190614e1b565b506004820181600401908054613d7990615cf4565b613d84929190614e1b565b506005820181600501908054613d9990615cf4565b613da4929190614e1b565b506006918201549101805460ff191660ff928316151517905560075460038501546009860154600a8701546040517f94292df13d29700bc2d3eb2a0ea031a5380ad4f2df2bd33a92162c187d5f53ac9750613e2696509394600189019460028a0194936001600160a01b039081169390811692600160a01b9091041690615b8e565b60405180910390a1505050565b60606001805461046290615cf4565b613e4d338383614706565b5050565b613e5b33836144b9565b613e775760405162461bcd60e51b815260040161058190615b00565b613e83848484846147d5565b50505050565b6060613e94826143e9565b6000613eab60408051602081019091526000815290565b90506000815111613ecb5760405180602001604052806000815250613ef6565b80613ed584614808565b604051602001613ee69291906158b3565b6040516020818303038152906040525b9392505050565b600081118015613f0f57506007548111155b613f2b5760405162461bcd60e51b815260040161058190615ad7565b6000818152600960208190526040909120908101546001600160a01b03163314613fb05760405162461bcd60e51b815260206004820152603060248201527f4f6e6c7920746865206172746973742063616e20746f67676c6520746865206f60448201526f6e2073616c652061747472696275746560801b6064820152608401610581565b600a81015460098201546001600160a01b039081169116146140285760405162461bcd60e51b815260206004820152602b60248201527f417274697374206d757374206265207468652063757272656e74206f776e657260448201526a081bd9881d1a194813919560aa1b6064820152608401610581565b600a810154600160a01b900460ff1615156001141561405557600a8101805460ff60a01b1916905561407e565b600a810154600160a01b900460ff1661407e57600a8101805460ff60a01b1916600160a01b1790555b60008281526009602052604090208154815560018083018054849392830191906140a790615cf4565b6140b2929190614e1b565b5060028201816002019080546140c790615cf4565b6140d2929190614e1b565b5060038201548160030155600482015481600401556005820181600501600082018160000190805461410390615cf4565b61410e929190614e1b565b50600182018160010190805461412390615cf4565b61412e929190614e1b565b50600282018160020190805461414390615cf4565b61414e929190614e1b565b50600382018160030190805461416390615cf4565b61416e929190614e1b565b50505060098281015490820180546001600160a01b03199081166001600160a01b0393841617909155600a808501805491850180549384169290941691821784555460ff600160a01b91829004161515026001600160a81b031990921617179055600b808301805490918301906141e89082908490614e96565b50600182810180546141fd9284019190614e96565b50600282810180546142129284019190614e96565b505050600e820181600e01600082018160000190805461423190615cf4565b61423c929190614e1b565b50600182018160010190805461425190615cf4565b61425c929190614e1b565b50600282018160020190805461427190615cf4565b61427c929190614e1b565b50600382018160030190805461429190615cf4565b61429c929190614e1b565b505050601282018160120160008201816000019080546142bb90615cf4565b6142c6929190614e1b565b50600182810180546142db9284019190614ed5565b5060028201816002019080546142f090615cf4565b6142fb929190614e1b565b50600382018160030190805461431090615cf4565b61431b929190614e1b565b50600482018160040190805461433090615cf4565b61433b929190614e1b565b50600582018160050190805461435090615cf4565b61435b929190614e1b565b506006918201549101805460ff191660ff928316151517905560075460038501546009860154600a8701546040517f94292df13d29700bc2d3eb2a0ea031a5380ad4f2df2bd33a92162c187d5f53ac97506143dd96509394600189019460028a0194936001600160a01b039081169390811692600160a01b9091041690615b8e565b60405180910390a15050565b6000818152600260205260409020546001600160a01b03166144485760405162461bcd60e51b8152602060048201526018602482015277115490cdcc8c4e881a5b9d985b1a59081d1bdad95b88125160421b6044820152606401610581565b50565b600081815260046020526040902080546001600160a01b0319166001600160a01b0384169081179091558190614480826131b1565b6001600160a01b03167f8c5be1e5ebec7d5bd14f71427d1e84f3dd0314c0f7b2291e5b200ac8c7c3b92560405160405180910390a45050565b6000806144c5836131b1565b9050806001600160a01b0316846001600160a01b0316148061450c57506001600160a01b0380821660009081526005602090815260408083209388168352929052205460ff165b806145305750836001600160a01b0316614525846104e5565b6001600160a01b0316145b949350505050565b826001600160a01b031661454b826131b1565b6001600160a01b0316146145af5760405162461bcd60e51b815260206004820152602560248201527f4552433732313a207472616e736665722066726f6d20696e636f72726563742060448201526437bbb732b960d91b6064820152608401610581565b6001600160a01b0382166146115760405162461bcd60e51b8152602060048201526024808201527f4552433732313a207472616e7366657220746f20746865207a65726f206164646044820152637265737360e01b6064820152608401610581565b61461c60008261444b565b6001600160a01b0383166000908152600360205260408120805460019290614645908490615cb1565b90915550506001600160a01b0382166000908152600360205260408120805460019290614673908490615c66565b909155505060008181526002602052604080822080546001600160a01b0319166001600160a01b0386811691821790925591518493918716917fddf252ad1be2c89b69c2b068fc378daa952ba7f163c4a11628f55a4df523b3ef91a4505050565b613e4d828260405180602001604052806000815250614905565b6000613ef68284615c92565b6000613ef68284615c7e565b816001600160a01b0316836001600160a01b031614156147685760405162461bcd60e51b815260206004820152601960248201527f4552433732313a20617070726f766520746f2063616c6c6572000000000000006044820152606401610581565b6001600160a01b03838116600081815260056020908152604080832094871680845294825291829020805460ff191686151590811790915591519182527f17307eab39ab6107e8899845ad3d59bd9653f200f220920489ca2b5937696c31910160405180910390a3505050565b6147e0848484614538565b6147ec84848484614938565b613e835760405162461bcd60e51b815260040161058190615a85565b60608161482c5750506040805180820190915260018152600360fc1b602082015290565b8160005b8115614856578061484081615d29565b915061484f9050600a83615c7e565b9150614830565b6000816001600160401b0381111561487057614870615d9a565b6040519080825280601f01601f19166020018201604052801561489a576020820181803683370190505b5090505b8415614530576148af600183615cb1565b91506148bc600a86615d44565b6148c7906030615c66565b60f81b8183815181106148dc576148dc615d84565b60200101906001600160f81b031916908160001a9053506148fe600a86615c7e565b945061489e565b61490f8383614a45565b61491c6000848484614938565b6106225760405162461bcd60e51b815260040161058190615a85565b60006001600160a01b0384163b15614a3a57604051630a85bd0160e11b81526001600160a01b0385169063150b7a029061497c9033908990889088906004016158e2565b602060405180830381600087803b15801561499657600080fd5b505af19250505080156149c6575060408051601f3d908101601f191682019092526149c39181019061541e565b60015b614a20573d8080156149f4576040519150601f19603f3d011682016040523d82523d6000602084013e6149f9565b606091505b508051614a185760405162461bcd60e51b815260040161058190615a85565b805181602001fd5b6001600160e01b031916630a85bd0160e11b149050614530565b506001949350505050565b6001600160a01b038216614a9b5760405162461bcd60e51b815260206004820181905260248201527f4552433732313a206d696e7420746f20746865207a65726f20616464726573736044820152606401610581565b6000818152600260205260409020546001600160a01b031615614b005760405162461bcd60e51b815260206004820152601c60248201527f4552433732313a20746f6b656e20616c7265616479206d696e746564000000006044820152606401610581565b6001600160a01b0382166000908152600360205260408120805460019290614b29908490615c66565b909155505060008181526002602052604080822080546001600160a01b0319166001600160a01b03861690811790915590518392907fddf252ad1be2c89b69c2b068fc378daa952ba7f163c4a11628f55a4df523b3ef908290a45050565b6040518061018001604052806000815260200160608152602001606081526020016000815260200160008152602001614be16040518060800160405280606081526020016060815260200160608152602001606081525090565b815260200160006001600160a01b0316815260200160006001600160a01b03168152602001600015158152602001614c3360405180606001604052806060815260200160608152602001606081525090565b8152602001614c636040518060800160405280606081526020016060815260200160608152602001606081525090565b8152602001614caa6040518060e001604052806060815260200160608152602001606081526020016060815260200160608152602001606081526020016000151581525090565b905290565b828054614cbb90615cf4565b90600052602060002090601f016020900481019282614cdd5760008555614d23565b82601f10614cf657805160ff1916838001178555614d23565b82800160010185558215614d23579182015b82811115614d23578251825591602001919060010190614d08565b50614d2f929150614f2b565b5090565b828054828255906000526020600020908101928215614d23579160200282015b82811115614d2357825182546001600160a01b0319166001600160a01b03909116178255602090920191600190910190614d53565b828054828255906000526020600020908101928215614d235791602002820182811115614d23578251825591602001919060010190614d08565b828054828255906000526020600020908101928215614e0f579160200282015b82811115614e0f5782518051614dff918491602090910190614caf565b5091602001919060010190614de2565b50614d2f929150614f40565b828054614e2790615cf4565b90600052602060002090601f016020900481019282614e495760008555614d23565b82601f10614e5a5780548555614d23565b82800160010185558215614d2357600052602060002091601f016020900482015b82811115614d23578254825591600101919060010190614e7b565b828054828255906000526020600020908101928215614d2357600052602060002091820182811115614d23578254825591600101919060010190614e7b565b828054828255906000526020600020908101928215614e0f5760005260206000209182015b82811115614e0f578282908054614f1090615cf4565b614f1b929190614e1b565b5091600101919060010190614efa565b5b80821115614d2f5760008155600101614f2c565b80821115614d2f576000614f548282614f5d565b50600101614f40565b508054614f6990615cf4565b6000825580601f10614f79575050565b601f0160209004906000526020600020908101906144489190614f2b565b60006001600160401b03831115614fb057614fb0615d9a565b614fc3601f8401601f1916602001615c36565b9050828152838383011115614fd757600080fd5b828260208301376000602084830101529392505050565b80356001600160a01b038116811461500557600080fd5b919050565b600082601f83011261501b57600080fd5b813560206001600160401b038083111561503757615037615d9a565b8260051b615046838201615c36565b8481528381019087850183890186018a101561506157600080fd5b60009350835b8781101561509e5781358681111561507d578586fd5b61508b8c89838e01016150bd565b8552509286019290860190600101615067565b50909998505050505050505050565b8035801515811461500557600080fd5b600082601f8301126150ce57600080fd5b613ef683833560208501614f97565b600060e082840312156150ef57600080fd5b6150f7615bec565b905081356001600160401b038082111561511057600080fd5b61511c858386016150bd565b8352602084013591508082111561513257600080fd5b61513e8583860161500a565b6020840152604084013591508082111561515757600080fd5b615163858386016150bd565b6040840152606084013591508082111561517c57600080fd5b615188858386016150bd565b606084015260808401359150808211156151a157600080fd5b6151ad858386016150bd565b608084015260a08401359150808211156151c657600080fd5b506151d3848285016150bd565b60a0830152506151e560c083016150ad565b60c082015292915050565b60006080828403121561520257600080fd5b61520a615c14565b905081356001600160401b038082111561522357600080fd5b61522f858386016150bd565b8352602084013591508082111561524557600080fd5b615251858386016150bd565b6020840152604084013591508082111561526a57600080fd5b615276858386016150bd565b6040840152606084013591508082111561528f57600080fd5b5061529c848285016150bd565b60608301525092915050565b6000602082840312156152ba57600080fd5b613ef682614fee565b600080604083850312156152d657600080fd5b6152df83614fee565b91506152ed60208401614fee565b90509250929050565b60008060006060848603121561530b57600080fd5b61531484614fee565b925061532260208501614fee565b9150604084013590509250925092565b6000806000806080858703121561534857600080fd5b61535185614fee565b935061535f60208601614fee565b92506040850135915060608501356001600160401b0381111561538157600080fd5b8501601f8101871361539257600080fd5b6153a187823560208401614f97565b91505092959194509250565b600080604083850312156153c057600080fd5b6153c983614fee565b91506152ed602084016150ad565b600080604083850312156153ea57600080fd5b6153f383614fee565b946020939093013593505050565b60006020828403121561541357600080fd5b8135613ef681615db0565b60006020828403121561543057600080fd5b8151613ef681615db0565b6000806000806000806000806000806101408b8d03121561545b57600080fd5b8a356001600160401b038082111561547257600080fd5b61547e8e838f016150bd565b9b5060208d013591508082111561549457600080fd5b6154a08e838f016150bd565b9a5060408d0135995060608d01359150808211156154bd57600080fd5b6154c98e838f016150bd565b985060808d01359150808211156154df57600080fd5b6154eb8e838f016150bd565b975060a08d013591508082111561550157600080fd5b61550d8e838f016150bd565b965060c08d013591508082111561552357600080fd5b61552f8e838f016150bd565b955061553d60e08e016150ad565b94506101008d013591508082111561555457600080fd5b6155608e838f016151f0565b93506101208d013591508082111561557757600080fd5b506155848d828e016150dd565b9150509295989b9194979a5092959850565b6000602082840312156155a857600080fd5b5035919050565b600080604083850312156155c257600080fd5b50508035926020909101359150565b600081518084526020808501945080840160005b83811015615601578151875295820195908201906001016155e5565b509495945050505050565b60008151808452615624816020860160208601615cc8565b601f01601f19169290920160200192915050565b8054600090600181811c908083168061565257607f831692505b602080841082141561567457634e487b7160e01b600052602260045260246000fd5b8388526020880182801561568f57600181146156a0576156cb565b60ff198716825282820197506156cb565b60008981526020902060005b878110156156c5578154848201529086019084016156ac565b83019850505b5050505050505092915050565b6000815160e084526156ed60e085018261560c565b9050602080840151858303828701528281518085528385019150838160051b860101848401935060005b8281101561574557601f1987830301845261573382865161560c565b94860194938601939150600101615717565b506040880151955088810360408a015261575f818761560c565b955050505050506060830151848203606086015261577d828261560c565b91505060808301518482036080860152615797828261560c565b91505060a083015184820360a08601526157b1828261560c565b91505060c08301516157c760c086018215159052565b509392505050565b60008151608084526157e4608085018261560c565b9050602083015184820360208601526157fd828261560c565b91505060408301518482036040860152615817828261560c565b91505060608301518482036060860152615831828261560c565b95945050505050565b805160608084528151908401819052600091602091908201906080860190845b8181101561587f5783516001600160a01b03168352928401929184019160010161585a565b50508285015191508581038387015261589881836155d1565b925050506040830151848203604086015261583182826155d1565b600083516158c5818460208801615cc8565b8351908301906158d9818360208801615cc8565b01949350505050565b6001600160a01b03858116825284166020820152604081018390526080606082018190526000906159159083018461560c565b9695505050505050565b60006020808301818452808551808352604092508286019150828160051b87010184880160005b83811015615a6457603f1989840301855281516101808151855288820151818a8701526159758287018261560c565b915050878201518582038987015261598d828261560c565b9150506060808301518187015250608080830151818701525060a080830151868303828801526159bd83826157cf565b9250505060c0808301516159db828801826001600160a01b03169052565b505060e0828101516001600160a01b031690860152610100808301511515908601526101208083015186830382880152615a15838261583a565b925050506101408083015186830382880152615a3183826157cf565b925050506101608083015192508582038187015250615a5081836156d8565b968901969450505090860190600101615946565b509098975050505050505050565b602081526000613ef6602083018461560c565b60208082526032908201527f4552433732313a207472616e7366657220746f206e6f6e20455243373231526560408201527131b2b4bb32b91034b6b83632b6b2b73a32b960711b606082015260800190565b6020808252600f908201526e125b9d985b1a59081cdbdb99c81a59608a1b604082015260600190565b6020808252602e908201527f4552433732313a2063616c6c6572206973206e6f7420746f6b656e206f776e6560408201526d1c881b9bdc88185c1c1c9bdd995960921b606082015260800190565b85815260a060208201526000615b6760a083018761560c565b8281036040840152615b79818761560c565b60608401959095525050608001529392505050565b87815260e060208201526000615ba760e0830189615638565b8281036040840152615bb98189615638565b606084019790975250506001600160a01b0393841660808201529190921660a082015290151560c0909101529392505050565b60405160e081016001600160401b0381118282101715615c0e57615c0e615d9a565b60405290565b604051608081016001600160401b0381118282101715615c0e57615c0e615d9a565b604051601f8201601f191681016001600160401b0381118282101715615c5e57615c5e615d9a565b604052919050565b60008219821115615c7957615c79615d58565b500190565b600082615c8d57615c8d615d6e565b500490565b6000816000190483118215151615615cac57615cac615d58565b500290565b600082821015615cc357615cc3615d58565b500390565b60005b83811015615ce3578181015183820152602001615ccb565b83811115613e835750506000910152565b600181811c90821680615d0857607f821691505b60208210811415611f3357634e487b7160e01b600052602260045260246000fd5b6000600019821415615d3d57615d3d615d58565b5060010190565b600082615d5357615d53615d6e565b500690565b634e487b7160e01b600052601160045260246000fd5b634e487b7160e01b600052601260045260246000fd5b634e487b7160e01b600052603260045260246000fd5b634e487b7160e01b600052604160045260246000fd5b6001600160e01b03198116811461444857600080fdfea2646970667358221220fa1501abc96ab974dff78a968703397e89fb7c87db023937d1d49e24070feffc64736f6c63430008070033",
			"opcodes": "PUSH1 0x80 PUSH1 0x40 MSTORE PUSH1 0x0 PUSH1 0x7 SSTORE PUSH1 0x8 DUP1 SLOAD PUSH1 0x1 PUSH1 0x1 PUSH1 0xA0 SHL SUB NOT AND PUSH20 0x69E6830FB2009952571DEE88CA2041D2BD6FD491 OR SWAP1 SSTORE CALLVALUE DUP1 ISZERO PUSH3 0x3C JUMPI PUSH1 0x0 DUP1 REVERT JUMPDEST POP PUSH1 0x40 DUP1 MLOAD DUP1 DUP3 ADD DUP3 MSTORE PUSH1 0xA DUP2 MSTORE PUSH10 0x4D757369636F736D6F73 PUSH1 0xB0 SHL PUSH1 0x20 DUP1 DUP4 ADD SWAP2 DUP3 MSTORE DUP4 MLOAD DUP1 DUP6 ADD SWAP1 SWAP5 MSTORE PUSH1 0x3 DUP5 MSTORE PUSH3 0x4D5343 PUSH1 0xE8 SHL SWAP1 DUP5 ADD MSTORE DUP2 MLOAD SWAP2 SWAP3 SWAP2 PUSH3 0x8A SWAP2 PUSH1 0x0 SWAP2 PUSH3 0xAE JUMP JUMPDEST POP DUP1 MLOAD PUSH3 0xA0 SWAP1 PUSH1 0x1 SWAP1 PUSH1 0x20 DUP5 ADD SWAP1 PUSH3 0xAE JUMP JUMPDEST POP POP PUSH1 0x1 PUSH1 0x6 SSTORE POP PUSH3 0x191 JUMP JUMPDEST DUP3 DUP1 SLOAD PUSH3 0xBC SWAP1 PUSH3 0x154 JUMP JUMPDEST SWAP1 PUSH1 0x0 MSTORE PUSH1 0x20 PUSH1 0x0 KECCAK256 SWAP1 PUSH1 0x1F ADD PUSH1 0x20 SWAP1 DIV DUP2 ADD SWAP3 DUP3 PUSH3 0xE0 JUMPI PUSH1 0x0 DUP6 SSTORE PUSH3 0x12B JUMP JUMPDEST DUP3 PUSH1 0x1F LT PUSH3 0xFB JUMPI DUP1 MLOAD PUSH1 0xFF NOT AND DUP4 DUP1 ADD OR DUP6 SSTORE PUSH3 0x12B JUMP JUMPDEST DUP3 DUP1 ADD PUSH1 0x1 ADD DUP6 SSTORE DUP3 ISZERO PUSH3 0x12B JUMPI SWAP2 DUP3 ADD JUMPDEST DUP3 DUP2 GT ISZERO PUSH3 0x12B JUMPI DUP3 MLOAD DUP3 SSTORE SWAP2 PUSH1 0x20 ADD SWAP2 SWAP1 PUSH1 0x1 ADD SWAP1 PUSH3 0x10E JUMP JUMPDEST POP PUSH3 0x139 SWAP3 SWAP2 POP PUSH3 0x13D JUMP JUMPDEST POP SWAP1 JUMP JUMPDEST JUMPDEST DUP1 DUP3 GT ISZERO PUSH3 0x139 JUMPI PUSH1 0x0 DUP2 SSTORE PUSH1 0x1 ADD PUSH3 0x13E JUMP JUMPDEST PUSH1 0x1 DUP2 DUP2 SHR SWAP1 DUP3 AND DUP1 PUSH3 0x169 JUMPI PUSH1 0x7F DUP3 AND SWAP2 POP JUMPDEST PUSH1 0x20 DUP3 LT DUP2 EQ ISZERO PUSH3 0x18B JUMPI PUSH4 0x4E487B71 PUSH1 0xE0 SHL PUSH1 0x0 MSTORE PUSH1 0x22 PUSH1 0x4 MSTORE PUSH1 0x24 PUSH1 0x0 REVERT JUMPDEST POP SWAP2 SWAP1 POP JUMP JUMPDEST PUSH2 0x5DFC DUP1 PUSH3 0x1A1 PUSH1 0x0 CODECOPY PUSH1 0x0 RETURN INVALID PUSH1 0x80 PUSH1 0x40 MSTORE PUSH1 0x4 CALLDATASIZE LT PUSH2 0x12A JUMPI PUSH1 0x0 CALLDATALOAD PUSH1 0xE0 SHR DUP1 PUSH4 0x5CC11B34 GT PUSH2 0xAB JUMPI DUP1 PUSH4 0x95D89B41 GT PUSH2 0x6F JUMPI DUP1 PUSH4 0x95D89B41 EQ PUSH2 0x323 JUMPI DUP1 PUSH4 0xA22CB465 EQ PUSH2 0x338 JUMPI DUP1 PUSH4 0xB88D4FDE EQ PUSH2 0x358 JUMPI DUP1 PUSH4 0xC87B56DD EQ PUSH2 0x378 JUMPI DUP1 PUSH4 0xE985E9C5 EQ PUSH2 0x398 JUMPI DUP1 PUSH4 0xEE169BD3 EQ PUSH2 0x3E1 JUMPI PUSH1 0x0 DUP1 REVERT JUMPDEST DUP1 PUSH4 0x5CC11B34 EQ PUSH2 0x29B JUMPI DUP1 PUSH4 0x6352211E EQ PUSH2 0x2B0 JUMPI DUP1 PUSH4 0x70A08231 EQ PUSH2 0x2D0 JUMPI DUP1 PUSH4 0x7B3E4CE0 EQ PUSH2 0x2F0 JUMPI DUP1 PUSH4 0x82367B2D EQ PUSH2 0x303 JUMPI PUSH1 0x0 DUP1 REVERT JUMPDEST DUP1 PUSH4 0x23B872DD GT PUSH2 0xF2 JUMPI DUP1 PUSH4 0x23B872DD EQ PUSH2 0x202 JUMPI DUP1 PUSH4 0x3F0E317B EQ PUSH2 0x222 JUMPI DUP1 PUSH4 0x42842E0E EQ PUSH2 0x237 JUMPI DUP1 PUSH4 0x4E8172B8 EQ PUSH2 0x257 JUMPI DUP1 PUSH4 0x5375FAA5 EQ PUSH2 0x27B JUMPI PUSH1 0x0 DUP1 REVERT JUMPDEST DUP1 PUSH4 0x1FFC9A7 EQ PUSH2 0x12F JUMPI DUP1 PUSH4 0x6FDDE03 EQ PUSH2 0x164 JUMPI DUP1 PUSH4 0x81812FC EQ PUSH2 0x186 JUMPI DUP1 PUSH4 0x95EA7B3 EQ PUSH2 0x1BE JUMPI DUP1 PUSH4 0x202E3740 EQ PUSH2 0x1E0 JUMPI JUMPDEST PUSH1 0x0 DUP1 REVERT JUMPDEST CALLVALUE DUP1 ISZERO PUSH2 0x13B JUMPI PUSH1 0x0 DUP1 REVERT JUMPDEST POP PUSH2 0x14F PUSH2 0x14A CALLDATASIZE PUSH1 0x4 PUSH2 0x5401 JUMP JUMPDEST PUSH2 0x401 JUMP JUMPDEST PUSH1 0x40 MLOAD SWAP1 ISZERO ISZERO DUP2 MSTORE PUSH1 0x20 ADD JUMPDEST PUSH1 0x40 MLOAD DUP1 SWAP2 SUB SWAP1 RETURN JUMPDEST CALLVALUE DUP1 ISZERO PUSH2 0x170 JUMPI PUSH1 0x0 DUP1 REVERT JUMPDEST POP PUSH2 0x179 PUSH2 0x453 JUMP JUMPDEST PUSH1 0x40 MLOAD PUSH2 0x15B SWAP2 SWAP1 PUSH2 0x5A72 JUMP JUMPDEST CALLVALUE DUP1 ISZERO PUSH2 0x192 JUMPI PUSH1 0x0 DUP1 REVERT JUMPDEST POP PUSH2 0x1A6 PUSH2 0x1A1 CALLDATASIZE PUSH1 0x4 PUSH2 0x5596 JUMP JUMPDEST PUSH2 0x4E5 JUMP JUMPDEST PUSH1 0x40 MLOAD PUSH1 0x1 PUSH1 0x1 PUSH1 0xA0 SHL SUB SWAP1 SWAP2 AND DUP2 MSTORE PUSH1 0x20 ADD PUSH2 0x15B JUMP JUMPDEST CALLVALUE DUP1 ISZERO PUSH2 0x1CA JUMPI PUSH1 0x0 DUP1 REVERT JUMPDEST POP PUSH2 0x1DE PUSH2 0x1D9 CALLDATASIZE PUSH1 0x4 PUSH2 0x53D7 JUMP JUMPDEST PUSH2 0x50C JUMP JUMPDEST STOP JUMPDEST CALLVALUE DUP1 ISZERO PUSH2 0x1EC JUMPI PUSH1 0x0 DUP1 REVERT JUMPDEST POP PUSH2 0x1F5 PUSH2 0x627 JUMP JUMPDEST PUSH1 0x40 MLOAD PUSH2 0x15B SWAP2 SWAP1 PUSH2 0x591F JUMP JUMPDEST CALLVALUE DUP1 ISZERO PUSH2 0x20E JUMPI PUSH1 0x0 DUP1 REVERT JUMPDEST POP PUSH2 0x1DE PUSH2 0x21D CALLDATASIZE PUSH1 0x4 PUSH2 0x52F6 JUMP JUMPDEST PUSH2 0x12CB JUMP JUMPDEST CALLVALUE DUP1 ISZERO PUSH2 0x22E JUMPI PUSH1 0x0 DUP1 REVERT JUMPDEST POP PUSH2 0x1F5 PUSH2 0x12FC JUMP JUMPDEST CALLVALUE DUP1 ISZERO PUSH2 0x243 JUMPI PUSH1 0x0 DUP1 REVERT JUMPDEST POP PUSH2 0x1DE PUSH2 0x252 CALLDATASIZE PUSH1 0x4 PUSH2 0x52F6 JUMP JUMPDEST PUSH2 0x1F39 JUMP JUMPDEST CALLVALUE DUP1 ISZERO PUSH2 0x263 JUMPI PUSH1 0x0 DUP1 REVERT JUMPDEST POP PUSH2 0x26D PUSH1 0x7 SLOAD DUP2 JUMP JUMPDEST PUSH1 0x40 MLOAD SWAP1 DUP2 MSTORE PUSH1 0x20 ADD PUSH2 0x15B JUMP JUMPDEST CALLVALUE DUP1 ISZERO PUSH2 0x287 JUMPI PUSH1 0x0 DUP1 REVERT JUMPDEST POP PUSH2 0x1DE PUSH2 0x296 CALLDATASIZE PUSH1 0x4 PUSH2 0x543B JUMP JUMPDEST PUSH2 0x1F54 JUMP JUMPDEST CALLVALUE DUP1 ISZERO PUSH2 0x2A7 JUMPI PUSH1 0x0 DUP1 REVERT JUMPDEST POP PUSH2 0x1F5 PUSH2 0x2516 JUMP JUMPDEST CALLVALUE DUP1 ISZERO PUSH2 0x2BC JUMPI PUSH1 0x0 DUP1 REVERT JUMPDEST POP PUSH2 0x1A6 PUSH2 0x2CB CALLDATASIZE PUSH1 0x4 PUSH2 0x5596 JUMP JUMPDEST PUSH2 0x31B1 JUMP JUMPDEST CALLVALUE DUP1 ISZERO PUSH2 0x2DC JUMPI PUSH1 0x0 DUP1 REVERT JUMPDEST POP PUSH2 0x26D PUSH2 0x2EB CALLDATASIZE PUSH1 0x4 PUSH2 0x52A8 JUMP JUMPDEST PUSH2 0x3211 JUMP JUMPDEST PUSH2 0x1DE PUSH2 0x2FE CALLDATASIZE PUSH1 0x4 PUSH2 0x5596 JUMP JUMPDEST PUSH2 0x3297 JUMP JUMPDEST CALLVALUE DUP1 ISZERO PUSH2 0x30F JUMPI PUSH1 0x0 DUP1 REVERT JUMPDEST POP PUSH2 0x1DE PUSH2 0x31E CALLDATASIZE PUSH1 0x4 PUSH2 0x55AF JUMP JUMPDEST PUSH2 0x3A14 JUMP JUMPDEST CALLVALUE DUP1 ISZERO PUSH2 0x32F JUMPI PUSH1 0x0 DUP1 REVERT JUMPDEST POP PUSH2 0x179 PUSH2 0x3E33 JUMP JUMPDEST CALLVALUE DUP1 ISZERO PUSH2 0x344 JUMPI PUSH1 0x0 DUP1 REVERT JUMPDEST POP PUSH2 0x1DE PUSH2 0x353 CALLDATASIZE PUSH1 0x4 PUSH2 0x53AD JUMP JUMPDEST PUSH2 0x3E42 JUMP JUMPDEST CALLVALUE DUP1 ISZERO PUSH2 0x364 JUMPI PUSH1 0x0 DUP1 REVERT JUMPDEST POP PUSH2 0x1DE PUSH2 0x373 CALLDATASIZE PUSH1 0x4 PUSH2 0x5332 JUMP JUMPDEST PUSH2 0x3E51 JUMP JUMPDEST CALLVALUE DUP1 ISZERO PUSH2 0x384 JUMPI PUSH1 0x0 DUP1 REVERT JUMPDEST POP PUSH2 0x179 PUSH2 0x393 CALLDATASIZE PUSH1 0x4 PUSH2 0x5596 JUMP JUMPDEST PUSH2 0x3E89 JUMP JUMPDEST CALLVALUE DUP1 ISZERO PUSH2 0x3A4 JUMPI PUSH1 0x0 DUP1 REVERT JUMPDEST POP PUSH2 0x14F PUSH2 0x3B3 CALLDATASIZE PUSH1 0x4 PUSH2 0x52C3 JUMP JUMPDEST PUSH1 0x1 PUSH1 0x1 PUSH1 0xA0 SHL SUB SWAP2 DUP3 AND PUSH1 0x0 SWAP1 DUP2 MSTORE PUSH1 0x5 PUSH1 0x20 SWAP1 DUP2 MSTORE PUSH1 0x40 DUP1 DUP4 KECCAK256 SWAP4 SWAP1 SWAP5 AND DUP3 MSTORE SWAP2 SWAP1 SWAP2 MSTORE KECCAK256 SLOAD PUSH1 0xFF AND SWAP1 JUMP JUMPDEST CALLVALUE DUP1 ISZERO PUSH2 0x3ED JUMPI PUSH1 0x0 DUP1 REVERT JUMPDEST POP PUSH2 0x1DE PUSH2 0x3FC CALLDATASIZE PUSH1 0x4 PUSH2 0x5596 JUMP JUMPDEST PUSH2 0x3EFD JUMP JUMPDEST PUSH1 0x0 PUSH1 0x1 PUSH1 0x1 PUSH1 0xE0 SHL SUB NOT DUP3 AND PUSH4 0x80AC58CD PUSH1 0xE0 SHL EQ DUP1 PUSH2 0x432 JUMPI POP PUSH1 0x1 PUSH1 0x1 PUSH1 0xE0 SHL SUB NOT DUP3 AND PUSH4 0x5B5E139F PUSH1 0xE0 SHL EQ JUMPDEST DUP1 PUSH2 0x44D JUMPI POP PUSH4 0x1FFC9A7 PUSH1 0xE0 SHL PUSH1 0x1 PUSH1 0x1 PUSH1 0xE0 SHL SUB NOT DUP4 AND EQ JUMPDEST SWAP3 SWAP2 POP POP JUMP JUMPDEST PUSH1 0x60 PUSH1 0x0 DUP1 SLOAD PUSH2 0x462 SWAP1 PUSH2 0x5CF4 JUMP JUMPDEST DUP1 PUSH1 0x1F ADD PUSH1 0x20 DUP1 SWAP2 DIV MUL PUSH1 0x20 ADD PUSH1 0x40 MLOAD SWAP1 DUP2 ADD PUSH1 0x40 MSTORE DUP1 SWAP3 SWAP2 SWAP1 DUP2 DUP2 MSTORE PUSH1 0x20 ADD DUP3 DUP1 SLOAD PUSH2 0x48E SWAP1 PUSH2 0x5CF4 JUMP JUMPDEST DUP1 ISZERO PUSH2 0x4DB JUMPI DUP1 PUSH1 0x1F LT PUSH2 0x4B0 JUMPI PUSH2 0x100 DUP1 DUP4 SLOAD DIV MUL DUP4 MSTORE SWAP2 PUSH1 0x20 ADD SWAP2 PUSH2 0x4DB JUMP JUMPDEST DUP3 ADD SWAP2 SWAP1 PUSH1 0x0 MSTORE PUSH1 0x20 PUSH1 0x0 KECCAK256 SWAP1 JUMPDEST DUP2 SLOAD DUP2 MSTORE SWAP1 PUSH1 0x1 ADD SWAP1 PUSH1 0x20 ADD DUP1 DUP4 GT PUSH2 0x4BE JUMPI DUP3 SWAP1 SUB PUSH1 0x1F AND DUP3 ADD SWAP2 JUMPDEST POP POP POP POP POP SWAP1 POP SWAP1 JUMP JUMPDEST PUSH1 0x0 PUSH2 0x4F0 DUP3 PUSH2 0x43E9 JUMP JUMPDEST POP PUSH1 0x0 SWAP1 DUP2 MSTORE PUSH1 0x4 PUSH1 0x20 MSTORE PUSH1 0x40 SWAP1 KECCAK256 SLOAD PUSH1 0x1 PUSH1 0x1 PUSH1 0xA0 SHL SUB AND SWAP1 JUMP JUMPDEST PUSH1 0x0 PUSH2 0x517 DUP3 PUSH2 0x31B1 JUMP JUMPDEST SWAP1 POP DUP1 PUSH1 0x1 PUSH1 0x1 PUSH1 0xA0 SHL SUB AND DUP4 PUSH1 0x1 PUSH1 0x1 PUSH1 0xA0 SHL SUB AND EQ ISZERO PUSH2 0x58A JUMPI PUSH1 0x40 MLOAD PUSH3 0x461BCD PUSH1 0xE5 SHL DUP2 MSTORE PUSH1 0x20 PUSH1 0x4 DUP3 ADD MSTORE PUSH1 0x21 PUSH1 0x24 DUP3 ADD MSTORE PUSH32 0x4552433732313A20617070726F76616C20746F2063757272656E74206F776E65 PUSH1 0x44 DUP3 ADD MSTORE PUSH1 0x39 PUSH1 0xF9 SHL PUSH1 0x64 DUP3 ADD MSTORE PUSH1 0x84 ADD JUMPDEST PUSH1 0x40 MLOAD DUP1 SWAP2 SUB SWAP1 REVERT JUMPDEST CALLER PUSH1 0x1 PUSH1 0x1 PUSH1 0xA0 SHL SUB DUP3 AND EQ DUP1 PUSH2 0x5A6 JUMPI POP PUSH2 0x5A6 DUP2 CALLER PUSH2 0x3B3 JUMP JUMPDEST PUSH2 0x618 JUMPI PUSH1 0x40 MLOAD PUSH3 0x461BCD PUSH1 0xE5 SHL DUP2 MSTORE PUSH1 0x20 PUSH1 0x4 DUP3 ADD MSTORE PUSH1 0x3E PUSH1 0x24 DUP3 ADD MSTORE PUSH32 0x4552433732313A20617070726F76652063616C6C6572206973206E6F7420746F PUSH1 0x44 DUP3 ADD MSTORE PUSH32 0x6B656E206F776E6572206E6F7220617070726F76656420666F7220616C6C0000 PUSH1 0x64 DUP3 ADD MSTORE PUSH1 0x84 ADD PUSH2 0x581 JUMP JUMPDEST PUSH2 0x622 DUP4 DUP4 PUSH2 0x444B JUMP JUMPDEST POP POP POP JUMP JUMPDEST PUSH1 0x7 SLOAD PUSH1 0x60 SWAP1 PUSH1 0x0 DUP1 DUP1 JUMPDEST DUP4 DUP2 LT ISZERO PUSH2 0x68D JUMPI CALLER PUSH1 0x9 PUSH1 0x0 PUSH2 0x64A DUP5 PUSH1 0x1 PUSH2 0x5C66 JUMP JUMPDEST DUP2 MSTORE PUSH1 0x20 DUP2 ADD SWAP2 SWAP1 SWAP2 MSTORE PUSH1 0x40 ADD PUSH1 0x0 KECCAK256 PUSH1 0xA ADD SLOAD PUSH1 0x1 PUSH1 0x1 PUSH1 0xA0 SHL SUB AND EQ ISZERO PUSH2 0x67B JUMPI PUSH2 0x678 PUSH1 0x1 DUP5 PUSH2 0x5C66 JUMP JUMPDEST SWAP3 POP JUMPDEST DUP1 PUSH2 0x685 DUP2 PUSH2 0x5D29 JUMP JUMPDEST SWAP2 POP POP PUSH2 0x632 JUMP JUMPDEST POP PUSH1 0x0 DUP3 PUSH1 0x1 PUSH1 0x1 PUSH1 0x40 SHL SUB DUP2 GT ISZERO PUSH2 0x6A8 JUMPI PUSH2 0x6A8 PUSH2 0x5D9A JUMP JUMPDEST PUSH1 0x40 MLOAD SWAP1 DUP1 DUP3 MSTORE DUP1 PUSH1 0x20 MUL PUSH1 0x20 ADD DUP3 ADD PUSH1 0x40 MSTORE DUP1 ISZERO PUSH2 0x6E1 JUMPI DUP2 PUSH1 0x20 ADD JUMPDEST PUSH2 0x6CE PUSH2 0x4B87 JUMP JUMPDEST DUP2 MSTORE PUSH1 0x20 ADD SWAP1 PUSH1 0x1 SWAP1 SUB SWAP1 DUP2 PUSH2 0x6C6 JUMPI SWAP1 POP JUMPDEST POP SWAP1 POP PUSH1 0x0 JUMPDEST DUP5 DUP2 LT ISZERO PUSH2 0x12C2 JUMPI CALLER PUSH1 0x9 PUSH1 0x0 PUSH2 0x6FF DUP5 PUSH1 0x1 PUSH2 0x5C66 JUMP JUMPDEST DUP2 MSTORE PUSH1 0x20 DUP2 ADD SWAP2 SWAP1 SWAP2 MSTORE PUSH1 0x40 ADD PUSH1 0x0 KECCAK256 PUSH1 0xA ADD SLOAD PUSH1 0x1 PUSH1 0x1 PUSH1 0xA0 SHL SUB AND EQ ISZERO PUSH2 0x12B0 JUMPI PUSH1 0x0 PUSH2 0x72F DUP3 PUSH1 0x1 PUSH2 0x5C66 JUMP JUMPDEST SWAP1 POP PUSH1 0x0 PUSH1 0x9 PUSH1 0x0 DUP4 DUP2 MSTORE PUSH1 0x20 ADD SWAP1 DUP2 MSTORE PUSH1 0x20 ADD PUSH1 0x0 KECCAK256 SWAP1 POP DUP1 PUSH1 0x40 MLOAD DUP1 PUSH2 0x180 ADD PUSH1 0x40 MSTORE SWAP1 DUP2 PUSH1 0x0 DUP3 ADD SLOAD DUP2 MSTORE PUSH1 0x20 ADD PUSH1 0x1 DUP3 ADD DUP1 SLOAD PUSH2 0x76F SWAP1 PUSH2 0x5CF4 JUMP JUMPDEST DUP1 PUSH1 0x1F ADD PUSH1 0x20 DUP1 SWAP2 DIV MUL PUSH1 0x20 ADD PUSH1 0x40 MLOAD SWAP1 DUP2 ADD PUSH1 0x40 MSTORE DUP1 SWAP3 SWAP2 SWAP1 DUP2 DUP2 MSTORE PUSH1 0x20 ADD DUP3 DUP1 SLOAD PUSH2 0x79B SWAP1 PUSH2 0x5CF4 JUMP JUMPDEST DUP1 ISZERO PUSH2 0x7E8 JUMPI DUP1 PUSH1 0x1F LT PUSH2 0x7BD JUMPI PUSH2 0x100 DUP1 DUP4 SLOAD DIV MUL DUP4 MSTORE SWAP2 PUSH1 0x20 ADD SWAP2 PUSH2 0x7E8 JUMP JUMPDEST DUP3 ADD SWAP2 SWAP1 PUSH1 0x0 MSTORE PUSH1 0x20 PUSH1 0x0 KECCAK256 SWAP1 JUMPDEST DUP2 SLOAD DUP2 MSTORE SWAP1 PUSH1 0x1 ADD SWAP1 PUSH1 0x20 ADD DUP1 DUP4 GT PUSH2 0x7CB JUMPI DUP3 SWAP1 SUB PUSH1 0x1F AND DUP3 ADD SWAP2 JUMPDEST POP POP POP POP POP DUP2 MSTORE PUSH1 0x20 ADD PUSH1 0x2 DUP3 ADD DUP1 SLOAD PUSH2 0x801 SWAP1 PUSH2 0x5CF4 JUMP JUMPDEST DUP1 PUSH1 0x1F ADD PUSH1 0x20 DUP1 SWAP2 DIV MUL PUSH1 0x20 ADD PUSH1 0x40 MLOAD SWAP1 DUP2 ADD PUSH1 0x40 MSTORE DUP1 SWAP3 SWAP2 SWAP1 DUP2 DUP2 MSTORE PUSH1 0x20 ADD DUP3 DUP1 SLOAD PUSH2 0x82D SWAP1 PUSH2 0x5CF4 JUMP JUMPDEST DUP1 ISZERO PUSH2 0x87A JUMPI DUP1 PUSH1 0x1F LT PUSH2 0x84F JUMPI PUSH2 0x100 DUP1 DUP4 SLOAD DIV MUL DUP4 MSTORE SWAP2 PUSH1 0x20 ADD SWAP2 PUSH2 0x87A JUMP JUMPDEST DUP3 ADD SWAP2 SWAP1 PUSH1 0x0 MSTORE PUSH1 0x20 PUSH1 0x0 KECCAK256 SWAP1 JUMPDEST DUP2 SLOAD DUP2 MSTORE SWAP1 PUSH1 0x1 ADD SWAP1 PUSH1 0x20 ADD DUP1 DUP4 GT PUSH2 0x85D JUMPI DUP3 SWAP1 SUB PUSH1 0x1F AND DUP3 ADD SWAP2 JUMPDEST POP POP POP POP POP DUP2 MSTORE PUSH1 0x20 ADD PUSH1 0x3 DUP3 ADD SLOAD DUP2 MSTORE PUSH1 0x20 ADD PUSH1 0x4 DUP3 ADD SLOAD DUP2 MSTORE PUSH1 0x20 ADD PUSH1 0x5 DUP3 ADD PUSH1 0x40 MLOAD DUP1 PUSH1 0x80 ADD PUSH1 0x40 MSTORE SWAP1 DUP2 PUSH1 0x0 DUP3 ADD DUP1 SLOAD PUSH2 0x8B7 SWAP1 PUSH2 0x5CF4 JUMP JUMPDEST DUP1 PUSH1 0x1F ADD PUSH1 0x20 DUP1 SWAP2 DIV MUL PUSH1 0x20 ADD PUSH1 0x40 MLOAD SWAP1 DUP2 ADD PUSH1 0x40 MSTORE DUP1 SWAP3 SWAP2 SWAP1 DUP2 DUP2 MSTORE PUSH1 0x20 ADD DUP3 DUP1 SLOAD PUSH2 0x8E3 SWAP1 PUSH2 0x5CF4 JUMP JUMPDEST DUP1 ISZERO PUSH2 0x930 JUMPI DUP1 PUSH1 0x1F LT PUSH2 0x905 JUMPI PUSH2 0x100 DUP1 DUP4 SLOAD DIV MUL DUP4 MSTORE SWAP2 PUSH1 0x20 ADD SWAP2 PUSH2 0x930 JUMP JUMPDEST DUP3 ADD SWAP2 SWAP1 PUSH1 0x0 MSTORE PUSH1 0x20 PUSH1 0x0 KECCAK256 SWAP1 JUMPDEST DUP2 SLOAD DUP2 MSTORE SWAP1 PUSH1 0x1 ADD SWAP1 PUSH1 0x20 ADD DUP1 DUP4 GT PUSH2 0x913 JUMPI DUP3 SWAP1 SUB PUSH1 0x1F AND DUP3 ADD SWAP2 JUMPDEST POP POP POP POP POP DUP2 MSTORE PUSH1 0x20 ADD PUSH1 0x1 DUP3 ADD DUP1 SLOAD PUSH2 0x949 SWAP1 PUSH2 0x5CF4 JUMP JUMPDEST DUP1 PUSH1 0x1F ADD PUSH1 0x20 DUP1 SWAP2 DIV MUL PUSH1 0x20 ADD PUSH1 0x40 MLOAD SWAP1 DUP2 ADD PUSH1 0x40 MSTORE DUP1 SWAP3 SWAP2 SWAP1 DUP2 DUP2 MSTORE PUSH1 0x20 ADD DUP3 DUP1 SLOAD PUSH2 0x975 SWAP1 PUSH2 0x5CF4 JUMP JUMPDEST DUP1 ISZERO PUSH2 0x9C2 JUMPI DUP1 PUSH1 0x1F LT PUSH2 0x997 JUMPI PUSH2 0x100 DUP1 DUP4 SLOAD DIV MUL DUP4 MSTORE SWAP2 PUSH1 0x20 ADD SWAP2 PUSH2 0x9C2 JUMP JUMPDEST DUP3 ADD SWAP2 SWAP1 PUSH1 0x0 MSTORE PUSH1 0x20 PUSH1 0x0 KECCAK256 SWAP1 JUMPDEST DUP2 SLOAD DUP2 MSTORE SWAP1 PUSH1 0x1 ADD SWAP1 PUSH1 0x20 ADD DUP1 DUP4 GT PUSH2 0x9A5 JUMPI DUP3 SWAP1 SUB PUSH1 0x1F AND DUP3 ADD SWAP2 JUMPDEST POP POP POP POP POP DUP2 MSTORE PUSH1 0x20 ADD PUSH1 0x2 DUP3 ADD DUP1 SLOAD PUSH2 0x9DB SWAP1 PUSH2 0x5CF4 JUMP JUMPDEST DUP1 PUSH1 0x1F ADD PUSH1 0x20 DUP1 SWAP2 DIV MUL PUSH1 0x20 ADD PUSH1 0x40 MLOAD SWAP1 DUP2 ADD PUSH1 0x40 MSTORE DUP1 SWAP3 SWAP2 SWAP1 DUP2 DUP2 MSTORE PUSH1 0x20 ADD DUP3 DUP1 SLOAD PUSH2 0xA07 SWAP1 PUSH2 0x5CF4 JUMP JUMPDEST DUP1 ISZERO PUSH2 0xA54 JUMPI DUP1 PUSH1 0x1F LT PUSH2 0xA29 JUMPI PUSH2 0x100 DUP1 DUP4 SLOAD DIV MUL DUP4 MSTORE SWAP2 PUSH1 0x20 ADD SWAP2 PUSH2 0xA54 JUMP JUMPDEST DUP3 ADD SWAP2 SWAP1 PUSH1 0x0 MSTORE PUSH1 0x20 PUSH1 0x0 KECCAK256 SWAP1 JUMPDEST DUP2 SLOAD DUP2 MSTORE SWAP1 PUSH1 0x1 ADD SWAP1 PUSH1 0x20 ADD DUP1 DUP4 GT PUSH2 0xA37 JUMPI DUP3 SWAP1 SUB PUSH1 0x1F AND DUP3 ADD SWAP2 JUMPDEST POP POP POP POP POP DUP2 MSTORE PUSH1 0x20 ADD PUSH1 0x3 DUP3 ADD DUP1 SLOAD PUSH2 0xA6D SWAP1 PUSH2 0x5CF4 JUMP JUMPDEST DUP1 PUSH1 0x1F ADD PUSH1 0x20 DUP1 SWAP2 DIV MUL PUSH1 0x20 ADD PUSH1 0x40 MLOAD SWAP1 DUP2 ADD PUSH1 0x40 MSTORE DUP1 SWAP3 SWAP2 SWAP1 DUP2 DUP2 MSTORE PUSH1 0x20 ADD DUP3 DUP1 SLOAD PUSH2 0xA99 SWAP1 PUSH2 0x5CF4 JUMP JUMPDEST DUP1 ISZERO PUSH2 0xAE6 JUMPI DUP1 PUSH1 0x1F LT PUSH2 0xABB JUMPI PUSH2 0x100 DUP1 DUP4 SLOAD DIV MUL DUP4 MSTORE SWAP2 PUSH1 0x20 ADD SWAP2 PUSH2 0xAE6 JUMP JUMPDEST DUP3 ADD SWAP2 SWAP1 PUSH1 0x0 MSTORE PUSH1 0x20 PUSH1 0x0 KECCAK256 SWAP1 JUMPDEST DUP2 SLOAD DUP2 MSTORE SWAP1 PUSH1 0x1 ADD SWAP1 PUSH1 0x20 ADD DUP1 DUP4 GT PUSH2 0xAC9 JUMPI DUP3 SWAP1 SUB PUSH1 0x1F AND DUP3 ADD SWAP2 JUMPDEST POP POP POP SWAP2 SWAP1 SWAP3 MSTORE POP POP POP DUP2 MSTORE PUSH1 0x9 DUP3 ADD SLOAD PUSH1 0x1 PUSH1 0x1 PUSH1 0xA0 SHL SUB SWAP1 DUP2 AND PUSH1 0x20 DUP1 DUP5 ADD SWAP2 SWAP1 SWAP2 MSTORE PUSH1 0xA DUP5 ADD SLOAD SWAP2 DUP3 AND PUSH1 0x40 DUP1 DUP6 ADD SWAP2 SWAP1 SWAP2 MSTORE PUSH1 0x1 PUSH1 0xA0 SHL SWAP1 SWAP3 DIV PUSH1 0xFF AND ISZERO ISZERO PUSH1 0x60 DUP1 DUP6 ADD SWAP2 SWAP1 SWAP2 MSTORE DUP3 MLOAD PUSH1 0xB DUP7 ADD DUP1 SLOAD PUSH1 0x80 SWAP5 DUP2 MUL DUP4 ADD DUP6 ADD SWAP1 SWAP6 MSTORE SWAP2 DUP2 ADD DUP5 DUP2 MSTORE SWAP5 DUP4 ADD SWAP5 SWAP1 SWAP4 SWAP2 SWAP3 DUP5 SWAP3 DUP5 SWAP2 DUP5 ADD DUP3 DUP3 DUP1 ISZERO PUSH2 0xB91 JUMPI PUSH1 0x20 MUL DUP3 ADD SWAP2 SWAP1 PUSH1 0x0 MSTORE PUSH1 0x20 PUSH1 0x0 KECCAK256 SWAP1 JUMPDEST DUP2 SLOAD PUSH1 0x1 PUSH1 0x1 PUSH1 0xA0 SHL SUB AND DUP2 MSTORE PUSH1 0x1 SWAP1 SWAP2 ADD SWAP1 PUSH1 0x20 ADD DUP1 DUP4 GT PUSH2 0xB73 JUMPI JUMPDEST POP POP POP POP POP DUP2 MSTORE PUSH1 0x20 ADD PUSH1 0x1 DUP3 ADD DUP1 SLOAD DUP1 PUSH1 0x20 MUL PUSH1 0x20 ADD PUSH1 0x40 MLOAD SWAP1 DUP2 ADD PUSH1 0x40 MSTORE DUP1 SWAP3 SWAP2 SWAP1 DUP2 DUP2 MSTORE PUSH1 0x20 ADD DUP3 DUP1 SLOAD DUP1 ISZERO PUSH2 0xBE9 JUMPI PUSH1 0x20 MUL DUP3 ADD SWAP2 SWAP1 PUSH1 0x0 MSTORE PUSH1 0x20 PUSH1 0x0 KECCAK256 SWAP1 JUMPDEST DUP2 SLOAD DUP2 MSTORE PUSH1 0x20 ADD SWAP1 PUSH1 0x1 ADD SWAP1 DUP1 DUP4 GT PUSH2 0xBD5 JUMPI JUMPDEST POP POP POP POP POP DUP2 MSTORE PUSH1 0x20 ADD PUSH1 0x2 DUP3 ADD DUP1 SLOAD DUP1 PUSH1 0x20 MUL PUSH1 0x20 ADD PUSH1 0x40 MLOAD SWAP1 DUP2 ADD PUSH1 0x40 MSTORE DUP1 SWAP3 SWAP2 SWAP1 DUP2 DUP2 MSTORE PUSH1 0x20 ADD DUP3 DUP1 SLOAD DUP1 ISZERO PUSH2 0xC41 JUMPI PUSH1 0x20 MUL DUP3 ADD SWAP2 SWAP1 PUSH1 0x0 MSTORE PUSH1 0x20 PUSH1 0x0 KECCAK256 SWAP1 JUMPDEST DUP2 SLOAD DUP2 MSTORE PUSH1 0x20 ADD SWAP1 PUSH1 0x1 ADD SWAP1 DUP1 DUP4 GT PUSH2 0xC2D JUMPI JUMPDEST POP POP POP POP POP DUP2 MSTORE POP POP DUP2 MSTORE PUSH1 0x20 ADD PUSH1 0xE DUP3 ADD PUSH1 0x40 MLOAD DUP1 PUSH1 0x80 ADD PUSH1 0x40 MSTORE SWAP1 DUP2 PUSH1 0x0 DUP3 ADD DUP1 SLOAD PUSH2 0xC6E SWAP1 PUSH2 0x5CF4 JUMP JUMPDEST DUP1 PUSH1 0x1F ADD PUSH1 0x20 DUP1 SWAP2 DIV MUL PUSH1 0x20 ADD PUSH1 0x40 MLOAD SWAP1 DUP2 ADD PUSH1 0x40 MSTORE DUP1 SWAP3 SWAP2 SWAP1 DUP2 DUP2 MSTORE PUSH1 0x20 ADD DUP3 DUP1 SLOAD PUSH2 0xC9A SWAP1 PUSH2 0x5CF4 JUMP JUMPDEST DUP1 ISZERO PUSH2 0xCE7 JUMPI DUP1 PUSH1 0x1F LT PUSH2 0xCBC JUMPI PUSH2 0x100 DUP1 DUP4 SLOAD DIV MUL DUP4 MSTORE SWAP2 PUSH1 0x20 ADD SWAP2 PUSH2 0xCE7 JUMP JUMPDEST DUP3 ADD SWAP2 SWAP1 PUSH1 0x0 MSTORE PUSH1 0x20 PUSH1 0x0 KECCAK256 SWAP1 JUMPDEST DUP2 SLOAD DUP2 MSTORE SWAP1 PUSH1 0x1 ADD SWAP1 PUSH1 0x20 ADD DUP1 DUP4 GT PUSH2 0xCCA JUMPI DUP3 SWAP1 SUB PUSH1 0x1F AND DUP3 ADD SWAP2 JUMPDEST POP POP POP POP POP DUP2 MSTORE PUSH1 0x20 ADD PUSH1 0x1 DUP3 ADD DUP1 SLOAD PUSH2 0xD00 SWAP1 PUSH2 0x5CF4 JUMP JUMPDEST DUP1 PUSH1 0x1F ADD PUSH1 0x20 DUP1 SWAP2 DIV MUL PUSH1 0x20 ADD PUSH1 0x40 MLOAD SWAP1 DUP2 ADD PUSH1 0x40 MSTORE DUP1 SWAP3 SWAP2 SWAP1 DUP2 DUP2 MSTORE PUSH1 0x20 ADD DUP3 DUP1 SLOAD PUSH2 0xD2C SWAP1 PUSH2 0x5CF4 JUMP JUMPDEST DUP1 ISZERO PUSH2 0xD79 JUMPI DUP1 PUSH1 0x1F LT PUSH2 0xD4E JUMPI PUSH2 0x100 DUP1 DUP4 SLOAD DIV MUL DUP4 MSTORE SWAP2 PUSH1 0x20 ADD SWAP2 PUSH2 0xD79 JUMP JUMPDEST DUP3 ADD SWAP2 SWAP1 PUSH1 0x0 MSTORE PUSH1 0x20 PUSH1 0x0 KECCAK256 SWAP1 JUMPDEST DUP2 SLOAD DUP2 MSTORE SWAP1 PUSH1 0x1 ADD SWAP1 PUSH1 0x20 ADD DUP1 DUP4 GT PUSH2 0xD5C JUMPI DUP3 SWAP1 SUB PUSH1 0x1F AND DUP3 ADD SWAP2 JUMPDEST POP POP POP POP POP DUP2 MSTORE PUSH1 0x20 ADD PUSH1 0x2 DUP3 ADD DUP1 SLOAD PUSH2 0xD92 SWAP1 PUSH2 0x5CF4 JUMP JUMPDEST DUP1 PUSH1 0x1F ADD PUSH1 0x20 DUP1 SWAP2 DIV MUL PUSH1 0x20 ADD PUSH1 0x40 MLOAD SWAP1 DUP2 ADD PUSH1 0x40 MSTORE DUP1 SWAP3 SWAP2 SWAP1 DUP2 DUP2 MSTORE PUSH1 0x20 ADD DUP3 DUP1 SLOAD PUSH2 0xDBE SWAP1 PUSH2 0x5CF4 JUMP JUMPDEST DUP1 ISZERO PUSH2 0xE0B JUMPI DUP1 PUSH1 0x1F LT PUSH2 0xDE0 JUMPI PUSH2 0x100 DUP1 DUP4 SLOAD DIV MUL DUP4 MSTORE SWAP2 PUSH1 0x20 ADD SWAP2 PUSH2 0xE0B JUMP JUMPDEST DUP3 ADD SWAP2 SWAP1 PUSH1 0x0 MSTORE PUSH1 0x20 PUSH1 0x0 KECCAK256 SWAP1 JUMPDEST DUP2 SLOAD DUP2 MSTORE SWAP1 PUSH1 0x1 ADD SWAP1 PUSH1 0x20 ADD DUP1 DUP4 GT PUSH2 0xDEE JUMPI DUP3 SWAP1 SUB PUSH1 0x1F AND DUP3 ADD SWAP2 JUMPDEST POP POP POP POP POP DUP2 MSTORE PUSH1 0x20 ADD PUSH1 0x3 DUP3 ADD DUP1 SLOAD PUSH2 0xE24 SWAP1 PUSH2 0x5CF4 JUMP JUMPDEST DUP1 PUSH1 0x1F ADD PUSH1 0x20 DUP1 SWAP2 DIV MUL PUSH1 0x20 ADD PUSH1 0x40 MLOAD SWAP1 DUP2 ADD PUSH1 0x40 MSTORE DUP1 SWAP3 SWAP2 SWAP1 DUP2 DUP2 MSTORE PUSH1 0x20 ADD DUP3 DUP1 SLOAD PUSH2 0xE50 SWAP1 PUSH2 0x5CF4 JUMP JUMPDEST DUP1 ISZERO PUSH2 0xE9D JUMPI DUP1 PUSH1 0x1F LT PUSH2 0xE72 JUMPI PUSH2 0x100 DUP1 DUP4 SLOAD DIV MUL DUP4 MSTORE SWAP2 PUSH1 0x20 ADD SWAP2 PUSH2 0xE9D JUMP JUMPDEST DUP3 ADD SWAP2 SWAP1 PUSH1 0x0 MSTORE PUSH1 0x20 PUSH1 0x0 KECCAK256 SWAP1 JUMPDEST DUP2 SLOAD DUP2 MSTORE SWAP1 PUSH1 0x1 ADD SWAP1 PUSH1 0x20 ADD DUP1 DUP4 GT PUSH2 0xE80 JUMPI DUP3 SWAP1 SUB PUSH1 0x1F AND DUP3 ADD SWAP2 JUMPDEST POP POP POP POP POP DUP2 MSTORE POP POP DUP2 MSTORE PUSH1 0x20 ADD PUSH1 0x12 DUP3 ADD PUSH1 0x40 MLOAD DUP1 PUSH1 0xE0 ADD PUSH1 0x40 MSTORE SWAP1 DUP2 PUSH1 0x0 DUP3 ADD DUP1 SLOAD PUSH2 0xECA SWAP1 PUSH2 0x5CF4 JUMP JUMPDEST DUP1 PUSH1 0x1F ADD PUSH1 0x20 DUP1 SWAP2 DIV MUL PUSH1 0x20 ADD PUSH1 0x40 MLOAD SWAP1 DUP2 ADD PUSH1 0x40 MSTORE DUP1 SWAP3 SWAP2 SWAP1 DUP2 DUP2 MSTORE PUSH1 0x20 ADD DUP3 DUP1 SLOAD PUSH2 0xEF6 SWAP1 PUSH2 0x5CF4 JUMP JUMPDEST DUP1 ISZERO PUSH2 0xF43 JUMPI DUP1 PUSH1 0x1F LT PUSH2 0xF18 JUMPI PUSH2 0x100 DUP1 DUP4 SLOAD DIV MUL DUP4 MSTORE SWAP2 PUSH1 0x20 ADD SWAP2 PUSH2 0xF43 JUMP JUMPDEST DUP3 ADD SWAP2 SWAP1 PUSH1 0x0 MSTORE PUSH1 0x20 PUSH1 0x0 KECCAK256 SWAP1 JUMPDEST DUP2 SLOAD DUP2 MSTORE SWAP1 PUSH1 0x1 ADD SWAP1 PUSH1 0x20 ADD DUP1 DUP4 GT PUSH2 0xF26 JUMPI DUP3 SWAP1 SUB PUSH1 0x1F AND DUP3 ADD SWAP2 JUMPDEST POP POP POP POP POP DUP2 MSTORE PUSH1 0x20 ADD PUSH1 0x1 DUP3 ADD DUP1 SLOAD DUP1 PUSH1 0x20 MUL PUSH1 0x20 ADD PUSH1 0x40 MLOAD SWAP1 DUP2 ADD PUSH1 0x40 MSTORE DUP1 SWAP3 SWAP2 SWAP1 DUP2 DUP2 MSTORE PUSH1 0x20 ADD PUSH1 0x0 SWAP1 JUMPDEST DUP3 DUP3 LT ISZERO PUSH2 0x101D JUMPI DUP4 DUP3 SWAP1 PUSH1 0x0 MSTORE PUSH1 0x20 PUSH1 0x0 KECCAK256 ADD DUP1 SLOAD PUSH2 0xF90 SWAP1 PUSH2 0x5CF4 JUMP JUMPDEST DUP1 PUSH1 0x1F ADD PUSH1 0x20 DUP1 SWAP2 DIV MUL PUSH1 0x20 ADD PUSH1 0x40 MLOAD SWAP1 DUP2 ADD PUSH1 0x40 MSTORE DUP1 SWAP3 SWAP2 SWAP1 DUP2 DUP2 MSTORE PUSH1 0x20 ADD DUP3 DUP1 SLOAD PUSH2 0xFBC SWAP1 PUSH2 0x5CF4 JUMP JUMPDEST DUP1 ISZERO PUSH2 0x1009 JUMPI DUP1 PUSH1 0x1F LT PUSH2 0xFDE JUMPI PUSH2 0x100 DUP1 DUP4 SLOAD DIV MUL DUP4 MSTORE SWAP2 PUSH1 0x20 ADD SWAP2 PUSH2 0x1009 JUMP JUMPDEST DUP3 ADD SWAP2 SWAP1 PUSH1 0x0 MSTORE PUSH1 0x20 PUSH1 0x0 KECCAK256 SWAP1 JUMPDEST DUP2 SLOAD DUP2 MSTORE SWAP1 PUSH1 0x1 ADD SWAP1 PUSH1 0x20 ADD DUP1 DUP4 GT PUSH2 0xFEC JUMPI DUP3 SWAP1 SUB PUSH1 0x1F AND DUP3 ADD SWAP2 JUMPDEST POP POP POP POP POP DUP2 MSTORE PUSH1 0x20 ADD SWAP1 PUSH1 0x1 ADD SWAP1 PUSH2 0xF71 JUMP JUMPDEST POP POP POP POP DUP2 MSTORE PUSH1 0x20 ADD PUSH1 0x2 DUP3 ADD DUP1 SLOAD PUSH2 0x1035 SWAP1 PUSH2 0x5CF4 JUMP JUMPDEST DUP1 PUSH1 0x1F ADD PUSH1 0x20 DUP1 SWAP2 DIV MUL PUSH1 0x20 ADD PUSH1 0x40 MLOAD SWAP1 DUP2 ADD PUSH1 0x40 MSTORE DUP1 SWAP3 SWAP2 SWAP1 DUP2 DUP2 MSTORE PUSH1 0x20 ADD DUP3 DUP1 SLOAD PUSH2 0x1061 SWAP1 PUSH2 0x5CF4 JUMP JUMPDEST DUP1 ISZERO PUSH2 0x10AE JUMPI DUP1 PUSH1 0x1F LT PUSH2 0x1083 JUMPI PUSH2 0x100 DUP1 DUP4 SLOAD DIV MUL DUP4 MSTORE SWAP2 PUSH1 0x20 ADD SWAP2 PUSH2 0x10AE JUMP JUMPDEST DUP3 ADD SWAP2 SWAP1 PUSH1 0x0 MSTORE PUSH1 0x20 PUSH1 0x0 KECCAK256 SWAP1 JUMPDEST DUP2 SLOAD DUP2 MSTORE SWAP1 PUSH1 0x1 ADD SWAP1 PUSH1 0x20 ADD DUP1 DUP4 GT PUSH2 0x1091 JUMPI DUP3 SWAP1 SUB PUSH1 0x1F AND DUP3 ADD SWAP2 JUMPDEST POP POP POP POP POP DUP2 MSTORE PUSH1 0x20 ADD PUSH1 0x3 DUP3 ADD DUP1 SLOAD PUSH2 0x10C7 SWAP1 PUSH2 0x5CF4 JUMP JUMPDEST DUP1 PUSH1 0x1F ADD PUSH1 0x20 DUP1 SWAP2 DIV MUL PUSH1 0x20 ADD PUSH1 0x40 MLOAD SWAP1 DUP2 ADD PUSH1 0x40 MSTORE DUP1 SWAP3 SWAP2 SWAP1 DUP2 DUP2 MSTORE PUSH1 0x20 ADD DUP3 DUP1 SLOAD PUSH2 0x10F3 SWAP1 PUSH2 0x5CF4 JUMP JUMPDEST DUP1 ISZERO PUSH2 0x1140 JUMPI DUP1 PUSH1 0x1F LT PUSH2 0x1115 JUMPI PUSH2 0x100 DUP1 DUP4 SLOAD DIV MUL DUP4 MSTORE SWAP2 PUSH1 0x20 ADD SWAP2 PUSH2 0x1140 JUMP JUMPDEST DUP3 ADD SWAP2 SWAP1 PUSH1 0x0 MSTORE PUSH1 0x20 PUSH1 0x0 KECCAK256 SWAP1 JUMPDEST DUP2 SLOAD DUP2 MSTORE SWAP1 PUSH1 0x1 ADD SWAP1 PUSH1 0x20 ADD DUP1 DUP4 GT PUSH2 0x1123 JUMPI DUP3 SWAP1 SUB PUSH1 0x1F AND DUP3 ADD SWAP2 JUMPDEST POP POP POP POP POP DUP2 MSTORE PUSH1 0x20 ADD PUSH1 0x4 DUP3 ADD DUP1 SLOAD PUSH2 0x1159 SWAP1 PUSH2 0x5CF4 JUMP JUMPDEST DUP1 PUSH1 0x1F ADD PUSH1 0x20 DUP1 SWAP2 DIV MUL PUSH1 0x20 ADD PUSH1 0x40 MLOAD SWAP1 DUP2 ADD PUSH1 0x40 MSTORE DUP1 SWAP3 SWAP2 SWAP1 DUP2 DUP2 MSTORE PUSH1 0x20 ADD DUP3 DUP1 SLOAD PUSH2 0x1185 SWAP1 PUSH2 0x5CF4 JUMP JUMPDEST DUP1 ISZERO PUSH2 0x11D2 JUMPI DUP1 PUSH1 0x1F LT PUSH2 0x11A7 JUMPI PUSH2 0x100 DUP1 DUP4 SLOAD DIV MUL DUP4 MSTORE SWAP2 PUSH1 0x20 ADD SWAP2 PUSH2 0x11D2 JUMP JUMPDEST DUP3 ADD SWAP2 SWAP1 PUSH1 0x0 MSTORE PUSH1 0x20 PUSH1 0x0 KECCAK256 SWAP1 JUMPDEST DUP2 SLOAD DUP2 MSTORE SWAP1 PUSH1 0x1 ADD SWAP1 PUSH1 0x20 ADD DUP1 DUP4 GT PUSH2 0x11B5 JUMPI DUP3 SWAP1 SUB PUSH1 0x1F AND DUP3 ADD SWAP2 JUMPDEST POP POP POP POP POP DUP2 MSTORE PUSH1 0x20 ADD PUSH1 0x5 DUP3 ADD DUP1 SLOAD PUSH2 0x11EB SWAP1 PUSH2 0x5CF4 JUMP JUMPDEST DUP1 PUSH1 0x1F ADD PUSH1 0x20 DUP1 SWAP2 DIV MUL PUSH1 0x20 ADD PUSH1 0x40 MLOAD SWAP1 DUP2 ADD PUSH1 0x40 MSTORE DUP1 SWAP3 SWAP2 SWAP1 DUP2 DUP2 MSTORE PUSH1 0x20 ADD DUP3 DUP1 SLOAD PUSH2 0x1217 SWAP1 PUSH2 0x5CF4 JUMP JUMPDEST DUP1 ISZERO PUSH2 0x1264 JUMPI DUP1 PUSH1 0x1F LT PUSH2 0x1239 JUMPI PUSH2 0x100 DUP1 DUP4 SLOAD DIV MUL DUP4 MSTORE SWAP2 PUSH1 0x20 ADD SWAP2 PUSH2 0x1264 JUMP JUMPDEST DUP3 ADD SWAP2 SWAP1 PUSH1 0x0 MSTORE PUSH1 0x20 PUSH1 0x0 KECCAK256 SWAP1 JUMPDEST DUP2 SLOAD DUP2 MSTORE SWAP1 PUSH1 0x1 ADD SWAP1 PUSH1 0x20 ADD DUP1 DUP4 GT PUSH2 0x1247 JUMPI DUP3 SWAP1 SUB PUSH1 0x1F AND DUP3 ADD SWAP2 JUMPDEST POP POP POP SWAP2 DUP4 MSTORE POP POP PUSH1 0x6 SWAP2 SWAP1 SWAP2 ADD SLOAD PUSH1 0xFF AND ISZERO ISZERO PUSH1 0x20 SWAP1 SWAP2 ADD MSTORE SWAP1 MSTORE POP DUP5 MLOAD DUP6 SWAP1 DUP8 SWAP1 DUP2 LT PUSH2 0x1295 JUMPI PUSH2 0x1295 PUSH2 0x5D84 JUMP JUMPDEST PUSH1 0x20 SWAP1 DUP2 MUL SWAP2 SWAP1 SWAP2 ADD ADD MSTORE PUSH2 0x12AB PUSH1 0x1 DUP7 PUSH2 0x5C66 JUMP JUMPDEST SWAP5 POP POP POP JUMPDEST DUP1 PUSH2 0x12BA DUP2 PUSH2 0x5D29 JUMP JUMPDEST SWAP2 POP POP PUSH2 0x6E7 JUMP JUMPDEST POP SWAP5 SWAP4 POP POP POP POP JUMP JUMPDEST PUSH2 0x12D5 CALLER DUP3 PUSH2 0x44B9 JUMP JUMPDEST PUSH2 0x12F1 JUMPI PUSH1 0x40 MLOAD PUSH3 0x461BCD PUSH1 0xE5 SHL DUP2 MSTORE PUSH1 0x4 ADD PUSH2 0x581 SWAP1 PUSH2 0x5B00 JUMP JUMPDEST PUSH2 0x622 DUP4 DUP4 DUP4 PUSH2 0x4538 JUMP JUMPDEST PUSH1 0x60 PUSH1 0x0 PUSH1 0x7 SLOAD GT PUSH2 0x1344 JUMPI PUSH1 0x40 MLOAD PUSH3 0x461BCD PUSH1 0xE5 SHL DUP2 MSTORE PUSH1 0x20 PUSH1 0x4 DUP3 ADD MSTORE PUSH1 0x11 PUSH1 0x24 DUP3 ADD MSTORE PUSH17 0x9CDE40E6DEDCCEE640E8DE40CCCAE8C6D PUSH1 0x7B SHL PUSH1 0x44 DUP3 ADD MSTORE PUSH1 0x64 ADD PUSH2 0x581 JUMP JUMPDEST PUSH1 0x0 PUSH1 0x7 SLOAD PUSH1 0x1 PUSH1 0x1 PUSH1 0x40 SHL SUB DUP2 GT ISZERO PUSH2 0x1360 JUMPI PUSH2 0x1360 PUSH2 0x5D9A JUMP JUMPDEST PUSH1 0x40 MLOAD SWAP1 DUP1 DUP3 MSTORE DUP1 PUSH1 0x20 MUL PUSH1 0x20 ADD DUP3 ADD PUSH1 0x40 MSTORE DUP1 ISZERO PUSH2 0x1399 JUMPI DUP2 PUSH1 0x20 ADD JUMPDEST PUSH2 0x1386 PUSH2 0x4B87 JUMP JUMPDEST DUP2 MSTORE PUSH1 0x20 ADD SWAP1 PUSH1 0x1 SWAP1 SUB SWAP1 DUP2 PUSH2 0x137E JUMPI SWAP1 POP JUMPDEST POP SWAP1 POP PUSH1 0x1 JUMPDEST PUSH1 0x7 SLOAD DUP2 GT PUSH2 0x1F33 JUMPI PUSH1 0x0 PUSH1 0x9 PUSH1 0x0 DUP4 DUP2 MSTORE PUSH1 0x20 ADD SWAP1 DUP2 MSTORE PUSH1 0x20 ADD PUSH1 0x0 KECCAK256 SWAP1 POP DUP1 PUSH1 0x40 MLOAD DUP1 PUSH2 0x180 ADD PUSH1 0x40 MSTORE SWAP1 DUP2 PUSH1 0x0 DUP3 ADD SLOAD DUP2 MSTORE PUSH1 0x20 ADD PUSH1 0x1 DUP3 ADD DUP1 SLOAD PUSH2 0x13E6 SWAP1 PUSH2 0x5CF4 JUMP JUMPDEST DUP1 PUSH1 0x1F ADD PUSH1 0x20 DUP1 SWAP2 DIV MUL PUSH1 0x20 ADD PUSH1 0x40 MLOAD SWAP1 DUP2 ADD PUSH1 0x40 MSTORE DUP1 SWAP3 SWAP2 SWAP1 DUP2 DUP2 MSTORE PUSH1 0x20 ADD DUP3 DUP1 SLOAD PUSH2 0x1412 SWAP1 PUSH2 0x5CF4 JUMP JUMPDEST DUP1 ISZERO PUSH2 0x145F JUMPI DUP1 PUSH1 0x1F LT PUSH2 0x1434 JUMPI PUSH2 0x100 DUP1 DUP4 SLOAD DIV MUL DUP4 MSTORE SWAP2 PUSH1 0x20 ADD SWAP2 PUSH2 0x145F JUMP JUMPDEST DUP3 ADD SWAP2 SWAP1 PUSH1 0x0 MSTORE PUSH1 0x20 PUSH1 0x0 KECCAK256 SWAP1 JUMPDEST DUP2 SLOAD DUP2 MSTORE SWAP1 PUSH1 0x1 ADD SWAP1 PUSH1 0x20 ADD DUP1 DUP4 GT PUSH2 0x1442 JUMPI DUP3 SWAP1 SUB PUSH1 0x1F AND DUP3 ADD SWAP2 JUMPDEST POP POP POP POP POP DUP2 MSTORE PUSH1 0x20 ADD PUSH1 0x2 DUP3 ADD DUP1 SLOAD PUSH2 0x1478 SWAP1 PUSH2 0x5CF4 JUMP JUMPDEST DUP1 PUSH1 0x1F ADD PUSH1 0x20 DUP1 SWAP2 DIV MUL PUSH1 0x20 ADD PUSH1 0x40 MLOAD SWAP1 DUP2 ADD PUSH1 0x40 MSTORE DUP1 SWAP3 SWAP2 SWAP1 DUP2 DUP2 MSTORE PUSH1 0x20 ADD DUP3 DUP1 SLOAD PUSH2 0x14A4 SWAP1 PUSH2 0x5CF4 JUMP JUMPDEST DUP1 ISZERO PUSH2 0x14F1 JUMPI DUP1 PUSH1 0x1F LT PUSH2 0x14C6 JUMPI PUSH2 0x100 DUP1 DUP4 SLOAD DIV MUL DUP4 MSTORE SWAP2 PUSH1 0x20 ADD SWAP2 PUSH2 0x14F1 JUMP JUMPDEST DUP3 ADD SWAP2 SWAP1 PUSH1 0x0 MSTORE PUSH1 0x20 PUSH1 0x0 KECCAK256 SWAP1 JUMPDEST DUP2 SLOAD DUP2 MSTORE SWAP1 PUSH1 0x1 ADD SWAP1 PUSH1 0x20 ADD DUP1 DUP4 GT PUSH2 0x14D4 JUMPI DUP3 SWAP1 SUB PUSH1 0x1F AND DUP3 ADD SWAP2 JUMPDEST POP POP POP POP POP DUP2 MSTORE PUSH1 0x20 ADD PUSH1 0x3 DUP3 ADD SLOAD DUP2 MSTORE PUSH1 0x20 ADD PUSH1 0x4 DUP3 ADD SLOAD DUP2 MSTORE PUSH1 0x20 ADD PUSH1 0x5 DUP3 ADD PUSH1 0x40 MLOAD DUP1 PUSH1 0x80 ADD PUSH1 0x40 MSTORE SWAP1 DUP2 PUSH1 0x0 DUP3 ADD DUP1 SLOAD PUSH2 0x152E SWAP1 PUSH2 0x5CF4 JUMP JUMPDEST DUP1 PUSH1 0x1F ADD PUSH1 0x20 DUP1 SWAP2 DIV MUL PUSH1 0x20 ADD PUSH1 0x40 MLOAD SWAP1 DUP2 ADD PUSH1 0x40 MSTORE DUP1 SWAP3 SWAP2 SWAP1 DUP2 DUP2 MSTORE PUSH1 0x20 ADD DUP3 DUP1 SLOAD PUSH2 0x155A SWAP1 PUSH2 0x5CF4 JUMP JUMPDEST DUP1 ISZERO PUSH2 0x15A7 JUMPI DUP1 PUSH1 0x1F LT PUSH2 0x157C JUMPI PUSH2 0x100 DUP1 DUP4 SLOAD DIV MUL DUP4 MSTORE SWAP2 PUSH1 0x20 ADD SWAP2 PUSH2 0x15A7 JUMP JUMPDEST DUP3 ADD SWAP2 SWAP1 PUSH1 0x0 MSTORE PUSH1 0x20 PUSH1 0x0 KECCAK256 SWAP1 JUMPDEST DUP2 SLOAD DUP2 MSTORE SWAP1 PUSH1 0x1 ADD SWAP1 PUSH1 0x20 ADD DUP1 DUP4 GT PUSH2 0x158A JUMPI DUP3 SWAP1 SUB PUSH1 0x1F AND DUP3 ADD SWAP2 JUMPDEST POP POP POP POP POP DUP2 MSTORE PUSH1 0x20 ADD PUSH1 0x1 DUP3 ADD DUP1 SLOAD PUSH2 0x15C0 SWAP1 PUSH2 0x5CF4 JUMP JUMPDEST DUP1 PUSH1 0x1F ADD PUSH1 0x20 DUP1 SWAP2 DIV MUL PUSH1 0x20 ADD PUSH1 0x40 MLOAD SWAP1 DUP2 ADD PUSH1 0x40 MSTORE DUP1 SWAP3 SWAP2 SWAP1 DUP2 DUP2 MSTORE PUSH1 0x20 ADD DUP3 DUP1 SLOAD PUSH2 0x15EC SWAP1 PUSH2 0x5CF4 JUMP JUMPDEST DUP1 ISZERO PUSH2 0x1639 JUMPI DUP1 PUSH1 0x1F LT PUSH2 0x160E JUMPI PUSH2 0x100 DUP1 DUP4 SLOAD DIV MUL DUP4 MSTORE SWAP2 PUSH1 0x20 ADD SWAP2 PUSH2 0x1639 JUMP JUMPDEST DUP3 ADD SWAP2 SWAP1 PUSH1 0x0 MSTORE PUSH1 0x20 PUSH1 0x0 KECCAK256 SWAP1 JUMPDEST DUP2 SLOAD DUP2 MSTORE SWAP1 PUSH1 0x1 ADD SWAP1 PUSH1 0x20 ADD DUP1 DUP4 GT PUSH2 0x161C JUMPI DUP3 SWAP1 SUB PUSH1 0x1F AND DUP3 ADD SWAP2 JUMPDEST POP POP POP POP POP DUP2 MSTORE PUSH1 0x20 ADD PUSH1 0x2 DUP3 ADD DUP1 SLOAD PUSH2 0x1652 SWAP1 PUSH2 0x5CF4 JUMP JUMPDEST DUP1 PUSH1 0x1F ADD PUSH1 0x20 DUP1 SWAP2 DIV MUL PUSH1 0x20 ADD PUSH1 0x40 MLOAD SWAP1 DUP2 ADD PUSH1 0x40 MSTORE DUP1 SWAP3 SWAP2 SWAP1 DUP2 DUP2 MSTORE PUSH1 0x20 ADD DUP3 DUP1 SLOAD PUSH2 0x167E SWAP1 PUSH2 0x5CF4 JUMP JUMPDEST DUP1 ISZERO PUSH2 0x16CB JUMPI DUP1 PUSH1 0x1F LT PUSH2 0x16A0 JUMPI PUSH2 0x100 DUP1 DUP4 SLOAD DIV MUL DUP4 MSTORE SWAP2 PUSH1 0x20 ADD SWAP2 PUSH2 0x16CB JUMP JUMPDEST DUP3 ADD SWAP2 SWAP1 PUSH1 0x0 MSTORE PUSH1 0x20 PUSH1 0x0 KECCAK256 SWAP1 JUMPDEST DUP2 SLOAD DUP2 MSTORE SWAP1 PUSH1 0x1 ADD SWAP1 PUSH1 0x20 ADD DUP1 DUP4 GT PUSH2 0x16AE JUMPI DUP3 SWAP1 SUB PUSH1 0x1F AND DUP3 ADD SWAP2 JUMPDEST POP POP POP POP POP DUP2 MSTORE PUSH1 0x20 ADD PUSH1 0x3 DUP3 ADD DUP1 SLOAD PUSH2 0x16E4 SWAP1 PUSH2 0x5CF4 JUMP JUMPDEST DUP1 PUSH1 0x1F ADD PUSH1 0x20 DUP1 SWAP2 DIV MUL PUSH1 0x20 ADD PUSH1 0x40 MLOAD SWAP1 DUP2 ADD PUSH1 0x40 MSTORE DUP1 SWAP3 SWAP2 SWAP1 DUP2 DUP2 MSTORE PUSH1 0x20 ADD DUP3 DUP1 SLOAD PUSH2 0x1710 SWAP1 PUSH2 0x5CF4 JUMP JUMPDEST DUP1 ISZERO PUSH2 0x175D JUMPI DUP1 PUSH1 0x1F LT PUSH2 0x1732 JUMPI PUSH2 0x100 DUP1 DUP4 SLOAD DIV MUL DUP4 MSTORE SWAP2 PUSH1 0x20 ADD SWAP2 PUSH2 0x175D JUMP JUMPDEST DUP3 ADD SWAP2 SWAP1 PUSH1 0x0 MSTORE PUSH1 0x20 PUSH1 0x0 KECCAK256 SWAP1 JUMPDEST DUP2 SLOAD DUP2 MSTORE SWAP1 PUSH1 0x1 ADD SWAP1 PUSH1 0x20 ADD DUP1 DUP4 GT PUSH2 0x1740 JUMPI DUP3 SWAP1 SUB PUSH1 0x1F AND DUP3 ADD SWAP2 JUMPDEST POP POP POP SWAP2 SWAP1 SWAP3 MSTORE POP POP POP DUP2 MSTORE PUSH1 0x9 DUP3 ADD SLOAD PUSH1 0x1 PUSH1 0x1 PUSH1 0xA0 SHL SUB SWAP1 DUP2 AND PUSH1 0x20 DUP1 DUP5 ADD SWAP2 SWAP1 SWAP2 MSTORE PUSH1 0xA DUP5 ADD SLOAD SWAP2 DUP3 AND PUSH1 0x40 DUP1 DUP6 ADD SWAP2 SWAP1 SWAP2 MSTORE PUSH1 0x1 PUSH1 0xA0 SHL SWAP1 SWAP3 DIV PUSH1 0xFF AND ISZERO ISZERO PUSH1 0x60 DUP1 DUP6 ADD SWAP2 SWAP1 SWAP2 MSTORE DUP3 MLOAD PUSH1 0xB DUP7 ADD DUP1 SLOAD PUSH1 0x80 SWAP5 DUP2 MUL DUP4 ADD DUP6 ADD SWAP1 SWAP6 MSTORE SWAP2 DUP2 ADD DUP5 DUP2 MSTORE SWAP5 DUP4 ADD SWAP5 SWAP1 SWAP4 SWAP2 SWAP3 DUP5 SWAP3 DUP5 SWAP2 DUP5 ADD DUP3 DUP3 DUP1 ISZERO PUSH2 0x1808 JUMPI PUSH1 0x20 MUL DUP3 ADD SWAP2 SWAP1 PUSH1 0x0 MSTORE PUSH1 0x20 PUSH1 0x0 KECCAK256 SWAP1 JUMPDEST DUP2 SLOAD PUSH1 0x1 PUSH1 0x1 PUSH1 0xA0 SHL SUB AND DUP2 MSTORE PUSH1 0x1 SWAP1 SWAP2 ADD SWAP1 PUSH1 0x20 ADD DUP1 DUP4 GT PUSH2 0x17EA JUMPI JUMPDEST POP POP POP POP POP DUP2 MSTORE PUSH1 0x20 ADD PUSH1 0x1 DUP3 ADD DUP1 SLOAD DUP1 PUSH1 0x20 MUL PUSH1 0x20 ADD PUSH1 0x40 MLOAD SWAP1 DUP2 ADD PUSH1 0x40 MSTORE DUP1 SWAP3 SWAP2 SWAP1 DUP2 DUP2 MSTORE PUSH1 0x20 ADD DUP3 DUP1 SLOAD DUP1 ISZERO PUSH2 0x1860 JUMPI PUSH1 0x20 MUL DUP3 ADD SWAP2 SWAP1 PUSH1 0x0 MSTORE PUSH1 0x20 PUSH1 0x0 KECCAK256 SWAP1 JUMPDEST DUP2 SLOAD DUP2 MSTORE PUSH1 0x20 ADD SWAP1 PUSH1 0x1 ADD SWAP1 DUP1 DUP4 GT PUSH2 0x184C JUMPI JUMPDEST POP POP POP POP POP DUP2 MSTORE PUSH1 0x20 ADD PUSH1 0x2 DUP3 ADD DUP1 SLOAD DUP1 PUSH1 0x20 MUL PUSH1 0x20 ADD PUSH1 0x40 MLOAD SWAP1 DUP2 ADD PUSH1 0x40 MSTORE DUP1 SWAP3 SWAP2 SWAP1 DUP2 DUP2 MSTORE PUSH1 0x20 ADD DUP3 DUP1 SLOAD DUP1 ISZERO PUSH2 0x18B8 JUMPI PUSH1 0x20 MUL DUP3 ADD SWAP2 SWAP1 PUSH1 0x0 MSTORE PUSH1 0x20 PUSH1 0x0 KECCAK256 SWAP1 JUMPDEST DUP2 SLOAD DUP2 MSTORE PUSH1 0x20 ADD SWAP1 PUSH1 0x1 ADD SWAP1 DUP1 DUP4 GT PUSH2 0x18A4 JUMPI JUMPDEST POP POP POP POP POP DUP2 MSTORE POP POP DUP2 MSTORE PUSH1 0x20 ADD PUSH1 0xE DUP3 ADD PUSH1 0x40 MLOAD DUP1 PUSH1 0x80 ADD PUSH1 0x40 MSTORE SWAP1 DUP2 PUSH1 0x0 DUP3 ADD DUP1 SLOAD PUSH2 0x18E5 SWAP1 PUSH2 0x5CF4 JUMP JUMPDEST DUP1 PUSH1 0x1F ADD PUSH1 0x20 DUP1 SWAP2 DIV MUL PUSH1 0x20 ADD PUSH1 0x40 MLOAD SWAP1 DUP2 ADD PUSH1 0x40 MSTORE DUP1 SWAP3 SWAP2 SWAP1 DUP2 DUP2 MSTORE PUSH1 0x20 ADD DUP3 DUP1 SLOAD PUSH2 0x1911 SWAP1 PUSH2 0x5CF4 JUMP JUMPDEST DUP1 ISZERO PUSH2 0x195E JUMPI DUP1 PUSH1 0x1F LT PUSH2 0x1933 JUMPI PUSH2 0x100 DUP1 DUP4 SLOAD DIV MUL DUP4 MSTORE SWAP2 PUSH1 0x20 ADD SWAP2 PUSH2 0x195E JUMP JUMPDEST DUP3 ADD SWAP2 SWAP1 PUSH1 0x0 MSTORE PUSH1 0x20 PUSH1 0x0 KECCAK256 SWAP1 JUMPDEST DUP2 SLOAD DUP2 MSTORE SWAP1 PUSH1 0x1 ADD SWAP1 PUSH1 0x20 ADD DUP1 DUP4 GT PUSH2 0x1941 JUMPI DUP3 SWAP1 SUB PUSH1 0x1F AND DUP3 ADD SWAP2 JUMPDEST POP POP POP POP POP DUP2 MSTORE PUSH1 0x20 ADD PUSH1 0x1 DUP3 ADD DUP1 SLOAD PUSH2 0x1977 SWAP1 PUSH2 0x5CF4 JUMP JUMPDEST DUP1 PUSH1 0x1F ADD PUSH1 0x20 DUP1 SWAP2 DIV MUL PUSH1 0x20 ADD PUSH1 0x40 MLOAD SWAP1 DUP2 ADD PUSH1 0x40 MSTORE DUP1 SWAP3 SWAP2 SWAP1 DUP2 DUP2 MSTORE PUSH1 0x20 ADD DUP3 DUP1 SLOAD PUSH2 0x19A3 SWAP1 PUSH2 0x5CF4 JUMP JUMPDEST DUP1 ISZERO PUSH2 0x19F0 JUMPI DUP1 PUSH1 0x1F LT PUSH2 0x19C5 JUMPI PUSH2 0x100 DUP1 DUP4 SLOAD DIV MUL DUP4 MSTORE SWAP2 PUSH1 0x20 ADD SWAP2 PUSH2 0x19F0 JUMP JUMPDEST DUP3 ADD SWAP2 SWAP1 PUSH1 0x0 MSTORE PUSH1 0x20 PUSH1 0x0 KECCAK256 SWAP1 JUMPDEST DUP2 SLOAD DUP2 MSTORE SWAP1 PUSH1 0x1 ADD SWAP1 PUSH1 0x20 ADD DUP1 DUP4 GT PUSH2 0x19D3 JUMPI DUP3 SWAP1 SUB PUSH1 0x1F AND DUP3 ADD SWAP2 JUMPDEST POP POP POP POP POP DUP2 MSTORE PUSH1 0x20 ADD PUSH1 0x2 DUP3 ADD DUP1 SLOAD PUSH2 0x1A09 SWAP1 PUSH2 0x5CF4 JUMP JUMPDEST DUP1 PUSH1 0x1F ADD PUSH1 0x20 DUP1 SWAP2 DIV MUL PUSH1 0x20 ADD PUSH1 0x40 MLOAD SWAP1 DUP2 ADD PUSH1 0x40 MSTORE DUP1 SWAP3 SWAP2 SWAP1 DUP2 DUP2 MSTORE PUSH1 0x20 ADD DUP3 DUP1 SLOAD PUSH2 0x1A35 SWAP1 PUSH2 0x5CF4 JUMP JUMPDEST DUP1 ISZERO PUSH2 0x1A82 JUMPI DUP1 PUSH1 0x1F LT PUSH2 0x1A57 JUMPI PUSH2 0x100 DUP1 DUP4 SLOAD DIV MUL DUP4 MSTORE SWAP2 PUSH1 0x20 ADD SWAP2 PUSH2 0x1A82 JUMP JUMPDEST DUP3 ADD SWAP2 SWAP1 PUSH1 0x0 MSTORE PUSH1 0x20 PUSH1 0x0 KECCAK256 SWAP1 JUMPDEST DUP2 SLOAD DUP2 MSTORE SWAP1 PUSH1 0x1 ADD SWAP1 PUSH1 0x20 ADD DUP1 DUP4 GT PUSH2 0x1A65 JUMPI DUP3 SWAP1 SUB PUSH1 0x1F AND DUP3 ADD SWAP2 JUMPDEST POP POP POP POP POP DUP2 MSTORE PUSH1 0x20 ADD PUSH1 0x3 DUP3 ADD DUP1 SLOAD PUSH2 0x1A9B SWAP1 PUSH2 0x5CF4 JUMP JUMPDEST DUP1 PUSH1 0x1F ADD PUSH1 0x20 DUP1 SWAP2 DIV MUL PUSH1 0x20 ADD PUSH1 0x40 MLOAD SWAP1 DUP2 ADD PUSH1 0x40 MSTORE DUP1 SWAP3 SWAP2 SWAP1 DUP2 DUP2 MSTORE PUSH1 0x20 ADD DUP3 DUP1 SLOAD PUSH2 0x1AC7 SWAP1 PUSH2 0x5CF4 JUMP JUMPDEST DUP1 ISZERO PUSH2 0x1B14 JUMPI DUP1 PUSH1 0x1F LT PUSH2 0x1AE9 JUMPI PUSH2 0x100 DUP1 DUP4 SLOAD DIV MUL DUP4 MSTORE SWAP2 PUSH1 0x20 ADD SWAP2 PUSH2 0x1B14 JUMP JUMPDEST DUP3 ADD SWAP2 SWAP1 PUSH1 0x0 MSTORE PUSH1 0x20 PUSH1 0x0 KECCAK256 SWAP1 JUMPDEST DUP2 SLOAD DUP2 MSTORE SWAP1 PUSH1 0x1 ADD SWAP1 PUSH1 0x20 ADD DUP1 DUP4 GT PUSH2 0x1AF7 JUMPI DUP3 SWAP1 SUB PUSH1 0x1F AND DUP3 ADD SWAP2 JUMPDEST POP POP POP POP POP DUP2 MSTORE POP POP DUP2 MSTORE PUSH1 0x20 ADD PUSH1 0x12 DUP3 ADD PUSH1 0x40 MLOAD DUP1 PUSH1 0xE0 ADD PUSH1 0x40 MSTORE SWAP1 DUP2 PUSH1 0x0 DUP3 ADD DUP1 SLOAD PUSH2 0x1B41 SWAP1 PUSH2 0x5CF4 JUMP JUMPDEST DUP1 PUSH1 0x1F ADD PUSH1 0x20 DUP1 SWAP2 DIV MUL PUSH1 0x20 ADD PUSH1 0x40 MLOAD SWAP1 DUP2 ADD PUSH1 0x40 MSTORE DUP1 SWAP3 SWAP2 SWAP1 DUP2 DUP2 MSTORE PUSH1 0x20 ADD DUP3 DUP1 SLOAD PUSH2 0x1B6D SWAP1 PUSH2 0x5CF4 JUMP JUMPDEST DUP1 ISZERO PUSH2 0x1BBA JUMPI DUP1 PUSH1 0x1F LT PUSH2 0x1B8F JUMPI PUSH2 0x100 DUP1 DUP4 SLOAD DIV MUL DUP4 MSTORE SWAP2 PUSH1 0x20 ADD SWAP2 PUSH2 0x1BBA JUMP JUMPDEST DUP3 ADD SWAP2 SWAP1 PUSH1 0x0 MSTORE PUSH1 0x20 PUSH1 0x0 KECCAK256 SWAP1 JUMPDEST DUP2 SLOAD DUP2 MSTORE SWAP1 PUSH1 0x1 ADD SWAP1 PUSH1 0x20 ADD DUP1 DUP4 GT PUSH2 0x1B9D JUMPI DUP3 SWAP1 SUB PUSH1 0x1F AND DUP3 ADD SWAP2 JUMPDEST POP POP POP POP POP DUP2 MSTORE PUSH1 0x20 ADD PUSH1 0x1 DUP3 ADD DUP1 SLOAD DUP1 PUSH1 0x20 MUL PUSH1 0x20 ADD PUSH1 0x40 MLOAD SWAP1 DUP2 ADD PUSH1 0x40 MSTORE DUP1 SWAP3 SWAP2 SWAP1 DUP2 DUP2 MSTORE PUSH1 0x20 ADD PUSH1 0x0 SWAP1 JUMPDEST DUP3 DUP3 LT ISZERO PUSH2 0x1C94 JUMPI DUP4 DUP3 SWAP1 PUSH1 0x0 MSTORE PUSH1 0x20 PUSH1 0x0 KECCAK256 ADD DUP1 SLOAD PUSH2 0x1C07 SWAP1 PUSH2 0x5CF4 JUMP JUMPDEST DUP1 PUSH1 0x1F ADD PUSH1 0x20 DUP1 SWAP2 DIV MUL PUSH1 0x20 ADD PUSH1 0x40 MLOAD SWAP1 DUP2 ADD PUSH1 0x40 MSTORE DUP1 SWAP3 SWAP2 SWAP1 DUP2 DUP2 MSTORE PUSH1 0x20 ADD DUP3 DUP1 SLOAD PUSH2 0x1C33 SWAP1 PUSH2 0x5CF4 JUMP JUMPDEST DUP1 ISZERO PUSH2 0x1C80 JUMPI DUP1 PUSH1 0x1F LT PUSH2 0x1C55 JUMPI PUSH2 0x100 DUP1 DUP4 SLOAD DIV MUL DUP4 MSTORE SWAP2 PUSH1 0x20 ADD SWAP2 PUSH2 0x1C80 JUMP JUMPDEST DUP3 ADD SWAP2 SWAP1 PUSH1 0x0 MSTORE PUSH1 0x20 PUSH1 0x0 KECCAK256 SWAP1 JUMPDEST DUP2 SLOAD DUP2 MSTORE SWAP1 PUSH1 0x1 ADD SWAP1 PUSH1 0x20 ADD DUP1 DUP4 GT PUSH2 0x1C63 JUMPI DUP3 SWAP1 SUB PUSH1 0x1F AND DUP3 ADD SWAP2 JUMPDEST POP POP POP POP POP DUP2 MSTORE PUSH1 0x20 ADD SWAP1 PUSH1 0x1 ADD SWAP1 PUSH2 0x1BE8 JUMP JUMPDEST POP POP POP POP DUP2 MSTORE PUSH1 0x20 ADD PUSH1 0x2 DUP3 ADD DUP1 SLOAD PUSH2 0x1CAC SWAP1 PUSH2 0x5CF4 JUMP JUMPDEST DUP1 PUSH1 0x1F ADD PUSH1 0x20 DUP1 SWAP2 DIV MUL PUSH1 0x20 ADD PUSH1 0x40 MLOAD SWAP1 DUP2 ADD PUSH1 0x40 MSTORE DUP1 SWAP3 SWAP2 SWAP1 DUP2 DUP2 MSTORE PUSH1 0x20 ADD DUP3 DUP1 SLOAD PUSH2 0x1CD8 SWAP1 PUSH2 0x5CF4 JUMP JUMPDEST DUP1 ISZERO PUSH2 0x1D25 JUMPI DUP1 PUSH1 0x1F LT PUSH2 0x1CFA JUMPI PUSH2 0x100 DUP1 DUP4 SLOAD DIV MUL DUP4 MSTORE SWAP2 PUSH1 0x20 ADD SWAP2 PUSH2 0x1D25 JUMP JUMPDEST DUP3 ADD SWAP2 SWAP1 PUSH1 0x0 MSTORE PUSH1 0x20 PUSH1 0x0 KECCAK256 SWAP1 JUMPDEST DUP2 SLOAD DUP2 MSTORE SWAP1 PUSH1 0x1 ADD SWAP1 PUSH1 0x20 ADD DUP1 DUP4 GT PUSH2 0x1D08 JUMPI DUP3 SWAP1 SUB PUSH1 0x1F AND DUP3 ADD SWAP2 JUMPDEST POP POP POP POP POP DUP2 MSTORE PUSH1 0x20 ADD PUSH1 0x3 DUP3 ADD DUP1 SLOAD PUSH2 0x1D3E SWAP1 PUSH2 0x5CF4 JUMP JUMPDEST DUP1 PUSH1 0x1F ADD PUSH1 0x20 DUP1 SWAP2 DIV MUL PUSH1 0x20 ADD PUSH1 0x40 MLOAD SWAP1 DUP2 ADD PUSH1 0x40 MSTORE DUP1 SWAP3 SWAP2 SWAP1 DUP2 DUP2 MSTORE PUSH1 0x20 ADD DUP3 DUP1 SLOAD PUSH2 0x1D6A SWAP1 PUSH2 0x5CF4 JUMP JUMPDEST DUP1 ISZERO PUSH2 0x1DB7 JUMPI DUP1 PUSH1 0x1F LT PUSH2 0x1D8C JUMPI PUSH2 0x100 DUP1 DUP4 SLOAD DIV MUL DUP4 MSTORE SWAP2 PUSH1 0x20 ADD SWAP2 PUSH2 0x1DB7 JUMP JUMPDEST DUP3 ADD SWAP2 SWAP1 PUSH1 0x0 MSTORE PUSH1 0x20 PUSH1 0x0 KECCAK256 SWAP1 JUMPDEST DUP2 SLOAD DUP2 MSTORE SWAP1 PUSH1 0x1 ADD SWAP1 PUSH1 0x20 ADD DUP1 DUP4 GT PUSH2 0x1D9A JUMPI DUP3 SWAP1 SUB PUSH1 0x1F AND DUP3 ADD SWAP2 JUMPDEST POP POP POP POP POP DUP2 MSTORE PUSH1 0x20 ADD PUSH1 0x4 DUP3 ADD DUP1 SLOAD PUSH2 0x1DD0 SWAP1 PUSH2 0x5CF4 JUMP JUMPDEST DUP1 PUSH1 0x1F ADD PUSH1 0x20 DUP1 SWAP2 DIV MUL PUSH1 0x20 ADD PUSH1 0x40 MLOAD SWAP1 DUP2 ADD PUSH1 0x40 MSTORE DUP1 SWAP3 SWAP2 SWAP1 DUP2 DUP2 MSTORE PUSH1 0x20 ADD DUP3 DUP1 SLOAD PUSH2 0x1DFC SWAP1 PUSH2 0x5CF4 JUMP JUMPDEST DUP1 ISZERO PUSH2 0x1E49 JUMPI DUP1 PUSH1 0x1F LT PUSH2 0x1E1E JUMPI PUSH2 0x100 DUP1 DUP4 SLOAD DIV MUL DUP4 MSTORE SWAP2 PUSH1 0x20 ADD SWAP2 PUSH2 0x1E49 JUMP JUMPDEST DUP3 ADD SWAP2 SWAP1 PUSH1 0x0 MSTORE PUSH1 0x20 PUSH1 0x0 KECCAK256 SWAP1 JUMPDEST DUP2 SLOAD DUP2 MSTORE SWAP1 PUSH1 0x1 ADD SWAP1 PUSH1 0x20 ADD DUP1 DUP4 GT PUSH2 0x1E2C JUMPI DUP3 SWAP1 SUB PUSH1 0x1F AND DUP3 ADD SWAP2 JUMPDEST POP POP POP POP POP DUP2 MSTORE PUSH1 0x20 ADD PUSH1 0x5 DUP3 ADD DUP1 SLOAD PUSH2 0x1E62 SWAP1 PUSH2 0x5CF4 JUMP JUMPDEST DUP1 PUSH1 0x1F ADD PUSH1 0x20 DUP1 SWAP2 DIV MUL PUSH1 0x20 ADD PUSH1 0x40 MLOAD SWAP1 DUP2 ADD PUSH1 0x40 MSTORE DUP1 SWAP3 SWAP2 SWAP1 DUP2 DUP2 MSTORE PUSH1 0x20 ADD DUP3 DUP1 SLOAD PUSH2 0x1E8E SWAP1 PUSH2 0x5CF4 JUMP JUMPDEST DUP1 ISZERO PUSH2 0x1EDB JUMPI DUP1 PUSH1 0x1F LT PUSH2 0x1EB0 JUMPI PUSH2 0x100 DUP1 DUP4 SLOAD DIV MUL DUP4 MSTORE SWAP2 PUSH1 0x20 ADD SWAP2 PUSH2 0x1EDB JUMP JUMPDEST DUP3 ADD SWAP2 SWAP1 PUSH1 0x0 MSTORE PUSH1 0x20 PUSH1 0x0 KECCAK256 SWAP1 JUMPDEST DUP2 SLOAD DUP2 MSTORE SWAP1 PUSH1 0x1 ADD SWAP1 PUSH1 0x20 ADD DUP1 DUP4 GT PUSH2 0x1EBE JUMPI DUP3 SWAP1 SUB PUSH1 0x1F AND DUP3 ADD SWAP2 JUMPDEST POP POP POP SWAP2 DUP4 MSTORE POP POP PUSH1 0x6 SWAP2 SWAP1 SWAP2 ADD SLOAD PUSH1 0xFF AND ISZERO ISZERO PUSH1 0x20 SWAP1 SWAP2 ADD MSTORE SWAP1 MSTORE POP DUP4 PUSH2 0x1F04 PUSH1 0x1 DUP6 PUSH2 0x5CB1 JUMP JUMPDEST DUP2 MLOAD DUP2 LT PUSH2 0x1F14 JUMPI PUSH2 0x1F14 PUSH2 0x5D84 JUMP JUMPDEST PUSH1 0x20 MUL PUSH1 0x20 ADD ADD DUP2 SWAP1 MSTORE POP POP DUP1 DUP1 PUSH2 0x1F2B SWAP1 PUSH2 0x5D29 JUMP JUMPDEST SWAP2 POP POP PUSH2 0x139F JUMP JUMPDEST POP SWAP2 SWAP1 POP JUMP JUMPDEST PUSH2 0x622 DUP4 DUP4 DUP4 PUSH1 0x40 MLOAD DUP1 PUSH1 0x20 ADD PUSH1 0x40 MSTORE DUP1 PUSH1 0x0 DUP2 MSTORE POP PUSH2 0x3E51 JUMP JUMPDEST PUSH1 0x2 PUSH1 0x6 SLOAD EQ ISZERO PUSH2 0x1FA7 JUMPI PUSH1 0x40 MLOAD PUSH3 0x461BCD PUSH1 0xE5 SHL DUP2 MSTORE PUSH1 0x20 PUSH1 0x4 DUP3 ADD MSTORE PUSH1 0x1F PUSH1 0x24 DUP3 ADD MSTORE PUSH32 0x5265656E7472616E637947756172643A207265656E7472616E742063616C6C00 PUSH1 0x44 DUP3 ADD MSTORE PUSH1 0x64 ADD PUSH2 0x581 JUMP JUMPDEST PUSH1 0x2 PUSH1 0x6 SSTORE DUP10 MLOAD PUSH2 0x1FFA JUMPI PUSH1 0x40 MLOAD PUSH3 0x461BCD PUSH1 0xE5 SHL DUP2 MSTORE PUSH1 0x20 PUSH1 0x4 DUP3 ADD MSTORE PUSH1 0x19 PUSH1 0x24 DUP3 ADD MSTORE PUSH32 0x536F6E67206E616D652063616E6E6F7420626520656D70747900000000000000 PUSH1 0x44 DUP3 ADD MSTORE PUSH1 0x64 ADD PUSH2 0x581 JUMP JUMPDEST PUSH1 0x0 DUP10 MLOAD GT PUSH2 0x204B JUMPI PUSH1 0x40 MLOAD PUSH3 0x461BCD PUSH1 0xE5 SHL DUP2 MSTORE PUSH1 0x20 PUSH1 0x4 DUP3 ADD MSTORE PUSH1 0x1B PUSH1 0x24 DUP3 ADD MSTORE PUSH32 0x417274697374206E616D652063616E6E6F7420626520656D7074790000000000 PUSH1 0x44 DUP3 ADD MSTORE PUSH1 0x64 ADD PUSH2 0x581 JUMP JUMPDEST PUSH1 0x0 DUP9 GT PUSH2 0x209B JUMPI PUSH1 0x40 MLOAD PUSH3 0x461BCD PUSH1 0xE5 SHL DUP2 MSTORE PUSH1 0x20 PUSH1 0x4 DUP3 ADD MSTORE PUSH1 0x1C PUSH1 0x24 DUP3 ADD MSTORE PUSH32 0x5072696365206D757374206265206174206C6561737420312077656900000000 PUSH1 0x44 DUP3 ADD MSTORE PUSH1 0x64 ADD PUSH2 0x581 JUMP JUMPDEST PUSH1 0x0 DUP8 MLOAD GT PUSH2 0x20EC JUMPI PUSH1 0x40 MLOAD PUSH3 0x461BCD PUSH1 0xE5 SHL DUP2 MSTORE PUSH1 0x20 PUSH1 0x4 DUP3 ADD MSTORE PUSH1 0x1C PUSH1 0x24 DUP3 ADD MSTORE PUSH32 0x436F76657220696D616765206D7573742062652070726F766964656400000000 PUSH1 0x44 DUP3 ADD MSTORE PUSH1 0x64 ADD PUSH2 0x581 JUMP JUMPDEST PUSH1 0x0 DUP7 MLOAD GT PUSH2 0x2135 JUMPI PUSH1 0x40 MLOAD PUSH3 0x461BCD PUSH1 0xE5 SHL DUP2 MSTORE PUSH1 0x20 PUSH1 0x4 DUP3 ADD MSTORE PUSH1 0x15 PUSH1 0x24 DUP3 ADD MSTORE PUSH21 0x14DBDB99C81B5D5CDD081899481C1C9BDD9A591959 PUSH1 0x5A SHL PUSH1 0x44 DUP3 ADD MSTORE PUSH1 0x64 ADD PUSH2 0x581 JUMP JUMPDEST PUSH1 0x1 PUSH1 0x7 PUSH1 0x0 DUP3 DUP3 SLOAD PUSH2 0x2148 SWAP2 SWAP1 PUSH2 0x5C66 JUMP JUMPDEST SWAP1 SWAP2 SSTORE POP POP PUSH1 0x40 DUP1 MLOAD PUSH1 0x60 DUP1 DUP3 ADD DUP4 MSTORE DUP1 DUP3 MSTORE PUSH1 0x20 DUP3 ADD DUP2 SWAP1 MSTORE SWAP2 DUP2 ADD SWAP2 SWAP1 SWAP2 MSTORE TIMESTAMP SWAP1 PUSH1 0x40 MLOAD DUP1 PUSH2 0x180 ADD PUSH1 0x40 MSTORE DUP1 PUSH1 0x7 SLOAD DUP2 MSTORE PUSH1 0x20 ADD DUP14 DUP2 MSTORE PUSH1 0x20 ADD DUP13 DUP2 MSTORE PUSH1 0x20 ADD DUP12 DUP2 MSTORE PUSH1 0x20 ADD DUP4 DUP2 MSTORE PUSH1 0x20 ADD PUSH1 0x40 MLOAD DUP1 PUSH1 0x80 ADD PUSH1 0x40 MSTORE DUP1 DUP13 DUP2 MSTORE PUSH1 0x20 ADD DUP12 DUP2 MSTORE PUSH1 0x20 ADD DUP11 DUP2 MSTORE PUSH1 0x20 ADD DUP10 DUP2 MSTORE POP DUP2 MSTORE PUSH1 0x20 ADD CALLER PUSH1 0x1 PUSH1 0x1 PUSH1 0xA0 SHL SUB AND DUP2 MSTORE PUSH1 0x20 ADD CALLER PUSH1 0x1 PUSH1 0x1 PUSH1 0xA0 SHL SUB AND DUP2 MSTORE PUSH1 0x20 ADD DUP7 ISZERO ISZERO DUP2 MSTORE PUSH1 0x20 ADD DUP3 DUP2 MSTORE PUSH1 0x20 ADD DUP6 DUP2 MSTORE PUSH1 0x20 ADD DUP5 DUP2 MSTORE POP PUSH1 0x9 PUSH1 0x0 PUSH1 0x7 SLOAD DUP2 MSTORE PUSH1 0x20 ADD SWAP1 DUP2 MSTORE PUSH1 0x20 ADD PUSH1 0x0 KECCAK256 PUSH1 0x0 DUP3 ADD MLOAD DUP2 PUSH1 0x0 ADD SSTORE PUSH1 0x20 DUP3 ADD MLOAD DUP2 PUSH1 0x1 ADD SWAP1 DUP1 MLOAD SWAP1 PUSH1 0x20 ADD SWAP1 PUSH2 0x222E SWAP3 SWAP2 SWAP1 PUSH2 0x4CAF JUMP JUMPDEST POP PUSH1 0x40 DUP3 ADD MLOAD DUP1 MLOAD PUSH2 0x224A SWAP2 PUSH1 0x2 DUP5 ADD SWAP2 PUSH1 0x20 SWAP1 SWAP2 ADD SWAP1 PUSH2 0x4CAF JUMP JUMPDEST POP PUSH1 0x60 DUP3 ADD MLOAD PUSH1 0x3 DUP3 ADD SSTORE PUSH1 0x80 DUP3 ADD MLOAD PUSH1 0x4 DUP3 ADD SSTORE PUSH1 0xA0 DUP3 ADD MLOAD DUP1 MLOAD DUP1 MLOAD PUSH1 0x5 DUP5 ADD SWAP2 PUSH2 0x227C SWAP2 DUP4 SWAP2 PUSH1 0x20 ADD SWAP1 PUSH2 0x4CAF JUMP JUMPDEST POP PUSH1 0x20 DUP3 DUP2 ADD MLOAD DUP1 MLOAD PUSH2 0x2295 SWAP3 PUSH1 0x1 DUP6 ADD SWAP3 ADD SWAP1 PUSH2 0x4CAF JUMP JUMPDEST POP PUSH1 0x40 DUP3 ADD MLOAD DUP1 MLOAD PUSH2 0x22B1 SWAP2 PUSH1 0x2 DUP5 ADD SWAP2 PUSH1 0x20 SWAP1 SWAP2 ADD SWAP1 PUSH2 0x4CAF JUMP JUMPDEST POP PUSH1 0x60 DUP3 ADD MLOAD DUP1 MLOAD PUSH2 0x22CD SWAP2 PUSH1 0x3 DUP5 ADD SWAP2 PUSH1 0x20 SWAP1 SWAP2 ADD SWAP1 PUSH2 0x4CAF JUMP JUMPDEST POP POP POP PUSH1 0xC0 DUP3 ADD MLOAD PUSH1 0x9 DUP3 ADD DUP1 SLOAD PUSH1 0x1 PUSH1 0x1 PUSH1 0xA0 SHL SUB NOT AND PUSH1 0x1 PUSH1 0x1 PUSH1 0xA0 SHL SUB SWAP3 DUP4 AND OR SWAP1 SSTORE PUSH1 0xE0 DUP4 ADD MLOAD PUSH1 0xA DUP4 ADD DUP1 SLOAD PUSH2 0x100 DUP7 ADD MLOAD SWAP3 SWAP1 SWAP4 AND PUSH1 0x1 PUSH1 0x1 PUSH1 0xA8 SHL SUB NOT SWAP1 SWAP4 AND SWAP3 SWAP1 SWAP3 OR PUSH1 0x1 PUSH1 0xA0 SHL SWAP2 ISZERO ISZERO SWAP2 SWAP1 SWAP2 MUL OR SWAP1 SSTORE PUSH2 0x120 DUP3 ADD MLOAD DUP1 MLOAD DUP1 MLOAD PUSH1 0xB DUP5 ADD SWAP2 PUSH2 0x2345 SWAP2 DUP4 SWAP2 PUSH1 0x20 ADD SWAP1 PUSH2 0x4D33 JUMP JUMPDEST POP PUSH1 0x20 DUP3 DUP2 ADD MLOAD DUP1 MLOAD PUSH2 0x235E SWAP3 PUSH1 0x1 DUP6 ADD SWAP3 ADD SWAP1 PUSH2 0x4D88 JUMP JUMPDEST POP PUSH1 0x40 DUP3 ADD MLOAD DUP1 MLOAD PUSH2 0x237A SWAP2 PUSH1 0x2 DUP5 ADD SWAP2 PUSH1 0x20 SWAP1 SWAP2 ADD SWAP1 PUSH2 0x4D88 JUMP JUMPDEST POP POP POP PUSH2 0x140 DUP3 ADD MLOAD DUP1 MLOAD DUP1 MLOAD PUSH1 0xE DUP5 ADD SWAP2 PUSH2 0x239B SWAP2 DUP4 SWAP2 PUSH1 0x20 ADD SWAP1 PUSH2 0x4CAF JUMP JUMPDEST POP PUSH1 0x20 DUP3 DUP2 ADD MLOAD DUP1 MLOAD PUSH2 0x23B4 SWAP3 PUSH1 0x1 DUP6 ADD SWAP3 ADD SWAP1 PUSH2 0x4CAF JUMP JUMPDEST POP PUSH1 0x40 DUP3 ADD MLOAD DUP1 MLOAD PUSH2 0x23D0 SWAP2 PUSH1 0x2 DUP5 ADD SWAP2 PUSH1 0x20 SWAP1 SWAP2 ADD SWAP1 PUSH2 0x4CAF JUMP JUMPDEST POP PUSH1 0x60 DUP3 ADD MLOAD DUP1 MLOAD PUSH2 0x23EC SWAP2 PUSH1 0x3 DUP5 ADD SWAP2 PUSH1 0x20 SWAP1 SWAP2 ADD SWAP1 PUSH2 0x4CAF JUMP JUMPDEST POP POP POP PUSH2 0x160 DUP3 ADD MLOAD DUP1 MLOAD DUP1 MLOAD PUSH1 0x12 DUP5 ADD SWAP2 PUSH2 0x240D SWAP2 DUP4 SWAP2 PUSH1 0x20 ADD SWAP1 PUSH2 0x4CAF JUMP JUMPDEST POP PUSH1 0x20 DUP3 DUP2 ADD MLOAD DUP1 MLOAD PUSH2 0x2426 SWAP3 PUSH1 0x1 DUP6 ADD SWAP3 ADD SWAP1 PUSH2 0x4DC2 JUMP JUMPDEST POP PUSH1 0x40 DUP3 ADD MLOAD DUP1 MLOAD PUSH2 0x2442 SWAP2 PUSH1 0x2 DUP5 ADD SWAP2 PUSH1 0x20 SWAP1 SWAP2 ADD SWAP1 PUSH2 0x4CAF JUMP JUMPDEST POP PUSH1 0x60 DUP3 ADD MLOAD DUP1 MLOAD PUSH2 0x245E SWAP2 PUSH1 0x3 DUP5 ADD SWAP2 PUSH1 0x20 SWAP1 SWAP2 ADD SWAP1 PUSH2 0x4CAF JUMP JUMPDEST POP PUSH1 0x80 DUP3 ADD MLOAD DUP1 MLOAD PUSH2 0x247A SWAP2 PUSH1 0x4 DUP5 ADD SWAP2 PUSH1 0x20 SWAP1 SWAP2 ADD SWAP1 PUSH2 0x4CAF JUMP JUMPDEST POP PUSH1 0xA0 DUP3 ADD MLOAD DUP1 MLOAD PUSH2 0x2496 SWAP2 PUSH1 0x5 DUP5 ADD SWAP2 PUSH1 0x20 SWAP1 SWAP2 ADD SWAP1 PUSH2 0x4CAF JUMP JUMPDEST POP PUSH1 0xC0 SWAP2 SWAP1 SWAP2 ADD MLOAD PUSH1 0x6 SWAP1 SWAP2 ADD DUP1 SLOAD PUSH1 0xFF NOT AND SWAP2 ISZERO ISZERO SWAP2 SWAP1 SWAP2 OR SWAP1 SSTORE POP POP PUSH1 0x7 SLOAD PUSH2 0x24C2 SWAP1 CALLER SWAP1 PUSH2 0x46D4 JUMP JUMPDEST PUSH32 0xF96F5A22B702E245197D25380B983BDB8DE270D638F04994781B9FAAF3DF6163 PUSH1 0x7 SLOAD DUP14 DUP14 DUP14 DUP7 PUSH1 0x40 MLOAD PUSH2 0x24FB SWAP6 SWAP5 SWAP4 SWAP3 SWAP2 SWAP1 PUSH2 0x5B4E JUMP JUMPDEST PUSH1 0x40 MLOAD DUP1 SWAP2 SUB SWAP1 LOG1 POP POP PUSH1 0x1 PUSH1 0x6 SSTORE POP POP POP POP POP POP POP POP POP POP JUMP JUMPDEST PUSH1 0x7 SLOAD PUSH1 0x60 SWAP1 PUSH1 0x0 DUP1 DUP1 JUMPDEST DUP4 DUP2 LT ISZERO PUSH2 0x257C JUMPI CALLER PUSH1 0x9 PUSH1 0x0 PUSH2 0x2539 DUP5 PUSH1 0x1 PUSH2 0x5C66 JUMP JUMPDEST DUP2 MSTORE PUSH1 0x20 DUP2 ADD SWAP2 SWAP1 SWAP2 MSTORE PUSH1 0x40 ADD PUSH1 0x0 KECCAK256 PUSH1 0x9 ADD SLOAD PUSH1 0x1 PUSH1 0x1 PUSH1 0xA0 SHL SUB AND EQ ISZERO PUSH2 0x256A JUMPI PUSH2 0x2567 PUSH1 0x1 DUP5 PUSH2 0x5C66 JUMP JUMPDEST SWAP3 POP JUMPDEST DUP1 PUSH2 0x2574 DUP2 PUSH2 0x5D29 JUMP JUMPDEST SWAP2 POP POP PUSH2 0x2521 JUMP JUMPDEST POP PUSH1 0x0 DUP3 PUSH1 0x1 PUSH1 0x1 PUSH1 0x40 SHL SUB DUP2 GT ISZERO PUSH2 0x2597 JUMPI PUSH2 0x2597 PUSH2 0x5D9A JUMP JUMPDEST PUSH1 0x40 MLOAD SWAP1 DUP1 DUP3 MSTORE DUP1 PUSH1 0x20 MUL PUSH1 0x20 ADD DUP3 ADD PUSH1 0x40 MSTORE DUP1 ISZERO PUSH2 0x25D0 JUMPI DUP2 PUSH1 0x20 ADD JUMPDEST PUSH2 0x25BD PUSH2 0x4B87 JUMP JUMPDEST DUP2 MSTORE PUSH1 0x20 ADD SWAP1 PUSH1 0x1 SWAP1 SUB SWAP1 DUP2 PUSH2 0x25B5 JUMPI SWAP1 POP JUMPDEST POP SWAP1 POP PUSH1 0x0 JUMPDEST DUP5 DUP2 LT ISZERO PUSH2 0x12C2 JUMPI CALLER PUSH1 0x9 PUSH1 0x0 PUSH2 0x25EE DUP5 PUSH1 0x1 PUSH2 0x5C66 JUMP JUMPDEST DUP2 MSTORE PUSH1 0x20 DUP2 ADD SWAP2 SWAP1 SWAP2 MSTORE PUSH1 0x40 ADD PUSH1 0x0 KECCAK256 PUSH1 0x9 ADD SLOAD PUSH1 0x1 PUSH1 0x1 PUSH1 0xA0 SHL SUB AND EQ ISZERO PUSH2 0x319F JUMPI PUSH1 0x0 PUSH2 0x261E DUP3 PUSH1 0x1 PUSH2 0x5C66 JUMP JUMPDEST SWAP1 POP PUSH1 0x0 PUSH1 0x9 PUSH1 0x0 DUP4 DUP2 MSTORE PUSH1 0x20 ADD SWAP1 DUP2 MSTORE PUSH1 0x20 ADD PUSH1 0x0 KECCAK256 SWAP1 POP DUP1 PUSH1 0x40 MLOAD DUP1 PUSH2 0x180 ADD PUSH1 0x40 MSTORE SWAP1 DUP2 PUSH1 0x0 DUP3 ADD SLOAD DUP2 MSTORE PUSH1 0x20 ADD PUSH1 0x1 DUP3 ADD DUP1 SLOAD PUSH2 0x265E SWAP1 PUSH2 0x5CF4 JUMP JUMPDEST DUP1 PUSH1 0x1F ADD PUSH1 0x20 DUP1 SWAP2 DIV MUL PUSH1 0x20 ADD PUSH1 0x40 MLOAD SWAP1 DUP2 ADD PUSH1 0x40 MSTORE DUP1 SWAP3 SWAP2 SWAP1 DUP2 DUP2 MSTORE PUSH1 0x20 ADD DUP3 DUP1 SLOAD PUSH2 0x268A SWAP1 PUSH2 0x5CF4 JUMP JUMPDEST DUP1 ISZERO PUSH2 0x26D7 JUMPI DUP1 PUSH1 0x1F LT PUSH2 0x26AC JUMPI PUSH2 0x100 DUP1 DUP4 SLOAD DIV MUL DUP4 MSTORE SWAP2 PUSH1 0x20 ADD SWAP2 PUSH2 0x26D7 JUMP JUMPDEST DUP3 ADD SWAP2 SWAP1 PUSH1 0x0 MSTORE PUSH1 0x20 PUSH1 0x0 KECCAK256 SWAP1 JUMPDEST DUP2 SLOAD DUP2 MSTORE SWAP1 PUSH1 0x1 ADD SWAP1 PUSH1 0x20 ADD DUP1 DUP4 GT PUSH2 0x26BA JUMPI DUP3 SWAP1 SUB PUSH1 0x1F AND DUP3 ADD SWAP2 JUMPDEST POP POP POP POP POP DUP2 MSTORE PUSH1 0x20 ADD PUSH1 0x2 DUP3 ADD DUP1 SLOAD PUSH2 0x26F0 SWAP1 PUSH2 0x5CF4 JUMP JUMPDEST DUP1 PUSH1 0x1F ADD PUSH1 0x20 DUP1 SWAP2 DIV MUL PUSH1 0x20 ADD PUSH1 0x40 MLOAD SWAP1 DUP2 ADD PUSH1 0x40 MSTORE DUP1 SWAP3 SWAP2 SWAP1 DUP2 DUP2 MSTORE PUSH1 0x20 ADD DUP3 DUP1 SLOAD PUSH2 0x271C SWAP1 PUSH2 0x5CF4 JUMP JUMPDEST DUP1 ISZERO PUSH2 0x2769 JUMPI DUP1 PUSH1 0x1F LT PUSH2 0x273E JUMPI PUSH2 0x100 DUP1 DUP4 SLOAD DIV MUL DUP4 MSTORE SWAP2 PUSH1 0x20 ADD SWAP2 PUSH2 0x2769 JUMP JUMPDEST DUP3 ADD SWAP2 SWAP1 PUSH1 0x0 MSTORE PUSH1 0x20 PUSH1 0x0 KECCAK256 SWAP1 JUMPDEST DUP2 SLOAD DUP2 MSTORE SWAP1 PUSH1 0x1 ADD SWAP1 PUSH1 0x20 ADD DUP1 DUP4 GT PUSH2 0x274C JUMPI DUP3 SWAP1 SUB PUSH1 0x1F AND DUP3 ADD SWAP2 JUMPDEST POP POP POP POP POP DUP2 MSTORE PUSH1 0x20 ADD PUSH1 0x3 DUP3 ADD SLOAD DUP2 MSTORE PUSH1 0x20 ADD PUSH1 0x4 DUP3 ADD SLOAD DUP2 MSTORE PUSH1 0x20 ADD PUSH1 0x5 DUP3 ADD PUSH1 0x40 MLOAD DUP1 PUSH1 0x80 ADD PUSH1 0x40 MSTORE SWAP1 DUP2 PUSH1 0x0 DUP3 ADD DUP1 SLOAD PUSH2 0x27A6 SWAP1 PUSH2 0x5CF4 JUMP JUMPDEST DUP1 PUSH1 0x1F ADD PUSH1 0x20 DUP1 SWAP2 DIV MUL PUSH1 0x20 ADD PUSH1 0x40 MLOAD SWAP1 DUP2 ADD PUSH1 0x40 MSTORE DUP1 SWAP3 SWAP2 SWAP1 DUP2 DUP2 MSTORE PUSH1 0x20 ADD DUP3 DUP1 SLOAD PUSH2 0x27D2 SWAP1 PUSH2 0x5CF4 JUMP JUMPDEST DUP1 ISZERO PUSH2 0x281F JUMPI DUP1 PUSH1 0x1F LT PUSH2 0x27F4 JUMPI PUSH2 0x100 DUP1 DUP4 SLOAD DIV MUL DUP4 MSTORE SWAP2 PUSH1 0x20 ADD SWAP2 PUSH2 0x281F JUMP JUMPDEST DUP3 ADD SWAP2 SWAP1 PUSH1 0x0 MSTORE PUSH1 0x20 PUSH1 0x0 KECCAK256 SWAP1 JUMPDEST DUP2 SLOAD DUP2 MSTORE SWAP1 PUSH1 0x1 ADD SWAP1 PUSH1 0x20 ADD DUP1 DUP4 GT PUSH2 0x2802 JUMPI DUP3 SWAP1 SUB PUSH1 0x1F AND DUP3 ADD SWAP2 JUMPDEST POP POP POP POP POP DUP2 MSTORE PUSH1 0x20 ADD PUSH1 0x1 DUP3 ADD DUP1 SLOAD PUSH2 0x2838 SWAP1 PUSH2 0x5CF4 JUMP JUMPDEST DUP1 PUSH1 0x1F ADD PUSH1 0x20 DUP1 SWAP2 DIV MUL PUSH1 0x20 ADD PUSH1 0x40 MLOAD SWAP1 DUP2 ADD PUSH1 0x40 MSTORE DUP1 SWAP3 SWAP2 SWAP1 DUP2 DUP2 MSTORE PUSH1 0x20 ADD DUP3 DUP1 SLOAD PUSH2 0x2864 SWAP1 PUSH2 0x5CF4 JUMP JUMPDEST DUP1 ISZERO PUSH2 0x28B1 JUMPI DUP1 PUSH1 0x1F LT PUSH2 0x2886 JUMPI PUSH2 0x100 DUP1 DUP4 SLOAD DIV MUL DUP4 MSTORE SWAP2 PUSH1 0x20 ADD SWAP2 PUSH2 0x28B1 JUMP JUMPDEST DUP3 ADD SWAP2 SWAP1 PUSH1 0x0 MSTORE PUSH1 0x20 PUSH1 0x0 KECCAK256 SWAP1 JUMPDEST DUP2 SLOAD DUP2 MSTORE SWAP1 PUSH1 0x1 ADD SWAP1 PUSH1 0x20 ADD DUP1 DUP4 GT PUSH2 0x2894 JUMPI DUP3 SWAP1 SUB PUSH1 0x1F AND DUP3 ADD SWAP2 JUMPDEST POP POP POP POP POP DUP2 MSTORE PUSH1 0x20 ADD PUSH1 0x2 DUP3 ADD DUP1 SLOAD PUSH2 0x28CA SWAP1 PUSH2 0x5CF4 JUMP JUMPDEST DUP1 PUSH1 0x1F ADD PUSH1 0x20 DUP1 SWAP2 DIV MUL PUSH1 0x20 ADD PUSH1 0x40 MLOAD SWAP1 DUP2 ADD PUSH1 0x40 MSTORE DUP1 SWAP3 SWAP2 SWAP1 DUP2 DUP2 MSTORE PUSH1 0x20 ADD DUP3 DUP1 SLOAD PUSH2 0x28F6 SWAP1 PUSH2 0x5CF4 JUMP JUMPDEST DUP1 ISZERO PUSH2 0x2943 JUMPI DUP1 PUSH1 0x1F LT PUSH2 0x2918 JUMPI PUSH2 0x100 DUP1 DUP4 SLOAD DIV MUL DUP4 MSTORE SWAP2 PUSH1 0x20 ADD SWAP2 PUSH2 0x2943 JUMP JUMPDEST DUP3 ADD SWAP2 SWAP1 PUSH1 0x0 MSTORE PUSH1 0x20 PUSH1 0x0 KECCAK256 SWAP1 JUMPDEST DUP2 SLOAD DUP2 MSTORE SWAP1 PUSH1 0x1 ADD SWAP1 PUSH1 0x20 ADD DUP1 DUP4 GT PUSH2 0x2926 JUMPI DUP3 SWAP1 SUB PUSH1 0x1F AND DUP3 ADD SWAP2 JUMPDEST POP POP POP POP POP DUP2 MSTORE PUSH1 0x20 ADD PUSH1 0x3 DUP3 ADD DUP1 SLOAD PUSH2 0x295C SWAP1 PUSH2 0x5CF4 JUMP JUMPDEST DUP1 PUSH1 0x1F ADD PUSH1 0x20 DUP1 SWAP2 DIV MUL PUSH1 0x20 ADD PUSH1 0x40 MLOAD SWAP1 DUP2 ADD PUSH1 0x40 MSTORE DUP1 SWAP3 SWAP2 SWAP1 DUP2 DUP2 MSTORE PUSH1 0x20 ADD DUP3 DUP1 SLOAD PUSH2 0x2988 SWAP1 PUSH2 0x5CF4 JUMP JUMPDEST DUP1 ISZERO PUSH2 0x29D5 JUMPI DUP1 PUSH1 0x1F LT PUSH2 0x29AA JUMPI PUSH2 0x100 DUP1 DUP4 SLOAD DIV MUL DUP4 MSTORE SWAP2 PUSH1 0x20 ADD SWAP2 PUSH2 0x29D5 JUMP JUMPDEST DUP3 ADD SWAP2 SWAP1 PUSH1 0x0 MSTORE PUSH1 0x20 PUSH1 0x0 KECCAK256 SWAP1 JUMPDEST DUP2 SLOAD DUP2 MSTORE SWAP1 PUSH1 0x1 ADD SWAP1 PUSH1 0x20 ADD DUP1 DUP4 GT PUSH2 0x29B8 JUMPI DUP3 SWAP1 SUB PUSH1 0x1F AND DUP3 ADD SWAP2 JUMPDEST POP POP POP SWAP2 SWAP1 SWAP3 MSTORE POP POP POP DUP2 MSTORE PUSH1 0x9 DUP3 ADD SLOAD PUSH1 0x1 PUSH1 0x1 PUSH1 0xA0 SHL SUB SWAP1 DUP2 AND PUSH1 0x20 DUP1 DUP5 ADD SWAP2 SWAP1 SWAP2 MSTORE PUSH1 0xA DUP5 ADD SLOAD SWAP2 DUP3 AND PUSH1 0x40 DUP1 DUP6 ADD SWAP2 SWAP1 SWAP2 MSTORE PUSH1 0x1 PUSH1 0xA0 SHL SWAP1 SWAP3 DIV PUSH1 0xFF AND ISZERO ISZERO PUSH1 0x60 DUP1 DUP6 ADD SWAP2 SWAP1 SWAP2 MSTORE DUP3 MLOAD PUSH1 0xB DUP7 ADD DUP1 SLOAD PUSH1 0x80 SWAP5 DUP2 MUL DUP4 ADD DUP6 ADD SWAP1 SWAP6 MSTORE SWAP2 DUP2 ADD DUP5 DUP2 MSTORE SWAP5 DUP4 ADD SWAP5 SWAP1 SWAP4 SWAP2 SWAP3 DUP5 SWAP3 DUP5 SWAP2 DUP5 ADD DUP3 DUP3 DUP1 ISZERO PUSH2 0x2A80 JUMPI PUSH1 0x20 MUL DUP3 ADD SWAP2 SWAP1 PUSH1 0x0 MSTORE PUSH1 0x20 PUSH1 0x0 KECCAK256 SWAP1 JUMPDEST DUP2 SLOAD PUSH1 0x1 PUSH1 0x1 PUSH1 0xA0 SHL SUB AND DUP2 MSTORE PUSH1 0x1 SWAP1 SWAP2 ADD SWAP1 PUSH1 0x20 ADD DUP1 DUP4 GT PUSH2 0x2A62 JUMPI JUMPDEST POP POP POP POP POP DUP2 MSTORE PUSH1 0x20 ADD PUSH1 0x1 DUP3 ADD DUP1 SLOAD DUP1 PUSH1 0x20 MUL PUSH1 0x20 ADD PUSH1 0x40 MLOAD SWAP1 DUP2 ADD PUSH1 0x40 MSTORE DUP1 SWAP3 SWAP2 SWAP1 DUP2 DUP2 MSTORE PUSH1 0x20 ADD DUP3 DUP1 SLOAD DUP1 ISZERO PUSH2 0x2AD8 JUMPI PUSH1 0x20 MUL DUP3 ADD SWAP2 SWAP1 PUSH1 0x0 MSTORE PUSH1 0x20 PUSH1 0x0 KECCAK256 SWAP1 JUMPDEST DUP2 SLOAD DUP2 MSTORE PUSH1 0x20 ADD SWAP1 PUSH1 0x1 ADD SWAP1 DUP1 DUP4 GT PUSH2 0x2AC4 JUMPI JUMPDEST POP POP POP POP POP DUP2 MSTORE PUSH1 0x20 ADD PUSH1 0x2 DUP3 ADD DUP1 SLOAD DUP1 PUSH1 0x20 MUL PUSH1 0x20 ADD PUSH1 0x40 MLOAD SWAP1 DUP2 ADD PUSH1 0x40 MSTORE DUP1 SWAP3 SWAP2 SWAP1 DUP2 DUP2 MSTORE PUSH1 0x20 ADD DUP3 DUP1 SLOAD DUP1 ISZERO PUSH2 0x2B30 JUMPI PUSH1 0x20 MUL DUP3 ADD SWAP2 SWAP1 PUSH1 0x0 MSTORE PUSH1 0x20 PUSH1 0x0 KECCAK256 SWAP1 JUMPDEST DUP2 SLOAD DUP2 MSTORE PUSH1 0x20 ADD SWAP1 PUSH1 0x1 ADD SWAP1 DUP1 DUP4 GT PUSH2 0x2B1C JUMPI JUMPDEST POP POP POP POP POP DUP2 MSTORE POP POP DUP2 MSTORE PUSH1 0x20 ADD PUSH1 0xE DUP3 ADD PUSH1 0x40 MLOAD DUP1 PUSH1 0x80 ADD PUSH1 0x40 MSTORE SWAP1 DUP2 PUSH1 0x0 DUP3 ADD DUP1 SLOAD PUSH2 0x2B5D SWAP1 PUSH2 0x5CF4 JUMP JUMPDEST DUP1 PUSH1 0x1F ADD PUSH1 0x20 DUP1 SWAP2 DIV MUL PUSH1 0x20 ADD PUSH1 0x40 MLOAD SWAP1 DUP2 ADD PUSH1 0x40 MSTORE DUP1 SWAP3 SWAP2 SWAP1 DUP2 DUP2 MSTORE PUSH1 0x20 ADD DUP3 DUP1 SLOAD PUSH2 0x2B89 SWAP1 PUSH2 0x5CF4 JUMP JUMPDEST DUP1 ISZERO PUSH2 0x2BD6 JUMPI DUP1 PUSH1 0x1F LT PUSH2 0x2BAB JUMPI PUSH2 0x100 DUP1 DUP4 SLOAD DIV MUL DUP4 MSTORE SWAP2 PUSH1 0x20 ADD SWAP2 PUSH2 0x2BD6 JUMP JUMPDEST DUP3 ADD SWAP2 SWAP1 PUSH1 0x0 MSTORE PUSH1 0x20 PUSH1 0x0 KECCAK256 SWAP1 JUMPDEST DUP2 SLOAD DUP2 MSTORE SWAP1 PUSH1 0x1 ADD SWAP1 PUSH1 0x20 ADD DUP1 DUP4 GT PUSH2 0x2BB9 JUMPI DUP3 SWAP1 SUB PUSH1 0x1F AND DUP3 ADD SWAP2 JUMPDEST POP POP POP POP POP DUP2 MSTORE PUSH1 0x20 ADD PUSH1 0x1 DUP3 ADD DUP1 SLOAD PUSH2 0x2BEF SWAP1 PUSH2 0x5CF4 JUMP JUMPDEST DUP1 PUSH1 0x1F ADD PUSH1 0x20 DUP1 SWAP2 DIV MUL PUSH1 0x20 ADD PUSH1 0x40 MLOAD SWAP1 DUP2 ADD PUSH1 0x40 MSTORE DUP1 SWAP3 SWAP2 SWAP1 DUP2 DUP2 MSTORE PUSH1 0x20 ADD DUP3 DUP1 SLOAD PUSH2 0x2C1B SWAP1 PUSH2 0x5CF4 JUMP JUMPDEST DUP1 ISZERO PUSH2 0x2C68 JUMPI DUP1 PUSH1 0x1F LT PUSH2 0x2C3D JUMPI PUSH2 0x100 DUP1 DUP4 SLOAD DIV MUL DUP4 MSTORE SWAP2 PUSH1 0x20 ADD SWAP2 PUSH2 0x2C68 JUMP JUMPDEST DUP3 ADD SWAP2 SWAP1 PUSH1 0x0 MSTORE PUSH1 0x20 PUSH1 0x0 KECCAK256 SWAP1 JUMPDEST DUP2 SLOAD DUP2 MSTORE SWAP1 PUSH1 0x1 ADD SWAP1 PUSH1 0x20 ADD DUP1 DUP4 GT PUSH2 0x2C4B JUMPI DUP3 SWAP1 SUB PUSH1 0x1F AND DUP3 ADD SWAP2 JUMPDEST POP POP POP POP POP DUP2 MSTORE PUSH1 0x20 ADD PUSH1 0x2 DUP3 ADD DUP1 SLOAD PUSH2 0x2C81 SWAP1 PUSH2 0x5CF4 JUMP JUMPDEST DUP1 PUSH1 0x1F ADD PUSH1 0x20 DUP1 SWAP2 DIV MUL PUSH1 0x20 ADD PUSH1 0x40 MLOAD SWAP1 DUP2 ADD PUSH1 0x40 MSTORE DUP1 SWAP3 SWAP2 SWAP1 DUP2 DUP2 MSTORE PUSH1 0x20 ADD DUP3 DUP1 SLOAD PUSH2 0x2CAD SWAP1 PUSH2 0x5CF4 JUMP JUMPDEST DUP1 ISZERO PUSH2 0x2CFA JUMPI DUP1 PUSH1 0x1F LT PUSH2 0x2CCF JUMPI PUSH2 0x100 DUP1 DUP4 SLOAD DIV MUL DUP4 MSTORE SWAP2 PUSH1 0x20 ADD SWAP2 PUSH2 0x2CFA JUMP JUMPDEST DUP3 ADD SWAP2 SWAP1 PUSH1 0x0 MSTORE PUSH1 0x20 PUSH1 0x0 KECCAK256 SWAP1 JUMPDEST DUP2 SLOAD DUP2 MSTORE SWAP1 PUSH1 0x1 ADD SWAP1 PUSH1 0x20 ADD DUP1 DUP4 GT PUSH2 0x2CDD JUMPI DUP3 SWAP1 SUB PUSH1 0x1F AND DUP3 ADD SWAP2 JUMPDEST POP POP POP POP POP DUP2 MSTORE PUSH1 0x20 ADD PUSH1 0x3 DUP3 ADD DUP1 SLOAD PUSH2 0x2D13 SWAP1 PUSH2 0x5CF4 JUMP JUMPDEST DUP1 PUSH1 0x1F ADD PUSH1 0x20 DUP1 SWAP2 DIV MUL PUSH1 0x20 ADD PUSH1 0x40 MLOAD SWAP1 DUP2 ADD PUSH1 0x40 MSTORE DUP1 SWAP3 SWAP2 SWAP1 DUP2 DUP2 MSTORE PUSH1 0x20 ADD DUP3 DUP1 SLOAD PUSH2 0x2D3F SWAP1 PUSH2 0x5CF4 JUMP JUMPDEST DUP1 ISZERO PUSH2 0x2D8C JUMPI DUP1 PUSH1 0x1F LT PUSH2 0x2D61 JUMPI PUSH2 0x100 DUP1 DUP4 SLOAD DIV MUL DUP4 MSTORE SWAP2 PUSH1 0x20 ADD SWAP2 PUSH2 0x2D8C JUMP JUMPDEST DUP3 ADD SWAP2 SWAP1 PUSH1 0x0 MSTORE PUSH1 0x20 PUSH1 0x0 KECCAK256 SWAP1 JUMPDEST DUP2 SLOAD DUP2 MSTORE SWAP1 PUSH1 0x1 ADD SWAP1 PUSH1 0x20 ADD DUP1 DUP4 GT PUSH2 0x2D6F JUMPI DUP3 SWAP1 SUB PUSH1 0x1F AND DUP3 ADD SWAP2 JUMPDEST POP POP POP POP POP DUP2 MSTORE POP POP DUP2 MSTORE PUSH1 0x20 ADD PUSH1 0x12 DUP3 ADD PUSH1 0x40 MLOAD DUP1 PUSH1 0xE0 ADD PUSH1 0x40 MSTORE SWAP1 DUP2 PUSH1 0x0 DUP3 ADD DUP1 SLOAD PUSH2 0x2DB9 SWAP1 PUSH2 0x5CF4 JUMP JUMPDEST DUP1 PUSH1 0x1F ADD PUSH1 0x20 DUP1 SWAP2 DIV MUL PUSH1 0x20 ADD PUSH1 0x40 MLOAD SWAP1 DUP2 ADD PUSH1 0x40 MSTORE DUP1 SWAP3 SWAP2 SWAP1 DUP2 DUP2 MSTORE PUSH1 0x20 ADD DUP3 DUP1 SLOAD PUSH2 0x2DE5 SWAP1 PUSH2 0x5CF4 JUMP JUMPDEST DUP1 ISZERO PUSH2 0x2E32 JUMPI DUP1 PUSH1 0x1F LT PUSH2 0x2E07 JUMPI PUSH2 0x100 DUP1 DUP4 SLOAD DIV MUL DUP4 MSTORE SWAP2 PUSH1 0x20 ADD SWAP2 PUSH2 0x2E32 JUMP JUMPDEST DUP3 ADD SWAP2 SWAP1 PUSH1 0x0 MSTORE PUSH1 0x20 PUSH1 0x0 KECCAK256 SWAP1 JUMPDEST DUP2 SLOAD DUP2 MSTORE SWAP1 PUSH1 0x1 ADD SWAP1 PUSH1 0x20 ADD DUP1 DUP4 GT PUSH2 0x2E15 JUMPI DUP3 SWAP1 SUB PUSH1 0x1F AND DUP3 ADD SWAP2 JUMPDEST POP POP POP POP POP DUP2 MSTORE PUSH1 0x20 ADD PUSH1 0x1 DUP3 ADD DUP1 SLOAD DUP1 PUSH1 0x20 MUL PUSH1 0x20 ADD PUSH1 0x40 MLOAD SWAP1 DUP2 ADD PUSH1 0x40 MSTORE DUP1 SWAP3 SWAP2 SWAP1 DUP2 DUP2 MSTORE PUSH1 0x20 ADD PUSH1 0x0 SWAP1 JUMPDEST DUP3 DUP3 LT ISZERO PUSH2 0x2F0C JUMPI DUP4 DUP3 SWAP1 PUSH1 0x0 MSTORE PUSH1 0x20 PUSH1 0x0 KECCAK256 ADD DUP1 SLOAD PUSH2 0x2E7F SWAP1 PUSH2 0x5CF4 JUMP JUMPDEST DUP1 PUSH1 0x1F ADD PUSH1 0x20 DUP1 SWAP2 DIV MUL PUSH1 0x20 ADD PUSH1 0x40 MLOAD SWAP1 DUP2 ADD PUSH1 0x40 MSTORE DUP1 SWAP3 SWAP2 SWAP1 DUP2 DUP2 MSTORE PUSH1 0x20 ADD DUP3 DUP1 SLOAD PUSH2 0x2EAB SWAP1 PUSH2 0x5CF4 JUMP JUMPDEST DUP1 ISZERO PUSH2 0x2EF8 JUMPI DUP1 PUSH1 0x1F LT PUSH2 0x2ECD JUMPI PUSH2 0x100 DUP1 DUP4 SLOAD DIV MUL DUP4 MSTORE SWAP2 PUSH1 0x20 ADD SWAP2 PUSH2 0x2EF8 JUMP JUMPDEST DUP3 ADD SWAP2 SWAP1 PUSH1 0x0 MSTORE PUSH1 0x20 PUSH1 0x0 KECCAK256 SWAP1 JUMPDEST DUP2 SLOAD DUP2 MSTORE SWAP1 PUSH1 0x1 ADD SWAP1 PUSH1 0x20 ADD DUP1 DUP4 GT PUSH2 0x2EDB JUMPI DUP3 SWAP1 SUB PUSH1 0x1F AND DUP3 ADD SWAP2 JUMPDEST POP POP POP POP POP DUP2 MSTORE PUSH1 0x20 ADD SWAP1 PUSH1 0x1 ADD SWAP1 PUSH2 0x2E60 JUMP JUMPDEST POP POP POP POP DUP2 MSTORE PUSH1 0x20 ADD PUSH1 0x2 DUP3 ADD DUP1 SLOAD PUSH2 0x2F24 SWAP1 PUSH2 0x5CF4 JUMP JUMPDEST DUP1 PUSH1 0x1F ADD PUSH1 0x20 DUP1 SWAP2 DIV MUL PUSH1 0x20 ADD PUSH1 0x40 MLOAD SWAP1 DUP2 ADD PUSH1 0x40 MSTORE DUP1 SWAP3 SWAP2 SWAP1 DUP2 DUP2 MSTORE PUSH1 0x20 ADD DUP3 DUP1 SLOAD PUSH2 0x2F50 SWAP1 PUSH2 0x5CF4 JUMP JUMPDEST DUP1 ISZERO PUSH2 0x2F9D JUMPI DUP1 PUSH1 0x1F LT PUSH2 0x2F72 JUMPI PUSH2 0x100 DUP1 DUP4 SLOAD DIV MUL DUP4 MSTORE SWAP2 PUSH1 0x20 ADD SWAP2 PUSH2 0x2F9D JUMP JUMPDEST DUP3 ADD SWAP2 SWAP1 PUSH1 0x0 MSTORE PUSH1 0x20 PUSH1 0x0 KECCAK256 SWAP1 JUMPDEST DUP2 SLOAD DUP2 MSTORE SWAP1 PUSH1 0x1 ADD SWAP1 PUSH1 0x20 ADD DUP1 DUP4 GT PUSH2 0x2F80 JUMPI DUP3 SWAP1 SUB PUSH1 0x1F AND DUP3 ADD SWAP2 JUMPDEST POP POP POP POP POP DUP2 MSTORE PUSH1 0x20 ADD PUSH1 0x3 DUP3 ADD DUP1 SLOAD PUSH2 0x2FB6 SWAP1 PUSH2 0x5CF4 JUMP JUMPDEST DUP1 PUSH1 0x1F ADD PUSH1 0x20 DUP1 SWAP2 DIV MUL PUSH1 0x20 ADD PUSH1 0x40 MLOAD SWAP1 DUP2 ADD PUSH1 0x40 MSTORE DUP1 SWAP3 SWAP2 SWAP1 DUP2 DUP2 MSTORE PUSH1 0x20 ADD DUP3 DUP1 SLOAD PUSH2 0x2FE2 SWAP1 PUSH2 0x5CF4 JUMP JUMPDEST DUP1 ISZERO PUSH2 0x302F JUMPI DUP1 PUSH1 0x1F LT PUSH2 0x3004 JUMPI PUSH2 0x100 DUP1 DUP4 SLOAD DIV MUL DUP4 MSTORE SWAP2 PUSH1 0x20 ADD SWAP2 PUSH2 0x302F JUMP JUMPDEST DUP3 ADD SWAP2 SWAP1 PUSH1 0x0 MSTORE PUSH1 0x20 PUSH1 0x0 KECCAK256 SWAP1 JUMPDEST DUP2 SLOAD DUP2 MSTORE SWAP1 PUSH1 0x1 ADD SWAP1 PUSH1 0x20 ADD DUP1 DUP4 GT PUSH2 0x3012 JUMPI DUP3 SWAP1 SUB PUSH1 0x1F AND DUP3 ADD SWAP2 JUMPDEST POP POP POP POP POP DUP2 MSTORE PUSH1 0x20 ADD PUSH1 0x4 DUP3 ADD DUP1 SLOAD PUSH2 0x3048 SWAP1 PUSH2 0x5CF4 JUMP JUMPDEST DUP1 PUSH1 0x1F ADD PUSH1 0x20 DUP1 SWAP2 DIV MUL PUSH1 0x20 ADD PUSH1 0x40 MLOAD SWAP1 DUP2 ADD PUSH1 0x40 MSTORE DUP1 SWAP3 SWAP2 SWAP1 DUP2 DUP2 MSTORE PUSH1 0x20 ADD DUP3 DUP1 SLOAD PUSH2 0x3074 SWAP1 PUSH2 0x5CF4 JUMP JUMPDEST DUP1 ISZERO PUSH2 0x30C1 JUMPI DUP1 PUSH1 0x1F LT PUSH2 0x3096 JUMPI PUSH2 0x100 DUP1 DUP4 SLOAD DIV MUL DUP4 MSTORE SWAP2 PUSH1 0x20 ADD SWAP2 PUSH2 0x30C1 JUMP JUMPDEST DUP3 ADD SWAP2 SWAP1 PUSH1 0x0 MSTORE PUSH1 0x20 PUSH1 0x0 KECCAK256 SWAP1 JUMPDEST DUP2 SLOAD DUP2 MSTORE SWAP1 PUSH1 0x1 ADD SWAP1 PUSH1 0x20 ADD DUP1 DUP4 GT PUSH2 0x30A4 JUMPI DUP3 SWAP1 SUB PUSH1 0x1F AND DUP3 ADD SWAP2 JUMPDEST POP POP POP POP POP DUP2 MSTORE PUSH1 0x20 ADD PUSH1 0x5 DUP3 ADD DUP1 SLOAD PUSH2 0x30DA SWAP1 PUSH2 0x5CF4 JUMP JUMPDEST DUP1 PUSH1 0x1F ADD PUSH1 0x20 DUP1 SWAP2 DIV MUL PUSH1 0x20 ADD PUSH1 0x40 MLOAD SWAP1 DUP2 ADD PUSH1 0x40 MSTORE DUP1 SWAP3 SWAP2 SWAP1 DUP2 DUP2 MSTORE PUSH1 0x20 ADD DUP3 DUP1 SLOAD PUSH2 0x3106 SWAP1 PUSH2 0x5CF4 JUMP JUMPDEST DUP1 ISZERO PUSH2 0x3153 JUMPI DUP1 PUSH1 0x1F LT PUSH2 0x3128 JUMPI PUSH2 0x100 DUP1 DUP4 SLOAD DIV MUL DUP4 MSTORE SWAP2 PUSH1 0x20 ADD SWAP2 PUSH2 0x3153 JUMP JUMPDEST DUP3 ADD SWAP2 SWAP1 PUSH1 0x0 MSTORE PUSH1 0x20 PUSH1 0x0 KECCAK256 SWAP1 JUMPDEST DUP2 SLOAD DUP2 MSTORE SWAP1 PUSH1 0x1 ADD SWAP1 PUSH1 0x20 ADD DUP1 DUP4 GT PUSH2 0x3136 JUMPI DUP3 SWAP1 SUB PUSH1 0x1F AND DUP3 ADD SWAP2 JUMPDEST POP POP POP SWAP2 DUP4 MSTORE POP POP PUSH1 0x6 SWAP2 SWAP1 SWAP2 ADD SLOAD PUSH1 0xFF AND ISZERO ISZERO PUSH1 0x20 SWAP1 SWAP2 ADD MSTORE SWAP1 MSTORE POP DUP5 MLOAD DUP6 SWAP1 DUP8 SWAP1 DUP2 LT PUSH2 0x3184 JUMPI PUSH2 0x3184 PUSH2 0x5D84 JUMP JUMPDEST PUSH1 0x20 SWAP1 DUP2 MUL SWAP2 SWAP1 SWAP2 ADD ADD MSTORE PUSH2 0x319A PUSH1 0x1 DUP7 PUSH2 0x5C66 JUMP JUMPDEST SWAP5 POP POP POP JUMPDEST DUP1 PUSH2 0x31A9 DUP2 PUSH2 0x5D29 JUMP JUMPDEST SWAP2 POP POP PUSH2 0x25D6 JUMP JUMPDEST PUSH1 0x0 DUP2 DUP2 MSTORE PUSH1 0x2 PUSH1 0x20 MSTORE PUSH1 0x40 DUP2 KECCAK256 SLOAD PUSH1 0x1 PUSH1 0x1 PUSH1 0xA0 SHL SUB AND DUP1 PUSH2 0x44D JUMPI PUSH1 0x40 MLOAD PUSH3 0x461BCD PUSH1 0xE5 SHL DUP2 MSTORE PUSH1 0x20 PUSH1 0x4 DUP3 ADD MSTORE PUSH1 0x18 PUSH1 0x24 DUP3 ADD MSTORE PUSH24 0x115490CDCC8C4E881A5B9D985B1A59081D1BDAD95B881251 PUSH1 0x42 SHL PUSH1 0x44 DUP3 ADD MSTORE PUSH1 0x64 ADD PUSH2 0x581 JUMP JUMPDEST PUSH1 0x0 PUSH1 0x1 PUSH1 0x1 PUSH1 0xA0 SHL SUB DUP3 AND PUSH2 0x327B JUMPI PUSH1 0x40 MLOAD PUSH3 0x461BCD PUSH1 0xE5 SHL DUP2 MSTORE PUSH1 0x20 PUSH1 0x4 DUP3 ADD MSTORE PUSH1 0x29 PUSH1 0x24 DUP3 ADD MSTORE PUSH32 0x4552433732313A2061646472657373207A65726F206973206E6F742061207661 PUSH1 0x44 DUP3 ADD MSTORE PUSH9 0x3634B21037BBB732B9 PUSH1 0xB9 SHL PUSH1 0x64 DUP3 ADD MSTORE PUSH1 0x84 ADD PUSH2 0x581 JUMP JUMPDEST POP PUSH1 0x1 PUSH1 0x1 PUSH1 0xA0 SHL SUB AND PUSH1 0x0 SWAP1 DUP2 MSTORE PUSH1 0x3 PUSH1 0x20 MSTORE PUSH1 0x40 SWAP1 KECCAK256 SLOAD SWAP1 JUMP JUMPDEST PUSH1 0x2 PUSH1 0x6 SLOAD EQ ISZERO PUSH2 0x32EA JUMPI PUSH1 0x40 MLOAD PUSH3 0x461BCD PUSH1 0xE5 SHL DUP2 MSTORE PUSH1 0x20 PUSH1 0x4 DUP3 ADD MSTORE PUSH1 0x1F PUSH1 0x24 DUP3 ADD MSTORE PUSH32 0x5265656E7472616E637947756172643A207265656E7472616E742063616C6C00 PUSH1 0x44 DUP3 ADD MSTORE PUSH1 0x64 ADD PUSH2 0x581 JUMP JUMPDEST PUSH1 0x2 PUSH1 0x6 SSTORE DUP1 ISZERO DUP1 ISZERO SWAP1 PUSH2 0x3300 JUMPI POP PUSH1 0x7 SLOAD DUP2 GT ISZERO JUMPDEST PUSH2 0x331C JUMPI PUSH1 0x40 MLOAD PUSH3 0x461BCD PUSH1 0xE5 SHL DUP2 MSTORE PUSH1 0x4 ADD PUSH2 0x581 SWAP1 PUSH2 0x5AD7 JUMP JUMPDEST PUSH1 0x0 DUP2 DUP2 MSTORE PUSH1 0x9 PUSH1 0x20 MSTORE PUSH1 0x40 SWAP1 KECCAK256 PUSH1 0x3 DUP2 ADD SLOAD CALLVALUE LT ISZERO PUSH2 0x337E JUMPI PUSH1 0x40 MLOAD PUSH3 0x461BCD PUSH1 0xE5 SHL DUP2 MSTORE PUSH1 0x20 PUSH1 0x4 DUP3 ADD MSTORE PUSH1 0x19 PUSH1 0x24 DUP3 ADD MSTORE PUSH32 0x4E6F7420656E6F756768204D415449432070726F766964656400000000000000 PUSH1 0x44 DUP3 ADD MSTORE PUSH1 0x64 ADD PUSH2 0x581 JUMP JUMPDEST PUSH1 0xA DUP2 ADD SLOAD PUSH1 0x1 PUSH1 0xA0 SHL SWAP1 DIV PUSH1 0xFF AND PUSH2 0x33D9 JUMPI PUSH1 0x40 MLOAD PUSH3 0x461BCD PUSH1 0xE5 SHL DUP2 MSTORE PUSH1 0x20 PUSH1 0x4 DUP3 ADD MSTORE PUSH1 0x1E PUSH1 0x24 DUP3 ADD MSTORE PUSH32 0x536F6E67206973206E6F7420617661696C61626C6520666F722073616C650000 PUSH1 0x44 DUP3 ADD MSTORE PUSH1 0x64 ADD PUSH2 0x581 JUMP JUMPDEST PUSH1 0xA DUP2 ADD SLOAD PUSH1 0x1 PUSH1 0x1 PUSH1 0xA0 SHL SUB AND CALLER EQ ISZERO PUSH2 0x3440 JUMPI PUSH1 0x40 MLOAD PUSH3 0x461BCD PUSH1 0xE5 SHL DUP2 MSTORE PUSH1 0x20 PUSH1 0x4 DUP3 ADD MSTORE PUSH1 0x21 PUSH1 0x24 DUP3 ADD MSTORE PUSH32 0x596F752063616E6E6F7420707572636861736520796F7572206F776E20736F6E PUSH1 0x44 DUP3 ADD MSTORE PUSH1 0x67 PUSH1 0xF8 SHL PUSH1 0x64 DUP3 ADD MSTORE PUSH1 0x84 ADD PUSH2 0x581 JUMP JUMPDEST PUSH1 0xA DUP2 ADD DUP1 SLOAD PUSH1 0xB DUP4 ADD DUP1 SLOAD PUSH1 0x1 DUP2 DUP2 ADD DUP4 SSTORE PUSH1 0x0 SWAP3 DUP4 MSTORE PUSH1 0x20 DUP1 DUP5 KECCAK256 SWAP1 SWAP3 ADD DUP1 SLOAD PUSH1 0x1 PUSH1 0x1 PUSH1 0xA0 SHL SUB NOT AND PUSH1 0x1 PUSH1 0x1 PUSH1 0xA0 SHL SUB SWAP6 DUP7 AND OR SWAP1 SSTORE PUSH1 0x3 DUP7 ADD SLOAD PUSH1 0xC DUP8 ADD DUP1 SLOAD DUP1 DUP5 ADD DUP3 SSTORE SWAP1 DUP6 MSTORE DUP4 DUP6 KECCAK256 ADD SSTORE PUSH1 0xD DUP7 ADD DUP1 SLOAD SWAP2 DUP3 ADD DUP2 SSTORE DUP4 MSTORE SWAP2 KECCAK256 TIMESTAMP SWAP2 ADD SSTORE PUSH1 0x9 DUP4 ADD SLOAD SWAP2 SLOAD DUP2 AND SWAP2 AND EQ ISZERO PUSH2 0x352A JUMPI PUSH1 0xA DUP2 ADD SLOAD PUSH1 0x40 MLOAD PUSH1 0x1 PUSH1 0x1 PUSH1 0xA0 SHL SUB SWAP1 SWAP2 AND SWAP1 CALLVALUE DUP1 ISZERO PUSH2 0x8FC MUL SWAP2 PUSH1 0x0 DUP2 DUP2 DUP2 DUP6 DUP9 DUP9 CALL SWAP4 POP POP POP POP ISZERO DUP1 ISZERO PUSH2 0x34F1 JUMPI RETURNDATASIZE PUSH1 0x0 DUP1 RETURNDATACOPY RETURNDATASIZE PUSH1 0x0 REVERT JUMPDEST POP PUSH1 0x40 MLOAD CALLVALUE DUP2 MSTORE PUSH32 0x65C6D8FBA61178D7D13F40F93101DC43462B1C7B157B0425857039999938E5F7 SWAP1 PUSH1 0x20 ADD PUSH1 0x40 MLOAD DUP1 SWAP2 SUB SWAP1 LOG1 PUSH2 0x365B JUMP JUMPDEST PUSH1 0x0 PUSH2 0x3542 PUSH1 0x64 PUSH2 0x353C CALLVALUE PUSH1 0x5E PUSH2 0x46EE JUMP JUMPDEST SWAP1 PUSH2 0x46FA JUMP JUMPDEST PUSH1 0xA DUP4 ADD SLOAD PUSH1 0x40 MLOAD SWAP2 SWAP3 POP PUSH1 0x1 PUSH1 0x1 PUSH1 0xA0 SHL SUB AND SWAP1 DUP3 ISZERO PUSH2 0x8FC MUL SWAP1 DUP4 SWAP1 PUSH1 0x0 DUP2 DUP2 DUP2 DUP6 DUP9 DUP9 CALL SWAP4 POP POP POP POP ISZERO DUP1 ISZERO PUSH2 0x357F JUMPI RETURNDATASIZE PUSH1 0x0 DUP1 RETURNDATACOPY RETURNDATASIZE PUSH1 0x0 REVERT JUMPDEST POP PUSH1 0x0 PUSH2 0x3592 PUSH1 0x64 PUSH2 0x353C CALLVALUE PUSH1 0x5 PUSH2 0x46EE JUMP JUMPDEST PUSH1 0x9 DUP5 ADD SLOAD PUSH1 0x40 MLOAD SWAP2 SWAP3 POP PUSH1 0x1 PUSH1 0x1 PUSH1 0xA0 SHL SUB AND SWAP1 DUP3 ISZERO PUSH2 0x8FC MUL SWAP1 DUP4 SWAP1 PUSH1 0x0 DUP2 DUP2 DUP2 DUP6 DUP9 DUP9 CALL SWAP4 POP POP POP POP ISZERO DUP1 ISZERO PUSH2 0x35CF JUMPI RETURNDATASIZE PUSH1 0x0 DUP1 RETURNDATACOPY RETURNDATASIZE PUSH1 0x0 REVERT JUMPDEST POP PUSH1 0x0 PUSH2 0x35E2 PUSH1 0x64 PUSH2 0x353C CALLVALUE PUSH1 0x1 PUSH2 0x46EE JUMP JUMPDEST PUSH1 0x8 SLOAD PUSH1 0x40 MLOAD SWAP2 SWAP3 POP PUSH1 0x1 PUSH1 0x1 PUSH1 0xA0 SHL SUB AND SWAP1 DUP3 ISZERO PUSH2 0x8FC MUL SWAP1 DUP4 SWAP1 PUSH1 0x0 DUP2 DUP2 DUP2 DUP6 DUP9 DUP9 CALL SWAP4 POP POP POP POP ISZERO DUP1 ISZERO PUSH2 0x361D JUMPI RETURNDATASIZE PUSH1 0x0 DUP1 RETURNDATACOPY RETURNDATASIZE PUSH1 0x0 REVERT JUMPDEST POP PUSH1 0x40 DUP1 MLOAD DUP5 DUP2 MSTORE PUSH1 0x20 DUP2 ADD DUP5 SWAP1 MSTORE PUSH32 0x5C1CC83FBC8E7A522BF0644CACFEC8391F6AB9A547C34594A325A98733254815 SWAP2 ADD PUSH1 0x40 MLOAD DUP1 SWAP2 SUB SWAP1 LOG1 POP POP POP JUMPDEST PUSH1 0xA DUP2 ADD SLOAD PUSH2 0x3674 SWAP1 PUSH1 0x1 PUSH1 0x1 PUSH1 0xA0 SHL SUB AND CALLER DUP5 PUSH2 0x4538 JUMP JUMPDEST PUSH1 0xA DUP2 ADD DUP1 SLOAD PUSH1 0x1 PUSH1 0x1 PUSH1 0xA0 SHL SUB NOT AND CALLER OR SWAP1 SSTORE PUSH1 0x3 DUP2 ADD SLOAD PUSH2 0x369F SWAP1 PUSH1 0x64 SWAP1 PUSH2 0x353C SWAP1 PUSH1 0x78 PUSH2 0x46EE JUMP JUMPDEST PUSH1 0x3 DUP3 ADD SSTORE PUSH1 0x0 DUP3 DUP2 MSTORE PUSH1 0x9 PUSH1 0x20 MSTORE PUSH1 0x40 SWAP1 KECCAK256 DUP2 SLOAD DUP2 SSTORE PUSH1 0x1 DUP1 DUP4 ADD DUP1 SLOAD DUP5 SWAP4 SWAP3 DUP4 ADD SWAP2 SWAP1 PUSH2 0x36CD SWAP1 PUSH2 0x5CF4 JUMP JUMPDEST PUSH2 0x36D8 SWAP3 SWAP2 SWAP1 PUSH2 0x4E1B JUMP JUMPDEST POP PUSH1 0x2 DUP3 ADD DUP2 PUSH1 0x2 ADD SWAP1 DUP1 SLOAD PUSH2 0x36ED SWAP1 PUSH2 0x5CF4 JUMP JUMPDEST PUSH2 0x36F8 SWAP3 SWAP2 SWAP1 PUSH2 0x4E1B JUMP JUMPDEST POP PUSH1 0x3 DUP3 ADD SLOAD DUP2 PUSH1 0x3 ADD SSTORE PUSH1 0x4 DUP3 ADD SLOAD DUP2 PUSH1 0x4 ADD SSTORE PUSH1 0x5 DUP3 ADD DUP2 PUSH1 0x5 ADD PUSH1 0x0 DUP3 ADD DUP2 PUSH1 0x0 ADD SWAP1 DUP1 SLOAD PUSH2 0x3729 SWAP1 PUSH2 0x5CF4 JUMP JUMPDEST PUSH2 0x3734 SWAP3 SWAP2 SWAP1 PUSH2 0x4E1B JUMP JUMPDEST POP PUSH1 0x1 DUP3 ADD DUP2 PUSH1 0x1 ADD SWAP1 DUP1 SLOAD PUSH2 0x3749 SWAP1 PUSH2 0x5CF4 JUMP JUMPDEST PUSH2 0x3754 SWAP3 SWAP2 SWAP1 PUSH2 0x4E1B JUMP JUMPDEST POP PUSH1 0x2 DUP3 ADD DUP2 PUSH1 0x2 ADD SWAP1 DUP1 SLOAD PUSH2 0x3769 SWAP1 PUSH2 0x5CF4 JUMP JUMPDEST PUSH2 0x3774 SWAP3 SWAP2 SWAP1 PUSH2 0x4E1B JUMP JUMPDEST POP PUSH1 0x3 DUP3 ADD DUP2 PUSH1 0x3 ADD SWAP1 DUP1 SLOAD PUSH2 0x3789 SWAP1 PUSH2 0x5CF4 JUMP JUMPDEST PUSH2 0x3794 SWAP3 SWAP2 SWAP1 PUSH2 0x4E1B JUMP JUMPDEST POP POP POP PUSH1 0x9 DUP3 DUP2 ADD SLOAD SWAP1 DUP3 ADD DUP1 SLOAD PUSH1 0x1 PUSH1 0x1 PUSH1 0xA0 SHL SUB NOT SWAP1 DUP2 AND PUSH1 0x1 PUSH1 0x1 PUSH1 0xA0 SHL SUB SWAP4 DUP5 AND OR SWAP1 SWAP2 SSTORE PUSH1 0xA DUP1 DUP6 ADD DUP1 SLOAD SWAP2 DUP6 ADD DUP1 SLOAD SWAP4 DUP5 AND SWAP3 SWAP1 SWAP5 AND SWAP2 DUP3 OR DUP5 SSTORE SLOAD PUSH1 0xFF PUSH1 0x1 PUSH1 0xA0 SHL SWAP2 DUP3 SWAP1 DIV AND ISZERO ISZERO MUL PUSH1 0x1 PUSH1 0x1 PUSH1 0xA8 SHL SUB NOT SWAP1 SWAP3 AND OR OR SWAP1 SSTORE PUSH1 0xB DUP1 DUP4 ADD DUP1 SLOAD SWAP1 SWAP2 DUP4 ADD SWAP1 PUSH2 0x380E SWAP1 DUP3 SWAP1 DUP5 SWAP1 PUSH2 0x4E96 JUMP JUMPDEST POP PUSH1 0x1 DUP3 DUP2 ADD DUP1 SLOAD PUSH2 0x3823 SWAP3 DUP5 ADD SWAP2 SWAP1 PUSH2 0x4E96 JUMP JUMPDEST POP PUSH1 0x2 DUP3 DUP2 ADD DUP1 SLOAD PUSH2 0x3838 SWAP3 DUP5 ADD SWAP2 SWAP1 PUSH2 0x4E96 JUMP JUMPDEST POP POP POP PUSH1 0xE DUP3 ADD DUP2 PUSH1 0xE ADD PUSH1 0x0 DUP3 ADD DUP2 PUSH1 0x0 ADD SWAP1 DUP1 SLOAD PUSH2 0x3857 SWAP1 PUSH2 0x5CF4 JUMP JUMPDEST PUSH2 0x3862 SWAP3 SWAP2 SWAP1 PUSH2 0x4E1B JUMP JUMPDEST POP PUSH1 0x1 DUP3 ADD DUP2 PUSH1 0x1 ADD SWAP1 DUP1 SLOAD PUSH2 0x3877 SWAP1 PUSH2 0x5CF4 JUMP JUMPDEST PUSH2 0x3882 SWAP3 SWAP2 SWAP1 PUSH2 0x4E1B JUMP JUMPDEST POP PUSH1 0x2 DUP3 ADD DUP2 PUSH1 0x2 ADD SWAP1 DUP1 SLOAD PUSH2 0x3897 SWAP1 PUSH2 0x5CF4 JUMP JUMPDEST PUSH2 0x38A2 SWAP3 SWAP2 SWAP1 PUSH2 0x4E1B JUMP JUMPDEST POP PUSH1 0x3 DUP3 ADD DUP2 PUSH1 0x3 ADD SWAP1 DUP1 SLOAD PUSH2 0x38B7 SWAP1 PUSH2 0x5CF4 JUMP JUMPDEST PUSH2 0x38C2 SWAP3 SWAP2 SWAP1 PUSH2 0x4E1B JUMP JUMPDEST POP POP POP PUSH1 0x12 DUP3 ADD DUP2 PUSH1 0x12 ADD PUSH1 0x0 DUP3 ADD DUP2 PUSH1 0x0 ADD SWAP1 DUP1 SLOAD PUSH2 0x38E1 SWAP1 PUSH2 0x5CF4 JUMP JUMPDEST PUSH2 0x38EC SWAP3 SWAP2 SWAP1 PUSH2 0x4E1B JUMP JUMPDEST POP PUSH1 0x1 DUP3 DUP2 ADD DUP1 SLOAD PUSH2 0x3901 SWAP3 DUP5 ADD SWAP2 SWAP1 PUSH2 0x4ED5 JUMP JUMPDEST POP PUSH1 0x2 DUP3 ADD DUP2 PUSH1 0x2 ADD SWAP1 DUP1 SLOAD PUSH2 0x3916 SWAP1 PUSH2 0x5CF4 JUMP JUMPDEST PUSH2 0x3921 SWAP3 SWAP2 SWAP1 PUSH2 0x4E1B JUMP JUMPDEST POP PUSH1 0x3 DUP3 ADD DUP2 PUSH1 0x3 ADD SWAP1 DUP1 SLOAD PUSH2 0x3936 SWAP1 PUSH2 0x5CF4 JUMP JUMPDEST PUSH2 0x3941 SWAP3 SWAP2 SWAP1 PUSH2 0x4E1B JUMP JUMPDEST POP PUSH1 0x4 DUP3 ADD DUP2 PUSH1 0x4 ADD SWAP1 DUP1 SLOAD PUSH2 0x3956 SWAP1 PUSH2 0x5CF4 JUMP JUMPDEST PUSH2 0x3961 SWAP3 SWAP2 SWAP1 PUSH2 0x4E1B JUMP JUMPDEST POP PUSH1 0x5 DUP3 ADD DUP2 PUSH1 0x5 ADD SWAP1 DUP1 SLOAD PUSH2 0x3976 SWAP1 PUSH2 0x5CF4 JUMP JUMPDEST PUSH2 0x3981 SWAP3 SWAP2 SWAP1 PUSH2 0x4E1B JUMP JUMPDEST POP PUSH1 0x6 SWAP2 DUP3 ADD SLOAD SWAP2 ADD DUP1 SLOAD PUSH1 0xFF NOT AND PUSH1 0xFF SWAP3 DUP4 AND ISZERO ISZERO OR SWAP1 SSTORE PUSH1 0x7 SLOAD PUSH1 0x3 DUP6 ADD SLOAD PUSH1 0x9 DUP7 ADD SLOAD PUSH1 0xA DUP8 ADD SLOAD PUSH1 0x40 MLOAD PUSH32 0x30C844A06FA0A42A14BE9BE128319DB44E764EE66DEBB78BAACFF0F327AD926E SWAP8 POP PUSH2 0x3A03 SWAP7 POP SWAP4 SWAP5 PUSH1 0x1 DUP10 ADD SWAP5 PUSH1 0x2 DUP11 ADD SWAP5 SWAP4 PUSH1 0x1 PUSH1 0x1 PUSH1 0xA0 SHL SUB SWAP1 DUP2 AND SWAP4 SWAP1 DUP2 AND SWAP3 PUSH1 0x1 PUSH1 0xA0 SHL SWAP1 SWAP2 DIV AND SWAP1 PUSH2 0x5B8E JUMP JUMPDEST PUSH1 0x40 MLOAD DUP1 SWAP2 SUB SWAP1 LOG1 POP POP PUSH1 0x1 PUSH1 0x6 SSTORE JUMP JUMPDEST PUSH1 0x0 DUP3 GT DUP1 ISZERO PUSH2 0x3A26 JUMPI POP PUSH1 0x7 SLOAD DUP3 GT ISZERO JUMPDEST PUSH2 0x3A42 JUMPI PUSH1 0x40 MLOAD PUSH3 0x461BCD PUSH1 0xE5 SHL DUP2 MSTORE PUSH1 0x4 ADD PUSH2 0x581 SWAP1 PUSH2 0x5AD7 JUMP JUMPDEST PUSH1 0x0 DUP3 DUP2 MSTORE PUSH1 0x9 PUSH1 0x20 MSTORE PUSH1 0x40 SWAP1 KECCAK256 PUSH1 0xA DUP2 ADD SLOAD PUSH1 0x1 PUSH1 0x1 PUSH1 0xA0 SHL SUB AND CALLER EQ PUSH2 0x3AC0 JUMPI PUSH1 0x40 MLOAD PUSH3 0x461BCD PUSH1 0xE5 SHL DUP2 MSTORE PUSH1 0x20 PUSH1 0x4 DUP3 ADD MSTORE PUSH1 0x2B PUSH1 0x24 DUP3 ADD MSTORE PUSH32 0x4F6E6C79207468652063757272656E74206F776E65722063616E207570646174 PUSH1 0x44 DUP3 ADD MSTORE PUSH11 0x6520746865207072696365 PUSH1 0xA8 SHL PUSH1 0x64 DUP3 ADD MSTORE PUSH1 0x84 ADD PUSH2 0x581 JUMP JUMPDEST PUSH1 0x3 DUP2 ADD DUP3 SWAP1 SSTORE PUSH1 0x0 DUP4 DUP2 MSTORE PUSH1 0x9 PUSH1 0x20 MSTORE PUSH1 0x40 SWAP1 KECCAK256 DUP2 SLOAD DUP2 SSTORE PUSH1 0x1 DUP1 DUP4 ADD DUP1 SLOAD DUP5 SWAP4 SWAP3 DUP4 ADD SWAP2 SWAP1 PUSH2 0x3AF0 SWAP1 PUSH2 0x5CF4 JUMP JUMPDEST PUSH2 0x3AFB SWAP3 SWAP2 SWAP1 PUSH2 0x4E1B JUMP JUMPDEST POP PUSH1 0x2 DUP3 ADD DUP2 PUSH1 0x2 ADD SWAP1 DUP1 SLOAD PUSH2 0x3B10 SWAP1 PUSH2 0x5CF4 JUMP JUMPDEST PUSH2 0x3B1B SWAP3 SWAP2 SWAP1 PUSH2 0x4E1B JUMP JUMPDEST POP PUSH1 0x3 DUP3 ADD SLOAD DUP2 PUSH1 0x3 ADD SSTORE PUSH1 0x4 DUP3 ADD SLOAD DUP2 PUSH1 0x4 ADD SSTORE PUSH1 0x5 DUP3 ADD DUP2 PUSH1 0x5 ADD PUSH1 0x0 DUP3 ADD DUP2 PUSH1 0x0 ADD SWAP1 DUP1 SLOAD PUSH2 0x3B4C SWAP1 PUSH2 0x5CF4 JUMP JUMPDEST PUSH2 0x3B57 SWAP3 SWAP2 SWAP1 PUSH2 0x4E1B JUMP JUMPDEST POP PUSH1 0x1 DUP3 ADD DUP2 PUSH1 0x1 ADD SWAP1 DUP1 SLOAD PUSH2 0x3B6C SWAP1 PUSH2 0x5CF4 JUMP JUMPDEST PUSH2 0x3B77 SWAP3 SWAP2 SWAP1 PUSH2 0x4E1B JUMP JUMPDEST POP PUSH1 0x2 DUP3 ADD DUP2 PUSH1 0x2 ADD SWAP1 DUP1 SLOAD PUSH2 0x3B8C SWAP1 PUSH2 0x5CF4 JUMP JUMPDEST PUSH2 0x3B97 SWAP3 SWAP2 SWAP1 PUSH2 0x4E1B JUMP JUMPDEST POP PUSH1 0x3 DUP3 ADD DUP2 PUSH1 0x3 ADD SWAP1 DUP1 SLOAD PUSH2 0x3BAC SWAP1 PUSH2 0x5CF4 JUMP JUMPDEST PUSH2 0x3BB7 SWAP3 SWAP2 SWAP1 PUSH2 0x4E1B JUMP JUMPDEST POP POP POP PUSH1 0x9 DUP3 DUP2 ADD SLOAD SWAP1 DUP3 ADD DUP1 SLOAD PUSH1 0x1 PUSH1 0x1 PUSH1 0xA0 SHL SUB NOT SWAP1 DUP2 AND PUSH1 0x1 PUSH1 0x1 PUSH1 0xA0 SHL SUB SWAP4 DUP5 AND OR SWAP1 SWAP2 SSTORE PUSH1 0xA DUP1 DUP6 ADD DUP1 SLOAD SWAP2 DUP6 ADD DUP1 SLOAD SWAP4 DUP5 AND SWAP3 SWAP1 SWAP5 AND SWAP2 DUP3 OR DUP5 SSTORE SLOAD PUSH1 0xFF PUSH1 0x1 PUSH1 0xA0 SHL SWAP2 DUP3 SWAP1 DIV AND ISZERO ISZERO MUL PUSH1 0x1 PUSH1 0x1 PUSH1 0xA8 SHL SUB NOT SWAP1 SWAP3 AND OR OR SWAP1 SSTORE PUSH1 0xB DUP1 DUP4 ADD DUP1 SLOAD SWAP1 SWAP2 DUP4 ADD SWAP1 PUSH2 0x3C31 SWAP1 DUP3 SWAP1 DUP5 SWAP1 PUSH2 0x4E96 JUMP JUMPDEST POP PUSH1 0x1 DUP3 DUP2 ADD DUP1 SLOAD PUSH2 0x3C46 SWAP3 DUP5 ADD SWAP2 SWAP1 PUSH2 0x4E96 JUMP JUMPDEST POP PUSH1 0x2 DUP3 DUP2 ADD DUP1 SLOAD PUSH2 0x3C5B SWAP3 DUP5 ADD SWAP2 SWAP1 PUSH2 0x4E96 JUMP JUMPDEST POP POP POP PUSH1 0xE DUP3 ADD DUP2 PUSH1 0xE ADD PUSH1 0x0 DUP3 ADD DUP2 PUSH1 0x0 ADD SWAP1 DUP1 SLOAD PUSH2 0x3C7A SWAP1 PUSH2 0x5CF4 JUMP JUMPDEST PUSH2 0x3C85 SWAP3 SWAP2 SWAP1 PUSH2 0x4E1B JUMP JUMPDEST POP PUSH1 0x1 DUP3 ADD DUP2 PUSH1 0x1 ADD SWAP1 DUP1 SLOAD PUSH2 0x3C9A SWAP1 PUSH2 0x5CF4 JUMP JUMPDEST PUSH2 0x3CA5 SWAP3 SWAP2 SWAP1 PUSH2 0x4E1B JUMP JUMPDEST POP PUSH1 0x2 DUP3 ADD DUP2 PUSH1 0x2 ADD SWAP1 DUP1 SLOAD PUSH2 0x3CBA SWAP1 PUSH2 0x5CF4 JUMP JUMPDEST PUSH2 0x3CC5 SWAP3 SWAP2 SWAP1 PUSH2 0x4E1B JUMP JUMPDEST POP PUSH1 0x3 DUP3 ADD DUP2 PUSH1 0x3 ADD SWAP1 DUP1 SLOAD PUSH2 0x3CDA SWAP1 PUSH2 0x5CF4 JUMP JUMPDEST PUSH2 0x3CE5 SWAP3 SWAP2 SWAP1 PUSH2 0x4E1B JUMP JUMPDEST POP POP POP PUSH1 0x12 DUP3 ADD DUP2 PUSH1 0x12 ADD PUSH1 0x0 DUP3 ADD DUP2 PUSH1 0x0 ADD SWAP1 DUP1 SLOAD PUSH2 0x3D04 SWAP1 PUSH2 0x5CF4 JUMP JUMPDEST PUSH2 0x3D0F SWAP3 SWAP2 SWAP1 PUSH2 0x4E1B JUMP JUMPDEST POP PUSH1 0x1 DUP3 DUP2 ADD DUP1 SLOAD PUSH2 0x3D24 SWAP3 DUP5 ADD SWAP2 SWAP1 PUSH2 0x4ED5 JUMP JUMPDEST POP PUSH1 0x2 DUP3 ADD DUP2 PUSH1 0x2 ADD SWAP1 DUP1 SLOAD PUSH2 0x3D39 SWAP1 PUSH2 0x5CF4 JUMP JUMPDEST PUSH2 0x3D44 SWAP3 SWAP2 SWAP1 PUSH2 0x4E1B JUMP JUMPDEST POP PUSH1 0x3 DUP3 ADD DUP2 PUSH1 0x3 ADD SWAP1 DUP1 SLOAD PUSH2 0x3D59 SWAP1 PUSH2 0x5CF4 JUMP JUMPDEST PUSH2 0x3D64 SWAP3 SWAP2 SWAP1 PUSH2 0x4E1B JUMP JUMPDEST POP PUSH1 0x4 DUP3 ADD DUP2 PUSH1 0x4 ADD SWAP1 DUP1 SLOAD PUSH2 0x3D79 SWAP1 PUSH2 0x5CF4 JUMP JUMPDEST PUSH2 0x3D84 SWAP3 SWAP2 SWAP1 PUSH2 0x4E1B JUMP JUMPDEST POP PUSH1 0x5 DUP3 ADD DUP2 PUSH1 0x5 ADD SWAP1 DUP1 SLOAD PUSH2 0x3D99 SWAP1 PUSH2 0x5CF4 JUMP JUMPDEST PUSH2 0x3DA4 SWAP3 SWAP2 SWAP1 PUSH2 0x4E1B JUMP JUMPDEST POP PUSH1 0x6 SWAP2 DUP3 ADD SLOAD SWAP2 ADD DUP1 SLOAD PUSH1 0xFF NOT AND PUSH1 0xFF SWAP3 DUP4 AND ISZERO ISZERO OR SWAP1 SSTORE PUSH1 0x7 SLOAD PUSH1 0x3 DUP6 ADD SLOAD PUSH1 0x9 DUP7 ADD SLOAD PUSH1 0xA DUP8 ADD SLOAD PUSH1 0x40 MLOAD PUSH32 0x94292DF13D29700BC2D3EB2A0EA031A5380AD4F2DF2BD33A92162C187D5F53AC SWAP8 POP PUSH2 0x3E26 SWAP7 POP SWAP4 SWAP5 PUSH1 0x1 DUP10 ADD SWAP5 PUSH1 0x2 DUP11 ADD SWAP5 SWAP4 PUSH1 0x1 PUSH1 0x1 PUSH1 0xA0 SHL SUB SWAP1 DUP2 AND SWAP4 SWAP1 DUP2 AND SWAP3 PUSH1 0x1 PUSH1 0xA0 SHL SWAP1 SWAP2 DIV AND SWAP1 PUSH2 0x5B8E JUMP JUMPDEST PUSH1 0x40 MLOAD DUP1 SWAP2 SUB SWAP1 LOG1 POP POP POP JUMP JUMPDEST PUSH1 0x60 PUSH1 0x1 DUP1 SLOAD PUSH2 0x462 SWAP1 PUSH2 0x5CF4 JUMP JUMPDEST PUSH2 0x3E4D CALLER DUP4 DUP4 PUSH2 0x4706 JUMP JUMPDEST POP POP JUMP JUMPDEST PUSH2 0x3E5B CALLER DUP4 PUSH2 0x44B9 JUMP JUMPDEST PUSH2 0x3E77 JUMPI PUSH1 0x40 MLOAD PUSH3 0x461BCD PUSH1 0xE5 SHL DUP2 MSTORE PUSH1 0x4 ADD PUSH2 0x581 SWAP1 PUSH2 0x5B00 JUMP JUMPDEST PUSH2 0x3E83 DUP5 DUP5 DUP5 DUP5 PUSH2 0x47D5 JUMP JUMPDEST POP POP POP POP JUMP JUMPDEST PUSH1 0x60 PUSH2 0x3E94 DUP3 PUSH2 0x43E9 JUMP JUMPDEST PUSH1 0x0 PUSH2 0x3EAB PUSH1 0x40 DUP1 MLOAD PUSH1 0x20 DUP2 ADD SWAP1 SWAP2 MSTORE PUSH1 0x0 DUP2 MSTORE SWAP1 JUMP JUMPDEST SWAP1 POP PUSH1 0x0 DUP2 MLOAD GT PUSH2 0x3ECB JUMPI PUSH1 0x40 MLOAD DUP1 PUSH1 0x20 ADD PUSH1 0x40 MSTORE DUP1 PUSH1 0x0 DUP2 MSTORE POP PUSH2 0x3EF6 JUMP JUMPDEST DUP1 PUSH2 0x3ED5 DUP5 PUSH2 0x4808 JUMP JUMPDEST PUSH1 0x40 MLOAD PUSH1 0x20 ADD PUSH2 0x3EE6 SWAP3 SWAP2 SWAP1 PUSH2 0x58B3 JUMP JUMPDEST PUSH1 0x40 MLOAD PUSH1 0x20 DUP2 DUP4 SUB SUB DUP2 MSTORE SWAP1 PUSH1 0x40 MSTORE JUMPDEST SWAP4 SWAP3 POP POP POP JUMP JUMPDEST PUSH1 0x0 DUP2 GT DUP1 ISZERO PUSH2 0x3F0F JUMPI POP PUSH1 0x7 SLOAD DUP2 GT ISZERO JUMPDEST PUSH2 0x3F2B JUMPI PUSH1 0x40 MLOAD PUSH3 0x461BCD PUSH1 0xE5 SHL DUP2 MSTORE PUSH1 0x4 ADD PUSH2 0x581 SWAP1 PUSH2 0x5AD7 JUMP JUMPDEST PUSH1 0x0 DUP2 DUP2 MSTORE PUSH1 0x9 PUSH1 0x20 DUP2 SWAP1 MSTORE PUSH1 0x40 SWAP1 SWAP2 KECCAK256 SWAP1 DUP2 ADD SLOAD PUSH1 0x1 PUSH1 0x1 PUSH1 0xA0 SHL SUB AND CALLER EQ PUSH2 0x3FB0 JUMPI PUSH1 0x40 MLOAD PUSH3 0x461BCD PUSH1 0xE5 SHL DUP2 MSTORE PUSH1 0x20 PUSH1 0x4 DUP3 ADD MSTORE PUSH1 0x30 PUSH1 0x24 DUP3 ADD MSTORE PUSH32 0x4F6E6C7920746865206172746973742063616E20746F67676C6520746865206F PUSH1 0x44 DUP3 ADD MSTORE PUSH16 0x6E2073616C6520617474726962757465 PUSH1 0x80 SHL PUSH1 0x64 DUP3 ADD MSTORE PUSH1 0x84 ADD PUSH2 0x581 JUMP JUMPDEST PUSH1 0xA DUP2 ADD SLOAD PUSH1 0x9 DUP3 ADD SLOAD PUSH1 0x1 PUSH1 0x1 PUSH1 0xA0 SHL SUB SWAP1 DUP2 AND SWAP2 AND EQ PUSH2 0x4028 JUMPI PUSH1 0x40 MLOAD PUSH3 0x461BCD PUSH1 0xE5 SHL DUP2 MSTORE PUSH1 0x20 PUSH1 0x4 DUP3 ADD MSTORE PUSH1 0x2B PUSH1 0x24 DUP3 ADD MSTORE PUSH32 0x417274697374206D757374206265207468652063757272656E74206F776E6572 PUSH1 0x44 DUP3 ADD MSTORE PUSH11 0x81BD9881D1A1948139195 PUSH1 0xAA SHL PUSH1 0x64 DUP3 ADD MSTORE PUSH1 0x84 ADD PUSH2 0x581 JUMP JUMPDEST PUSH1 0xA DUP2 ADD SLOAD PUSH1 0x1 PUSH1 0xA0 SHL SWAP1 DIV PUSH1 0xFF AND ISZERO ISZERO PUSH1 0x1 EQ ISZERO PUSH2 0x4055 JUMPI PUSH1 0xA DUP2 ADD DUP1 SLOAD PUSH1 0xFF PUSH1 0xA0 SHL NOT AND SWAP1 SSTORE PUSH2 0x407E JUMP JUMPDEST PUSH1 0xA DUP2 ADD SLOAD PUSH1 0x1 PUSH1 0xA0 SHL SWAP1 DIV PUSH1 0xFF AND PUSH2 0x407E JUMPI PUSH1 0xA DUP2 ADD DUP1 SLOAD PUSH1 0xFF PUSH1 0xA0 SHL NOT AND PUSH1 0x1 PUSH1 0xA0 SHL OR SWAP1 SSTORE JUMPDEST PUSH1 0x0 DUP3 DUP2 MSTORE PUSH1 0x9 PUSH1 0x20 MSTORE PUSH1 0x40 SWAP1 KECCAK256 DUP2 SLOAD DUP2 SSTORE PUSH1 0x1 DUP1 DUP4 ADD DUP1 SLOAD DUP5 SWAP4 SWAP3 DUP4 ADD SWAP2 SWAP1 PUSH2 0x40A7 SWAP1 PUSH2 0x5CF4 JUMP JUMPDEST PUSH2 0x40B2 SWAP3 SWAP2 SWAP1 PUSH2 0x4E1B JUMP JUMPDEST POP PUSH1 0x2 DUP3 ADD DUP2 PUSH1 0x2 ADD SWAP1 DUP1 SLOAD PUSH2 0x40C7 SWAP1 PUSH2 0x5CF4 JUMP JUMPDEST PUSH2 0x40D2 SWAP3 SWAP2 SWAP1 PUSH2 0x4E1B JUMP JUMPDEST POP PUSH1 0x3 DUP3 ADD SLOAD DUP2 PUSH1 0x3 ADD SSTORE PUSH1 0x4 DUP3 ADD SLOAD DUP2 PUSH1 0x4 ADD SSTORE PUSH1 0x5 DUP3 ADD DUP2 PUSH1 0x5 ADD PUSH1 0x0 DUP3 ADD DUP2 PUSH1 0x0 ADD SWAP1 DUP1 SLOAD PUSH2 0x4103 SWAP1 PUSH2 0x5CF4 JUMP JUMPDEST PUSH2 0x410E SWAP3 SWAP2 SWAP1 PUSH2 0x4E1B JUMP JUMPDEST POP PUSH1 0x1 DUP3 ADD DUP2 PUSH1 0x1 ADD SWAP1 DUP1 SLOAD PUSH2 0x4123 SWAP1 PUSH2 0x5CF4 JUMP JUMPDEST PUSH2 0x412E SWAP3 SWAP2 SWAP1 PUSH2 0x4E1B JUMP JUMPDEST POP PUSH1 0x2 DUP3 ADD DUP2 PUSH1 0x2 ADD SWAP1 DUP1 SLOAD PUSH2 0x4143 SWAP1 PUSH2 0x5CF4 JUMP JUMPDEST PUSH2 0x414E SWAP3 SWAP2 SWAP1 PUSH2 0x4E1B JUMP JUMPDEST POP PUSH1 0x3 DUP3 ADD DUP2 PUSH1 0x3 ADD SWAP1 DUP1 SLOAD PUSH2 0x4163 SWAP1 PUSH2 0x5CF4 JUMP JUMPDEST PUSH2 0x416E SWAP3 SWAP2 SWAP1 PUSH2 0x4E1B JUMP JUMPDEST POP POP POP PUSH1 0x9 DUP3 DUP2 ADD SLOAD SWAP1 DUP3 ADD DUP1 SLOAD PUSH1 0x1 PUSH1 0x1 PUSH1 0xA0 SHL SUB NOT SWAP1 DUP2 AND PUSH1 0x1 PUSH1 0x1 PUSH1 0xA0 SHL SUB SWAP4 DUP5 AND OR SWAP1 SWAP2 SSTORE PUSH1 0xA DUP1 DUP6 ADD DUP1 SLOAD SWAP2 DUP6 ADD DUP1 SLOAD SWAP4 DUP5 AND SWAP3 SWAP1 SWAP5 AND SWAP2 DUP3 OR DUP5 SSTORE SLOAD PUSH1 0xFF PUSH1 0x1 PUSH1 0xA0 SHL SWAP2 DUP3 SWAP1 DIV AND ISZERO ISZERO MUL PUSH1 0x1 PUSH1 0x1 PUSH1 0xA8 SHL SUB NOT SWAP1 SWAP3 AND OR OR SWAP1 SSTORE PUSH1 0xB DUP1 DUP4 ADD DUP1 SLOAD SWAP1 SWAP2 DUP4 ADD SWAP1 PUSH2 0x41E8 SWAP1 DUP3 SWAP1 DUP5 SWAP1 PUSH2 0x4E96 JUMP JUMPDEST POP PUSH1 0x1 DUP3 DUP2 ADD DUP1 SLOAD PUSH2 0x41FD SWAP3 DUP5 ADD SWAP2 SWAP1 PUSH2 0x4E96 JUMP JUMPDEST POP PUSH1 0x2 DUP3 DUP2 ADD DUP1 SLOAD PUSH2 0x4212 SWAP3 DUP5 ADD SWAP2 SWAP1 PUSH2 0x4E96 JUMP JUMPDEST POP POP POP PUSH1 0xE DUP3 ADD DUP2 PUSH1 0xE ADD PUSH1 0x0 DUP3 ADD DUP2 PUSH1 0x0 ADD SWAP1 DUP1 SLOAD PUSH2 0x4231 SWAP1 PUSH2 0x5CF4 JUMP JUMPDEST PUSH2 0x423C SWAP3 SWAP2 SWAP1 PUSH2 0x4E1B JUMP JUMPDEST POP PUSH1 0x1 DUP3 ADD DUP2 PUSH1 0x1 ADD SWAP1 DUP1 SLOAD PUSH2 0x4251 SWAP1 PUSH2 0x5CF4 JUMP JUMPDEST PUSH2 0x425C SWAP3 SWAP2 SWAP1 PUSH2 0x4E1B JUMP JUMPDEST POP PUSH1 0x2 DUP3 ADD DUP2 PUSH1 0x2 ADD SWAP1 DUP1 SLOAD PUSH2 0x4271 SWAP1 PUSH2 0x5CF4 JUMP JUMPDEST PUSH2 0x427C SWAP3 SWAP2 SWAP1 PUSH2 0x4E1B JUMP JUMPDEST POP PUSH1 0x3 DUP3 ADD DUP2 PUSH1 0x3 ADD SWAP1 DUP1 SLOAD PUSH2 0x4291 SWAP1 PUSH2 0x5CF4 JUMP JUMPDEST PUSH2 0x429C SWAP3 SWAP2 SWAP1 PUSH2 0x4E1B JUMP JUMPDEST POP POP POP PUSH1 0x12 DUP3 ADD DUP2 PUSH1 0x12 ADD PUSH1 0x0 DUP3 ADD DUP2 PUSH1 0x0 ADD SWAP1 DUP1 SLOAD PUSH2 0x42BB SWAP1 PUSH2 0x5CF4 JUMP JUMPDEST PUSH2 0x42C6 SWAP3 SWAP2 SWAP1 PUSH2 0x4E1B JUMP JUMPDEST POP PUSH1 0x1 DUP3 DUP2 ADD DUP1 SLOAD PUSH2 0x42DB SWAP3 DUP5 ADD SWAP2 SWAP1 PUSH2 0x4ED5 JUMP JUMPDEST POP PUSH1 0x2 DUP3 ADD DUP2 PUSH1 0x2 ADD SWAP1 DUP1 SLOAD PUSH2 0x42F0 SWAP1 PUSH2 0x5CF4 JUMP JUMPDEST PUSH2 0x42FB SWAP3 SWAP2 SWAP1 PUSH2 0x4E1B JUMP JUMPDEST POP PUSH1 0x3 DUP3 ADD DUP2 PUSH1 0x3 ADD SWAP1 DUP1 SLOAD PUSH2 0x4310 SWAP1 PUSH2 0x5CF4 JUMP JUMPDEST PUSH2 0x431B SWAP3 SWAP2 SWAP1 PUSH2 0x4E1B JUMP JUMPDEST POP PUSH1 0x4 DUP3 ADD DUP2 PUSH1 0x4 ADD SWAP1 DUP1 SLOAD PUSH2 0x4330 SWAP1 PUSH2 0x5CF4 JUMP JUMPDEST PUSH2 0x433B SWAP3 SWAP2 SWAP1 PUSH2 0x4E1B JUMP JUMPDEST POP PUSH1 0x5 DUP3 ADD DUP2 PUSH1 0x5 ADD SWAP1 DUP1 SLOAD PUSH2 0x4350 SWAP1 PUSH2 0x5CF4 JUMP JUMPDEST PUSH2 0x435B SWAP3 SWAP2 SWAP1 PUSH2 0x4E1B JUMP JUMPDEST POP PUSH1 0x6 SWAP2 DUP3 ADD SLOAD SWAP2 ADD DUP1 SLOAD PUSH1 0xFF NOT AND PUSH1 0xFF SWAP3 DUP4 AND ISZERO ISZERO OR SWAP1 SSTORE PUSH1 0x7 SLOAD PUSH1 0x3 DUP6 ADD SLOAD PUSH1 0x9 DUP7 ADD SLOAD PUSH1 0xA DUP8 ADD SLOAD PUSH1 0x40 MLOAD PUSH32 0x94292DF13D29700BC2D3EB2A0EA031A5380AD4F2DF2BD33A92162C187D5F53AC SWAP8 POP PUSH2 0x43DD SWAP7 POP SWAP4 SWAP5 PUSH1 0x1 DUP10 ADD SWAP5 PUSH1 0x2 DUP11 ADD SWAP5 SWAP4 PUSH1 0x1 PUSH1 0x1 PUSH1 0xA0 SHL SUB SWAP1 DUP2 AND SWAP4 SWAP1 DUP2 AND SWAP3 PUSH1 0x1 PUSH1 0xA0 SHL SWAP1 SWAP2 DIV AND SWAP1 PUSH2 0x5B8E JUMP JUMPDEST PUSH1 0x40 MLOAD DUP1 SWAP2 SUB SWAP1 LOG1 POP POP JUMP JUMPDEST PUSH1 0x0 DUP2 DUP2 MSTORE PUSH1 0x2 PUSH1 0x20 MSTORE PUSH1 0x40 SWAP1 KECCAK256 SLOAD PUSH1 0x1 PUSH1 0x1 PUSH1 0xA0 SHL SUB AND PUSH2 0x4448 JUMPI PUSH1 0x40 MLOAD PUSH3 0x461BCD PUSH1 0xE5 SHL DUP2 MSTORE PUSH1 0x20 PUSH1 0x4 DUP3 ADD MSTORE PUSH1 0x18 PUSH1 0x24 DUP3 ADD MSTORE PUSH24 0x115490CDCC8C4E881A5B9D985B1A59081D1BDAD95B881251 PUSH1 0x42 SHL PUSH1 0x44 DUP3 ADD MSTORE PUSH1 0x64 ADD PUSH2 0x581 JUMP JUMPDEST POP JUMP JUMPDEST PUSH1 0x0 DUP2 DUP2 MSTORE PUSH1 0x4 PUSH1 0x20 MSTORE PUSH1 0x40 SWAP1 KECCAK256 DUP1 SLOAD PUSH1 0x1 PUSH1 0x1 PUSH1 0xA0 SHL SUB NOT AND PUSH1 0x1 PUSH1 0x1 PUSH1 0xA0 SHL SUB DUP5 AND SWAP1 DUP2 OR SWAP1 SWAP2 SSTORE DUP2 SWAP1 PUSH2 0x4480 DUP3 PUSH2 0x31B1 JUMP JUMPDEST PUSH1 0x1 PUSH1 0x1 PUSH1 0xA0 SHL SUB AND PUSH32 0x8C5BE1E5EBEC7D5BD14F71427D1E84F3DD0314C0F7B2291E5B200AC8C7C3B925 PUSH1 0x40 MLOAD PUSH1 0x40 MLOAD DUP1 SWAP2 SUB SWAP1 LOG4 POP POP JUMP JUMPDEST PUSH1 0x0 DUP1 PUSH2 0x44C5 DUP4 PUSH2 0x31B1 JUMP JUMPDEST SWAP1 POP DUP1 PUSH1 0x1 PUSH1 0x1 PUSH1 0xA0 SHL SUB AND DUP5 PUSH1 0x1 PUSH1 0x1 PUSH1 0xA0 SHL SUB AND EQ DUP1 PUSH2 0x450C JUMPI POP PUSH1 0x1 PUSH1 0x1 PUSH1 0xA0 SHL SUB DUP1 DUP3 AND PUSH1 0x0 SWAP1 DUP2 MSTORE PUSH1 0x5 PUSH1 0x20 SWAP1 DUP2 MSTORE PUSH1 0x40 DUP1 DUP4 KECCAK256 SWAP4 DUP9 AND DUP4 MSTORE SWAP3 SWAP1 MSTORE KECCAK256 SLOAD PUSH1 0xFF AND JUMPDEST DUP1 PUSH2 0x4530 JUMPI POP DUP4 PUSH1 0x1 PUSH1 0x1 PUSH1 0xA0 SHL SUB AND PUSH2 0x4525 DUP5 PUSH2 0x4E5 JUMP JUMPDEST PUSH1 0x1 PUSH1 0x1 PUSH1 0xA0 SHL SUB AND EQ JUMPDEST SWAP5 SWAP4 POP POP POP POP JUMP JUMPDEST DUP3 PUSH1 0x1 PUSH1 0x1 PUSH1 0xA0 SHL SUB AND PUSH2 0x454B DUP3 PUSH2 0x31B1 JUMP JUMPDEST PUSH1 0x1 PUSH1 0x1 PUSH1 0xA0 SHL SUB AND EQ PUSH2 0x45AF JUMPI PUSH1 0x40 MLOAD PUSH3 0x461BCD PUSH1 0xE5 SHL DUP2 MSTORE PUSH1 0x20 PUSH1 0x4 DUP3 ADD MSTORE PUSH1 0x25 PUSH1 0x24 DUP3 ADD MSTORE PUSH32 0x4552433732313A207472616E736665722066726F6D20696E636F727265637420 PUSH1 0x44 DUP3 ADD MSTORE PUSH5 0x37BBB732B9 PUSH1 0xD9 SHL PUSH1 0x64 DUP3 ADD MSTORE PUSH1 0x84 ADD PUSH2 0x581 JUMP JUMPDEST PUSH1 0x1 PUSH1 0x1 PUSH1 0xA0 SHL SUB DUP3 AND PUSH2 0x4611 JUMPI PUSH1 0x40 MLOAD PUSH3 0x461BCD PUSH1 0xE5 SHL DUP2 MSTORE PUSH1 0x20 PUSH1 0x4 DUP3 ADD MSTORE PUSH1 0x24 DUP1 DUP3 ADD MSTORE PUSH32 0x4552433732313A207472616E7366657220746F20746865207A65726F20616464 PUSH1 0x44 DUP3 ADD MSTORE PUSH4 0x72657373 PUSH1 0xE0 SHL PUSH1 0x64 DUP3 ADD MSTORE PUSH1 0x84 ADD PUSH2 0x581 JUMP JUMPDEST PUSH2 0x461C PUSH1 0x0 DUP3 PUSH2 0x444B JUMP JUMPDEST PUSH1 0x1 PUSH1 0x1 PUSH1 0xA0 SHL SUB DUP4 AND PUSH1 0x0 SWAP1 DUP2 MSTORE PUSH1 0x3 PUSH1 0x20 MSTORE PUSH1 0x40 DUP2 KECCAK256 DUP1 SLOAD PUSH1 0x1 SWAP3 SWAP1 PUSH2 0x4645 SWAP1 DUP5 SWAP1 PUSH2 0x5CB1 JUMP JUMPDEST SWAP1 SWAP2 SSTORE POP POP PUSH1 0x1 PUSH1 0x1 PUSH1 0xA0 SHL SUB DUP3 AND PUSH1 0x0 SWAP1 DUP2 MSTORE PUSH1 0x3 PUSH1 0x20 MSTORE PUSH1 0x40 DUP2 KECCAK256 DUP1 SLOAD PUSH1 0x1 SWAP3 SWAP1 PUSH2 0x4673 SWAP1 DUP5 SWAP1 PUSH2 0x5C66 JUMP JUMPDEST SWAP1 SWAP2 SSTORE POP POP PUSH1 0x0 DUP2 DUP2 MSTORE PUSH1 0x2 PUSH1 0x20 MSTORE PUSH1 0x40 DUP1 DUP3 KECCAK256 DUP1 SLOAD PUSH1 0x1 PUSH1 0x1 PUSH1 0xA0 SHL SUB NOT AND PUSH1 0x1 PUSH1 0x1 PUSH1 0xA0 SHL SUB DUP7 DUP2 AND SWAP2 DUP3 OR SWAP1 SWAP3 SSTORE SWAP2 MLOAD DUP5 SWAP4 SWAP2 DUP8 AND SWAP2 PUSH32 0xDDF252AD1BE2C89B69C2B068FC378DAA952BA7F163C4A11628F55A4DF523B3EF SWAP2 LOG4 POP POP POP JUMP JUMPDEST PUSH2 0x3E4D DUP3 DUP3 PUSH1 0x40 MLOAD DUP1 PUSH1 0x20 ADD PUSH1 0x40 MSTORE DUP1 PUSH1 0x0 DUP2 MSTORE POP PUSH2 0x4905 JUMP JUMPDEST PUSH1 0x0 PUSH2 0x3EF6 DUP3 DUP5 PUSH2 0x5C92 JUMP JUMPDEST PUSH1 0x0 PUSH2 0x3EF6 DUP3 DUP5 PUSH2 0x5C7E JUMP JUMPDEST DUP2 PUSH1 0x1 PUSH1 0x1 PUSH1 0xA0 SHL SUB AND DUP4 PUSH1 0x1 PUSH1 0x1 PUSH1 0xA0 SHL SUB AND EQ ISZERO PUSH2 0x4768 JUMPI PUSH1 0x40 MLOAD PUSH3 0x461BCD PUSH1 0xE5 SHL DUP2 MSTORE PUSH1 0x20 PUSH1 0x4 DUP3 ADD MSTORE PUSH1 0x19 PUSH1 0x24 DUP3 ADD MSTORE PUSH32 0x4552433732313A20617070726F766520746F2063616C6C657200000000000000 PUSH1 0x44 DUP3 ADD MSTORE PUSH1 0x64 ADD PUSH2 0x581 JUMP JUMPDEST PUSH1 0x1 PUSH1 0x1 PUSH1 0xA0 SHL SUB DUP4 DUP2 AND PUSH1 0x0 DUP2 DUP2 MSTORE PUSH1 0x5 PUSH1 0x20 SWAP1 DUP2 MSTORE PUSH1 0x40 DUP1 DUP4 KECCAK256 SWAP5 DUP8 AND DUP1 DUP5 MSTORE SWAP5 DUP3 MSTORE SWAP2 DUP3 SWAP1 KECCAK256 DUP1 SLOAD PUSH1 0xFF NOT AND DUP7 ISZERO ISZERO SWAP1 DUP2 OR SWAP1 SWAP2 SSTORE SWAP2 MLOAD SWAP2 DUP3 MSTORE PUSH32 0x17307EAB39AB6107E8899845AD3D59BD9653F200F220920489CA2B5937696C31 SWAP2 ADD PUSH1 0x40 MLOAD DUP1 SWAP2 SUB SWAP1 LOG3 POP POP POP JUMP JUMPDEST PUSH2 0x47E0 DUP5 DUP5 DUP5 PUSH2 0x4538 JUMP JUMPDEST PUSH2 0x47EC DUP5 DUP5 DUP5 DUP5 PUSH2 0x4938 JUMP JUMPDEST PUSH2 0x3E83 JUMPI PUSH1 0x40 MLOAD PUSH3 0x461BCD PUSH1 0xE5 SHL DUP2 MSTORE PUSH1 0x4 ADD PUSH2 0x581 SWAP1 PUSH2 0x5A85 JUMP JUMPDEST PUSH1 0x60 DUP2 PUSH2 0x482C JUMPI POP POP PUSH1 0x40 DUP1 MLOAD DUP1 DUP3 ADD SWAP1 SWAP2 MSTORE PUSH1 0x1 DUP2 MSTORE PUSH1 0x3 PUSH1 0xFC SHL PUSH1 0x20 DUP3 ADD MSTORE SWAP1 JUMP JUMPDEST DUP2 PUSH1 0x0 JUMPDEST DUP2 ISZERO PUSH2 0x4856 JUMPI DUP1 PUSH2 0x4840 DUP2 PUSH2 0x5D29 JUMP JUMPDEST SWAP2 POP PUSH2 0x484F SWAP1 POP PUSH1 0xA DUP4 PUSH2 0x5C7E JUMP JUMPDEST SWAP2 POP PUSH2 0x4830 JUMP JUMPDEST PUSH1 0x0 DUP2 PUSH1 0x1 PUSH1 0x1 PUSH1 0x40 SHL SUB DUP2 GT ISZERO PUSH2 0x4870 JUMPI PUSH2 0x4870 PUSH2 0x5D9A JUMP JUMPDEST PUSH1 0x40 MLOAD SWAP1 DUP1 DUP3 MSTORE DUP1 PUSH1 0x1F ADD PUSH1 0x1F NOT AND PUSH1 0x20 ADD DUP3 ADD PUSH1 0x40 MSTORE DUP1 ISZERO PUSH2 0x489A JUMPI PUSH1 0x20 DUP3 ADD DUP2 DUP1 CALLDATASIZE DUP4 CALLDATACOPY ADD SWAP1 POP JUMPDEST POP SWAP1 POP JUMPDEST DUP5 ISZERO PUSH2 0x4530 JUMPI PUSH2 0x48AF PUSH1 0x1 DUP4 PUSH2 0x5CB1 JUMP JUMPDEST SWAP2 POP PUSH2 0x48BC PUSH1 0xA DUP7 PUSH2 0x5D44 JUMP JUMPDEST PUSH2 0x48C7 SWAP1 PUSH1 0x30 PUSH2 0x5C66 JUMP JUMPDEST PUSH1 0xF8 SHL DUP2 DUP4 DUP2 MLOAD DUP2 LT PUSH2 0x48DC JUMPI PUSH2 0x48DC PUSH2 0x5D84 JUMP JUMPDEST PUSH1 0x20 ADD ADD SWAP1 PUSH1 0x1 PUSH1 0x1 PUSH1 0xF8 SHL SUB NOT AND SWAP1 DUP2 PUSH1 0x0 BYTE SWAP1 MSTORE8 POP PUSH2 0x48FE PUSH1 0xA DUP7 PUSH2 0x5C7E JUMP JUMPDEST SWAP5 POP PUSH2 0x489E JUMP JUMPDEST PUSH2 0x490F DUP4 DUP4 PUSH2 0x4A45 JUMP JUMPDEST PUSH2 0x491C PUSH1 0x0 DUP5 DUP5 DUP5 PUSH2 0x4938 JUMP JUMPDEST PUSH2 0x622 JUMPI PUSH1 0x40 MLOAD PUSH3 0x461BCD PUSH1 0xE5 SHL DUP2 MSTORE PUSH1 0x4 ADD PUSH2 0x581 SWAP1 PUSH2 0x5A85 JUMP JUMPDEST PUSH1 0x0 PUSH1 0x1 PUSH1 0x1 PUSH1 0xA0 SHL SUB DUP5 AND EXTCODESIZE ISZERO PUSH2 0x4A3A JUMPI PUSH1 0x40 MLOAD PUSH4 0xA85BD01 PUSH1 0xE1 SHL DUP2 MSTORE PUSH1 0x1 PUSH1 0x1 PUSH1 0xA0 SHL SUB DUP6 AND SWAP1 PUSH4 0x150B7A02 SWAP1 PUSH2 0x497C SWAP1 CALLER SWAP1 DUP10 SWAP1 DUP9 SWAP1 DUP9 SWAP1 PUSH1 0x4 ADD PUSH2 0x58E2 JUMP JUMPDEST PUSH1 0x20 PUSH1 0x40 MLOAD DUP1 DUP4 SUB DUP2 PUSH1 0x0 DUP8 DUP1 EXTCODESIZE ISZERO DUP1 ISZERO PUSH2 0x4996 JUMPI PUSH1 0x0 DUP1 REVERT JUMPDEST POP GAS CALL SWAP3 POP POP POP DUP1 ISZERO PUSH2 0x49C6 JUMPI POP PUSH1 0x40 DUP1 MLOAD PUSH1 0x1F RETURNDATASIZE SWAP1 DUP2 ADD PUSH1 0x1F NOT AND DUP3 ADD SWAP1 SWAP3 MSTORE PUSH2 0x49C3 SWAP2 DUP2 ADD SWAP1 PUSH2 0x541E JUMP JUMPDEST PUSH1 0x1 JUMPDEST PUSH2 0x4A20 JUMPI RETURNDATASIZE DUP1 DUP1 ISZERO PUSH2 0x49F4 JUMPI PUSH1 0x40 MLOAD SWAP2 POP PUSH1 0x1F NOT PUSH1 0x3F RETURNDATASIZE ADD AND DUP3 ADD PUSH1 0x40 MSTORE RETURNDATASIZE DUP3 MSTORE RETURNDATASIZE PUSH1 0x0 PUSH1 0x20 DUP5 ADD RETURNDATACOPY PUSH2 0x49F9 JUMP JUMPDEST PUSH1 0x60 SWAP2 POP JUMPDEST POP DUP1 MLOAD PUSH2 0x4A18 JUMPI PUSH1 0x40 MLOAD PUSH3 0x461BCD PUSH1 0xE5 SHL DUP2 MSTORE PUSH1 0x4 ADD PUSH2 0x581 SWAP1 PUSH2 0x5A85 JUMP JUMPDEST DUP1 MLOAD DUP2 PUSH1 0x20 ADD REVERT JUMPDEST PUSH1 0x1 PUSH1 0x1 PUSH1 0xE0 SHL SUB NOT AND PUSH4 0xA85BD01 PUSH1 0xE1 SHL EQ SWAP1 POP PUSH2 0x4530 JUMP JUMPDEST POP PUSH1 0x1 SWAP5 SWAP4 POP POP POP POP JUMP JUMPDEST PUSH1 0x1 PUSH1 0x1 PUSH1 0xA0 SHL SUB DUP3 AND PUSH2 0x4A9B JUMPI PUSH1 0x40 MLOAD PUSH3 0x461BCD PUSH1 0xE5 SHL DUP2 MSTORE PUSH1 0x20 PUSH1 0x4 DUP3 ADD DUP2 SWAP1 MSTORE PUSH1 0x24 DUP3 ADD MSTORE PUSH32 0x4552433732313A206D696E7420746F20746865207A65726F2061646472657373 PUSH1 0x44 DUP3 ADD MSTORE PUSH1 0x64 ADD PUSH2 0x581 JUMP JUMPDEST PUSH1 0x0 DUP2 DUP2 MSTORE PUSH1 0x2 PUSH1 0x20 MSTORE PUSH1 0x40 SWAP1 KECCAK256 SLOAD PUSH1 0x1 PUSH1 0x1 PUSH1 0xA0 SHL SUB AND ISZERO PUSH2 0x4B00 JUMPI PUSH1 0x40 MLOAD PUSH3 0x461BCD PUSH1 0xE5 SHL DUP2 MSTORE PUSH1 0x20 PUSH1 0x4 DUP3 ADD MSTORE PUSH1 0x1C PUSH1 0x24 DUP3 ADD MSTORE PUSH32 0x4552433732313A20746F6B656E20616C7265616479206D696E74656400000000 PUSH1 0x44 DUP3 ADD MSTORE PUSH1 0x64 ADD PUSH2 0x581 JUMP JUMPDEST PUSH1 0x1 PUSH1 0x1 PUSH1 0xA0 SHL SUB DUP3 AND PUSH1 0x0 SWAP1 DUP2 MSTORE PUSH1 0x3 PUSH1 0x20 MSTORE PUSH1 0x40 DUP2 KECCAK256 DUP1 SLOAD PUSH1 0x1 SWAP3 SWAP1 PUSH2 0x4B29 SWAP1 DUP5 SWAP1 PUSH2 0x5C66 JUMP JUMPDEST SWAP1 SWAP2 SSTORE POP POP PUSH1 0x0 DUP2 DUP2 MSTORE PUSH1 0x2 PUSH1 0x20 MSTORE PUSH1 0x40 DUP1 DUP3 KECCAK256 DUP1 SLOAD PUSH1 0x1 PUSH1 0x1 PUSH1 0xA0 SHL SUB NOT AND PUSH1 0x1 PUSH1 0x1 PUSH1 0xA0 SHL SUB DUP7 AND SWAP1 DUP2 OR SWAP1 SWAP2 SSTORE SWAP1 MLOAD DUP4 SWAP3 SWAP1 PUSH32 0xDDF252AD1BE2C89B69C2B068FC378DAA952BA7F163C4A11628F55A4DF523B3EF SWAP1 DUP3 SWAP1 LOG4 POP POP JUMP JUMPDEST PUSH1 0x40 MLOAD DUP1 PUSH2 0x180 ADD PUSH1 0x40 MSTORE DUP1 PUSH1 0x0 DUP2 MSTORE PUSH1 0x20 ADD PUSH1 0x60 DUP2 MSTORE PUSH1 0x20 ADD PUSH1 0x60 DUP2 MSTORE PUSH1 0x20 ADD PUSH1 0x0 DUP2 MSTORE PUSH1 0x20 ADD PUSH1 0x0 DUP2 MSTORE PUSH1 0x20 ADD PUSH2 0x4BE1 PUSH1 0x40 MLOAD DUP1 PUSH1 0x80 ADD PUSH1 0x40 MSTORE DUP1 PUSH1 0x60 DUP2 MSTORE PUSH1 0x20 ADD PUSH1 0x60 DUP2 MSTORE PUSH1 0x20 ADD PUSH1 0x60 DUP2 MSTORE PUSH1 0x20 ADD PUSH1 0x60 DUP2 MSTORE POP SWAP1 JUMP JUMPDEST DUP2 MSTORE PUSH1 0x20 ADD PUSH1 0x0 PUSH1 0x1 PUSH1 0x1 PUSH1 0xA0 SHL SUB AND DUP2 MSTORE PUSH1 0x20 ADD PUSH1 0x0 PUSH1 0x1 PUSH1 0x1 PUSH1 0xA0 SHL SUB AND DUP2 MSTORE PUSH1 0x20 ADD PUSH1 0x0 ISZERO ISZERO DUP2 MSTORE PUSH1 0x20 ADD PUSH2 0x4C33 PUSH1 0x40 MLOAD DUP1 PUSH1 0x60 ADD PUSH1 0x40 MSTORE DUP1 PUSH1 0x60 DUP2 MSTORE PUSH1 0x20 ADD PUSH1 0x60 DUP2 MSTORE PUSH1 0x20 ADD PUSH1 0x60 DUP2 MSTORE POP SWAP1 JUMP JUMPDEST DUP2 MSTORE PUSH1 0x20 ADD PUSH2 0x4C63 PUSH1 0x40 MLOAD DUP1 PUSH1 0x80 ADD PUSH1 0x40 MSTORE DUP1 PUSH1 0x60 DUP2 MSTORE PUSH1 0x20 ADD PUSH1 0x60 DUP2 MSTORE PUSH1 0x20 ADD PUSH1 0x60 DUP2 MSTORE PUSH1 0x20 ADD PUSH1 0x60 DUP2 MSTORE POP SWAP1 JUMP JUMPDEST DUP2 MSTORE PUSH1 0x20 ADD PUSH2 0x4CAA PUSH1 0x40 MLOAD DUP1 PUSH1 0xE0 ADD PUSH1 0x40 MSTORE DUP1 PUSH1 0x60 DUP2 MSTORE PUSH1 0x20 ADD PUSH1 0x60 DUP2 MSTORE PUSH1 0x20 ADD PUSH1 0x60 DUP2 MSTORE PUSH1 0x20 ADD PUSH1 0x60 DUP2 MSTORE PUSH1 0x20 ADD PUSH1 0x60 DUP2 MSTORE PUSH1 0x20 ADD PUSH1 0x60 DUP2 MSTORE PUSH1 0x20 ADD PUSH1 0x0 ISZERO ISZERO DUP2 MSTORE POP SWAP1 JUMP JUMPDEST SWAP1 MSTORE SWAP1 JUMP JUMPDEST DUP3 DUP1 SLOAD PUSH2 0x4CBB SWAP1 PUSH2 0x5CF4 JUMP JUMPDEST SWAP1 PUSH1 0x0 MSTORE PUSH1 0x20 PUSH1 0x0 KECCAK256 SWAP1 PUSH1 0x1F ADD PUSH1 0x20 SWAP1 DIV DUP2 ADD SWAP3 DUP3 PUSH2 0x4CDD JUMPI PUSH1 0x0 DUP6 SSTORE PUSH2 0x4D23 JUMP JUMPDEST DUP3 PUSH1 0x1F LT PUSH2 0x4CF6 JUMPI DUP1 MLOAD PUSH1 0xFF NOT AND DUP4 DUP1 ADD OR DUP6 SSTORE PUSH2 0x4D23 JUMP JUMPDEST DUP3 DUP1 ADD PUSH1 0x1 ADD DUP6 SSTORE DUP3 ISZERO PUSH2 0x4D23 JUMPI SWAP2 DUP3 ADD JUMPDEST DUP3 DUP2 GT ISZERO PUSH2 0x4D23 JUMPI DUP3 MLOAD DUP3 SSTORE SWAP2 PUSH1 0x20 ADD SWAP2 SWAP1 PUSH1 0x1 ADD SWAP1 PUSH2 0x4D08 JUMP JUMPDEST POP PUSH2 0x4D2F SWAP3 SWAP2 POP PUSH2 0x4F2B JUMP JUMPDEST POP SWAP1 JUMP JUMPDEST DUP3 DUP1 SLOAD DUP3 DUP3 SSTORE SWAP1 PUSH1 0x0 MSTORE PUSH1 0x20 PUSH1 0x0 KECCAK256 SWAP1 DUP2 ADD SWAP3 DUP3 ISZERO PUSH2 0x4D23 JUMPI SWAP2 PUSH1 0x20 MUL DUP3 ADD JUMPDEST DUP3 DUP2 GT ISZERO PUSH2 0x4D23 JUMPI DUP3 MLOAD DUP3 SLOAD PUSH1 0x1 PUSH1 0x1 PUSH1 0xA0 SHL SUB NOT AND PUSH1 0x1 PUSH1 0x1 PUSH1 0xA0 SHL SUB SWAP1 SWAP2 AND OR DUP3 SSTORE PUSH1 0x20 SWAP1 SWAP3 ADD SWAP2 PUSH1 0x1 SWAP1 SWAP2 ADD SWAP1 PUSH2 0x4D53 JUMP JUMPDEST DUP3 DUP1 SLOAD DUP3 DUP3 SSTORE SWAP1 PUSH1 0x0 MSTORE PUSH1 0x20 PUSH1 0x0 KECCAK256 SWAP1 DUP2 ADD SWAP3 DUP3 ISZERO PUSH2 0x4D23 JUMPI SWAP2 PUSH1 0x20 MUL DUP3 ADD DUP3 DUP2 GT ISZERO PUSH2 0x4D23 JUMPI DUP3 MLOAD DUP3 SSTORE SWAP2 PUSH1 0x20 ADD SWAP2 SWAP1 PUSH1 0x1 ADD SWAP1 PUSH2 0x4D08 JUMP JUMPDEST DUP3 DUP1 SLOAD DUP3 DUP3 SSTORE SWAP1 PUSH1 0x0 MSTORE PUSH1 0x20 PUSH1 0x0 KECCAK256 SWAP1 DUP2 ADD SWAP3 DUP3 ISZERO PUSH2 0x4E0F JUMPI SWAP2 PUSH1 0x20 MUL DUP3 ADD JUMPDEST DUP3 DUP2 GT ISZERO PUSH2 0x4E0F JUMPI DUP3 MLOAD DUP1 MLOAD PUSH2 0x4DFF SWAP2 DUP5 SWAP2 PUSH1 0x20 SWAP1 SWAP2 ADD SWAP1 PUSH2 0x4CAF JUMP JUMPDEST POP SWAP2 PUSH1 0x20 ADD SWAP2 SWAP1 PUSH1 0x1 ADD SWAP1 PUSH2 0x4DE2 JUMP JUMPDEST POP PUSH2 0x4D2F SWAP3 SWAP2 POP PUSH2 0x4F40 JUMP JUMPDEST DUP3 DUP1 SLOAD PUSH2 0x4E27 SWAP1 PUSH2 0x5CF4 JUMP JUMPDEST SWAP1 PUSH1 0x0 MSTORE PUSH1 0x20 PUSH1 0x0 KECCAK256 SWAP1 PUSH1 0x1F ADD PUSH1 0x20 SWAP1 DIV DUP2 ADD SWAP3 DUP3 PUSH2 0x4E49 JUMPI PUSH1 0x0 DUP6 SSTORE PUSH2 0x4D23 JUMP JUMPDEST DUP3 PUSH1 0x1F LT PUSH2 0x4E5A JUMPI DUP1 SLOAD DUP6 SSTORE PUSH2 0x4D23 JUMP JUMPDEST DUP3 DUP1 ADD PUSH1 0x1 ADD DUP6 SSTORE DUP3 ISZERO PUSH2 0x4D23 JUMPI PUSH1 0x0 MSTORE PUSH1 0x20 PUSH1 0x0 KECCAK256 SWAP2 PUSH1 0x1F ADD PUSH1 0x20 SWAP1 DIV DUP3 ADD JUMPDEST DUP3 DUP2 GT ISZERO PUSH2 0x4D23 JUMPI DUP3 SLOAD DUP3 SSTORE SWAP2 PUSH1 0x1 ADD SWAP2 SWAP1 PUSH1 0x1 ADD SWAP1 PUSH2 0x4E7B JUMP JUMPDEST DUP3 DUP1 SLOAD DUP3 DUP3 SSTORE SWAP1 PUSH1 0x0 MSTORE PUSH1 0x20 PUSH1 0x0 KECCAK256 SWAP1 DUP2 ADD SWAP3 DUP3 ISZERO PUSH2 0x4D23 JUMPI PUSH1 0x0 MSTORE PUSH1 0x20 PUSH1 0x0 KECCAK256 SWAP2 DUP3 ADD DUP3 DUP2 GT ISZERO PUSH2 0x4D23 JUMPI DUP3 SLOAD DUP3 SSTORE SWAP2 PUSH1 0x1 ADD SWAP2 SWAP1 PUSH1 0x1 ADD SWAP1 PUSH2 0x4E7B JUMP JUMPDEST DUP3 DUP1 SLOAD DUP3 DUP3 SSTORE SWAP1 PUSH1 0x0 MSTORE PUSH1 0x20 PUSH1 0x0 KECCAK256 SWAP1 DUP2 ADD SWAP3 DUP3 ISZERO PUSH2 0x4E0F JUMPI PUSH1 0x0 MSTORE PUSH1 0x20 PUSH1 0x0 KECCAK256 SWAP2 DUP3 ADD JUMPDEST DUP3 DUP2 GT ISZERO PUSH2 0x4E0F JUMPI DUP3 DUP3 SWAP1 DUP1 SLOAD PUSH2 0x4F10 SWAP1 PUSH2 0x5CF4 JUMP JUMPDEST PUSH2 0x4F1B SWAP3 SWAP2 SWAP1 PUSH2 0x4E1B JUMP JUMPDEST POP SWAP2 PUSH1 0x1 ADD SWAP2 SWAP1 PUSH1 0x1 ADD SWAP1 PUSH2 0x4EFA JUMP JUMPDEST JUMPDEST DUP1 DUP3 GT ISZERO PUSH2 0x4D2F JUMPI PUSH1 0x0 DUP2 SSTORE PUSH1 0x1 ADD PUSH2 0x4F2C JUMP JUMPDEST DUP1 DUP3 GT ISZERO PUSH2 0x4D2F JUMPI PUSH1 0x0 PUSH2 0x4F54 DUP3 DUP3 PUSH2 0x4F5D JUMP JUMPDEST POP PUSH1 0x1 ADD PUSH2 0x4F40 JUMP JUMPDEST POP DUP1 SLOAD PUSH2 0x4F69 SWAP1 PUSH2 0x5CF4 JUMP JUMPDEST PUSH1 0x0 DUP3 SSTORE DUP1 PUSH1 0x1F LT PUSH2 0x4F79 JUMPI POP POP JUMP JUMPDEST PUSH1 0x1F ADD PUSH1 0x20 SWAP1 DIV SWAP1 PUSH1 0x0 MSTORE PUSH1 0x20 PUSH1 0x0 KECCAK256 SWAP1 DUP2 ADD SWAP1 PUSH2 0x4448 SWAP2 SWAP1 PUSH2 0x4F2B JUMP JUMPDEST PUSH1 0x0 PUSH1 0x1 PUSH1 0x1 PUSH1 0x40 SHL SUB DUP4 GT ISZERO PUSH2 0x4FB0 JUMPI PUSH2 0x4FB0 PUSH2 0x5D9A JUMP JUMPDEST PUSH2 0x4FC3 PUSH1 0x1F DUP5 ADD PUSH1 0x1F NOT AND PUSH1 0x20 ADD PUSH2 0x5C36 JUMP JUMPDEST SWAP1 POP DUP3 DUP2 MSTORE DUP4 DUP4 DUP4 ADD GT ISZERO PUSH2 0x4FD7 JUMPI PUSH1 0x0 DUP1 REVERT JUMPDEST DUP3 DUP3 PUSH1 0x20 DUP4 ADD CALLDATACOPY PUSH1 0x0 PUSH1 0x20 DUP5 DUP4 ADD ADD MSTORE SWAP4 SWAP3 POP POP POP JUMP JUMPDEST DUP1 CALLDATALOAD PUSH1 0x1 PUSH1 0x1 PUSH1 0xA0 SHL SUB DUP2 AND DUP2 EQ PUSH2 0x5005 JUMPI PUSH1 0x0 DUP1 REVERT JUMPDEST SWAP2 SWAP1 POP JUMP JUMPDEST PUSH1 0x0 DUP3 PUSH1 0x1F DUP4 ADD SLT PUSH2 0x501B JUMPI PUSH1 0x0 DUP1 REVERT JUMPDEST DUP2 CALLDATALOAD PUSH1 0x20 PUSH1 0x1 PUSH1 0x1 PUSH1 0x40 SHL SUB DUP1 DUP4 GT ISZERO PUSH2 0x5037 JUMPI PUSH2 0x5037 PUSH2 0x5D9A JUMP JUMPDEST DUP3 PUSH1 0x5 SHL PUSH2 0x5046 DUP4 DUP3 ADD PUSH2 0x5C36 JUMP JUMPDEST DUP5 DUP2 MSTORE DUP4 DUP2 ADD SWAP1 DUP8 DUP6 ADD DUP4 DUP10 ADD DUP7 ADD DUP11 LT ISZERO PUSH2 0x5061 JUMPI PUSH1 0x0 DUP1 REVERT JUMPDEST PUSH1 0x0 SWAP4 POP DUP4 JUMPDEST DUP8 DUP2 LT ISZERO PUSH2 0x509E JUMPI DUP2 CALLDATALOAD DUP7 DUP2 GT ISZERO PUSH2 0x507D JUMPI DUP6 DUP7 REVERT JUMPDEST PUSH2 0x508B DUP13 DUP10 DUP4 DUP15 ADD ADD PUSH2 0x50BD JUMP JUMPDEST DUP6 MSTORE POP SWAP3 DUP7 ADD SWAP3 SWAP1 DUP7 ADD SWAP1 PUSH1 0x1 ADD PUSH2 0x5067 JUMP JUMPDEST POP SWAP1 SWAP10 SWAP9 POP POP POP POP POP POP POP POP POP JUMP JUMPDEST DUP1 CALLDATALOAD DUP1 ISZERO ISZERO DUP2 EQ PUSH2 0x5005 JUMPI PUSH1 0x0 DUP1 REVERT JUMPDEST PUSH1 0x0 DUP3 PUSH1 0x1F DUP4 ADD SLT PUSH2 0x50CE JUMPI PUSH1 0x0 DUP1 REVERT JUMPDEST PUSH2 0x3EF6 DUP4 DUP4 CALLDATALOAD PUSH1 0x20 DUP6 ADD PUSH2 0x4F97 JUMP JUMPDEST PUSH1 0x0 PUSH1 0xE0 DUP3 DUP5 SUB SLT ISZERO PUSH2 0x50EF JUMPI PUSH1 0x0 DUP1 REVERT JUMPDEST PUSH2 0x50F7 PUSH2 0x5BEC JUMP JUMPDEST SWAP1 POP DUP2 CALLDATALOAD PUSH1 0x1 PUSH1 0x1 PUSH1 0x40 SHL SUB DUP1 DUP3 GT ISZERO PUSH2 0x5110 JUMPI PUSH1 0x0 DUP1 REVERT JUMPDEST PUSH2 0x511C DUP6 DUP4 DUP7 ADD PUSH2 0x50BD JUMP JUMPDEST DUP4 MSTORE PUSH1 0x20 DUP5 ADD CALLDATALOAD SWAP2 POP DUP1 DUP3 GT ISZERO PUSH2 0x5132 JUMPI PUSH1 0x0 DUP1 REVERT JUMPDEST PUSH2 0x513E DUP6 DUP4 DUP7 ADD PUSH2 0x500A JUMP JUMPDEST PUSH1 0x20 DUP5 ADD MSTORE PUSH1 0x40 DUP5 ADD CALLDATALOAD SWAP2 POP DUP1 DUP3 GT ISZERO PUSH2 0x5157 JUMPI PUSH1 0x0 DUP1 REVERT JUMPDEST PUSH2 0x5163 DUP6 DUP4 DUP7 ADD PUSH2 0x50BD JUMP JUMPDEST PUSH1 0x40 DUP5 ADD MSTORE PUSH1 0x60 DUP5 ADD CALLDATALOAD SWAP2 POP DUP1 DUP3 GT ISZERO PUSH2 0x517C JUMPI PUSH1 0x0 DUP1 REVERT JUMPDEST PUSH2 0x5188 DUP6 DUP4 DUP7 ADD PUSH2 0x50BD JUMP JUMPDEST PUSH1 0x60 DUP5 ADD MSTORE PUSH1 0x80 DUP5 ADD CALLDATALOAD SWAP2 POP DUP1 DUP3 GT ISZERO PUSH2 0x51A1 JUMPI PUSH1 0x0 DUP1 REVERT JUMPDEST PUSH2 0x51AD DUP6 DUP4 DUP7 ADD PUSH2 0x50BD JUMP JUMPDEST PUSH1 0x80 DUP5 ADD MSTORE PUSH1 0xA0 DUP5 ADD CALLDATALOAD SWAP2 POP DUP1 DUP3 GT ISZERO PUSH2 0x51C6 JUMPI PUSH1 0x0 DUP1 REVERT JUMPDEST POP PUSH2 0x51D3 DUP5 DUP3 DUP6 ADD PUSH2 0x50BD JUMP JUMPDEST PUSH1 0xA0 DUP4 ADD MSTORE POP PUSH2 0x51E5 PUSH1 0xC0 DUP4 ADD PUSH2 0x50AD JUMP JUMPDEST PUSH1 0xC0 DUP3 ADD MSTORE SWAP3 SWAP2 POP POP JUMP JUMPDEST PUSH1 0x0 PUSH1 0x80 DUP3 DUP5 SUB SLT ISZERO PUSH2 0x5202 JUMPI PUSH1 0x0 DUP1 REVERT JUMPDEST PUSH2 0x520A PUSH2 0x5C14 JUMP JUMPDEST SWAP1 POP DUP2 CALLDATALOAD PUSH1 0x1 PUSH1 0x1 PUSH1 0x40 SHL SUB DUP1 DUP3 GT ISZERO PUSH2 0x5223 JUMPI PUSH1 0x0 DUP1 REVERT JUMPDEST PUSH2 0x522F DUP6 DUP4 DUP7 ADD PUSH2 0x50BD JUMP JUMPDEST DUP4 MSTORE PUSH1 0x20 DUP5 ADD CALLDATALOAD SWAP2 POP DUP1 DUP3 GT ISZERO PUSH2 0x5245 JUMPI PUSH1 0x0 DUP1 REVERT JUMPDEST PUSH2 0x5251 DUP6 DUP4 DUP7 ADD PUSH2 0x50BD JUMP JUMPDEST PUSH1 0x20 DUP5 ADD MSTORE PUSH1 0x40 DUP5 ADD CALLDATALOAD SWAP2 POP DUP1 DUP3 GT ISZERO PUSH2 0x526A JUMPI PUSH1 0x0 DUP1 REVERT JUMPDEST PUSH2 0x5276 DUP6 DUP4 DUP7 ADD PUSH2 0x50BD JUMP JUMPDEST PUSH1 0x40 DUP5 ADD MSTORE PUSH1 0x60 DUP5 ADD CALLDATALOAD SWAP2 POP DUP1 DUP3 GT ISZERO PUSH2 0x528F JUMPI PUSH1 0x0 DUP1 REVERT JUMPDEST POP PUSH2 0x529C DUP5 DUP3 DUP6 ADD PUSH2 0x50BD JUMP JUMPDEST PUSH1 0x60 DUP4 ADD MSTORE POP SWAP3 SWAP2 POP POP JUMP JUMPDEST PUSH1 0x0 PUSH1 0x20 DUP3 DUP5 SUB SLT ISZERO PUSH2 0x52BA JUMPI PUSH1 0x0 DUP1 REVERT JUMPDEST PUSH2 0x3EF6 DUP3 PUSH2 0x4FEE JUMP JUMPDEST PUSH1 0x0 DUP1 PUSH1 0x40 DUP4 DUP6 SUB SLT ISZERO PUSH2 0x52D6 JUMPI PUSH1 0x0 DUP1 REVERT JUMPDEST PUSH2 0x52DF DUP4 PUSH2 0x4FEE JUMP JUMPDEST SWAP2 POP PUSH2 0x52ED PUSH1 0x20 DUP5 ADD PUSH2 0x4FEE JUMP JUMPDEST SWAP1 POP SWAP3 POP SWAP3 SWAP1 POP JUMP JUMPDEST PUSH1 0x0 DUP1 PUSH1 0x0 PUSH1 0x60 DUP5 DUP7 SUB SLT ISZERO PUSH2 0x530B JUMPI PUSH1 0x0 DUP1 REVERT JUMPDEST PUSH2 0x5314 DUP5 PUSH2 0x4FEE JUMP JUMPDEST SWAP3 POP PUSH2 0x5322 PUSH1 0x20 DUP6 ADD PUSH2 0x4FEE JUMP JUMPDEST SWAP2 POP PUSH1 0x40 DUP5 ADD CALLDATALOAD SWAP1 POP SWAP3 POP SWAP3 POP SWAP3 JUMP JUMPDEST PUSH1 0x0 DUP1 PUSH1 0x0 DUP1 PUSH1 0x80 DUP6 DUP8 SUB SLT ISZERO PUSH2 0x5348 JUMPI PUSH1 0x0 DUP1 REVERT JUMPDEST PUSH2 0x5351 DUP6 PUSH2 0x4FEE JUMP JUMPDEST SWAP4 POP PUSH2 0x535F PUSH1 0x20 DUP7 ADD PUSH2 0x4FEE JUMP JUMPDEST SWAP3 POP PUSH1 0x40 DUP6 ADD CALLDATALOAD SWAP2 POP PUSH1 0x60 DUP6 ADD CALLDATALOAD PUSH1 0x1 PUSH1 0x1 PUSH1 0x40 SHL SUB DUP2 GT ISZERO PUSH2 0x5381 JUMPI PUSH1 0x0 DUP1 REVERT JUMPDEST DUP6 ADD PUSH1 0x1F DUP2 ADD DUP8 SGT PUSH2 0x5392 JUMPI PUSH1 0x0 DUP1 REVERT JUMPDEST PUSH2 0x53A1 DUP8 DUP3 CALLDATALOAD PUSH1 0x20 DUP5 ADD PUSH2 0x4F97 JUMP JUMPDEST SWAP2 POP POP SWAP3 SWAP6 SWAP2 SWAP5 POP SWAP3 POP JUMP JUMPDEST PUSH1 0x0 DUP1 PUSH1 0x40 DUP4 DUP6 SUB SLT ISZERO PUSH2 0x53C0 JUMPI PUSH1 0x0 DUP1 REVERT JUMPDEST PUSH2 0x53C9 DUP4 PUSH2 0x4FEE JUMP JUMPDEST SWAP2 POP PUSH2 0x52ED PUSH1 0x20 DUP5 ADD PUSH2 0x50AD JUMP JUMPDEST PUSH1 0x0 DUP1 PUSH1 0x40 DUP4 DUP6 SUB SLT ISZERO PUSH2 0x53EA JUMPI PUSH1 0x0 DUP1 REVERT JUMPDEST PUSH2 0x53F3 DUP4 PUSH2 0x4FEE JUMP JUMPDEST SWAP5 PUSH1 0x20 SWAP4 SWAP1 SWAP4 ADD CALLDATALOAD SWAP4 POP POP POP JUMP JUMPDEST PUSH1 0x0 PUSH1 0x20 DUP3 DUP5 SUB SLT ISZERO PUSH2 0x5413 JUMPI PUSH1 0x0 DUP1 REVERT JUMPDEST DUP2 CALLDATALOAD PUSH2 0x3EF6 DUP2 PUSH2 0x5DB0 JUMP JUMPDEST PUSH1 0x0 PUSH1 0x20 DUP3 DUP5 SUB SLT ISZERO PUSH2 0x5430 JUMPI PUSH1 0x0 DUP1 REVERT JUMPDEST DUP2 MLOAD PUSH2 0x3EF6 DUP2 PUSH2 0x5DB0 JUMP JUMPDEST PUSH1 0x0 DUP1 PUSH1 0x0 DUP1 PUSH1 0x0 DUP1 PUSH1 0x0 DUP1 PUSH1 0x0 DUP1 PUSH2 0x140 DUP12 DUP14 SUB SLT ISZERO PUSH2 0x545B JUMPI PUSH1 0x0 DUP1 REVERT JUMPDEST DUP11 CALLDATALOAD PUSH1 0x1 PUSH1 0x1 PUSH1 0x40 SHL SUB DUP1 DUP3 GT ISZERO PUSH2 0x5472 JUMPI PUSH1 0x0 DUP1 REVERT JUMPDEST PUSH2 0x547E DUP15 DUP4 DUP16 ADD PUSH2 0x50BD JUMP JUMPDEST SWAP12 POP PUSH1 0x20 DUP14 ADD CALLDATALOAD SWAP2 POP DUP1 DUP3 GT ISZERO PUSH2 0x5494 JUMPI PUSH1 0x0 DUP1 REVERT JUMPDEST PUSH2 0x54A0 DUP15 DUP4 DUP16 ADD PUSH2 0x50BD JUMP JUMPDEST SWAP11 POP PUSH1 0x40 DUP14 ADD CALLDATALOAD SWAP10 POP PUSH1 0x60 DUP14 ADD CALLDATALOAD SWAP2 POP DUP1 DUP3 GT ISZERO PUSH2 0x54BD JUMPI PUSH1 0x0 DUP1 REVERT JUMPDEST PUSH2 0x54C9 DUP15 DUP4 DUP16 ADD PUSH2 0x50BD JUMP JUMPDEST SWAP9 POP PUSH1 0x80 DUP14 ADD CALLDATALOAD SWAP2 POP DUP1 DUP3 GT ISZERO PUSH2 0x54DF JUMPI PUSH1 0x0 DUP1 REVERT JUMPDEST PUSH2 0x54EB DUP15 DUP4 DUP16 ADD PUSH2 0x50BD JUMP JUMPDEST SWAP8 POP PUSH1 0xA0 DUP14 ADD CALLDATALOAD SWAP2 POP DUP1 DUP3 GT ISZERO PUSH2 0x5501 JUMPI PUSH1 0x0 DUP1 REVERT JUMPDEST PUSH2 0x550D DUP15 DUP4 DUP16 ADD PUSH2 0x50BD JUMP JUMPDEST SWAP7 POP PUSH1 0xC0 DUP14 ADD CALLDATALOAD SWAP2 POP DUP1 DUP3 GT ISZERO PUSH2 0x5523 JUMPI PUSH1 0x0 DUP1 REVERT JUMPDEST PUSH2 0x552F DUP15 DUP4 DUP16 ADD PUSH2 0x50BD JUMP JUMPDEST SWAP6 POP PUSH2 0x553D PUSH1 0xE0 DUP15 ADD PUSH2 0x50AD JUMP JUMPDEST SWAP5 POP PUSH2 0x100 DUP14 ADD CALLDATALOAD SWAP2 POP DUP1 DUP3 GT ISZERO PUSH2 0x5554 JUMPI PUSH1 0x0 DUP1 REVERT JUMPDEST PUSH2 0x5560 DUP15 DUP4 DUP16 ADD PUSH2 0x51F0 JUMP JUMPDEST SWAP4 POP PUSH2 0x120 DUP14 ADD CALLDATALOAD SWAP2 POP DUP1 DUP3 GT ISZERO PUSH2 0x5577 JUMPI PUSH1 0x0 DUP1 REVERT JUMPDEST POP PUSH2 0x5584 DUP14 DUP3 DUP15 ADD PUSH2 0x50DD JUMP JUMPDEST SWAP2 POP POP SWAP3 SWAP6 SWAP9 SWAP12 SWAP2 SWAP5 SWAP8 SWAP11 POP SWAP3 SWAP6 SWAP9 POP JUMP JUMPDEST PUSH1 0x0 PUSH1 0x20 DUP3 DUP5 SUB SLT ISZERO PUSH2 0x55A8 JUMPI PUSH1 0x0 DUP1 REVERT JUMPDEST POP CALLDATALOAD SWAP2 SWAP1 POP JUMP JUMPDEST PUSH1 0x0 DUP1 PUSH1 0x40 DUP4 DUP6 SUB SLT ISZERO PUSH2 0x55C2 JUMPI PUSH1 0x0 DUP1 REVERT JUMPDEST POP POP DUP1 CALLDATALOAD SWAP3 PUSH1 0x20 SWAP1 SWAP2 ADD CALLDATALOAD SWAP2 POP JUMP JUMPDEST PUSH1 0x0 DUP2 MLOAD DUP1 DUP5 MSTORE PUSH1 0x20 DUP1 DUP6 ADD SWAP5 POP DUP1 DUP5 ADD PUSH1 0x0 JUMPDEST DUP4 DUP2 LT ISZERO PUSH2 0x5601 JUMPI DUP2 MLOAD DUP8 MSTORE SWAP6 DUP3 ADD SWAP6 SWAP1 DUP3 ADD SWAP1 PUSH1 0x1 ADD PUSH2 0x55E5 JUMP JUMPDEST POP SWAP5 SWAP6 SWAP5 POP POP POP POP POP JUMP JUMPDEST PUSH1 0x0 DUP2 MLOAD DUP1 DUP5 MSTORE PUSH2 0x5624 DUP2 PUSH1 0x20 DUP7 ADD PUSH1 0x20 DUP7 ADD PUSH2 0x5CC8 JUMP JUMPDEST PUSH1 0x1F ADD PUSH1 0x1F NOT AND SWAP3 SWAP1 SWAP3 ADD PUSH1 0x20 ADD SWAP3 SWAP2 POP POP JUMP JUMPDEST DUP1 SLOAD PUSH1 0x0 SWAP1 PUSH1 0x1 DUP2 DUP2 SHR SWAP1 DUP1 DUP4 AND DUP1 PUSH2 0x5652 JUMPI PUSH1 0x7F DUP4 AND SWAP3 POP JUMPDEST PUSH1 0x20 DUP1 DUP5 LT DUP3 EQ ISZERO PUSH2 0x5674 JUMPI PUSH4 0x4E487B71 PUSH1 0xE0 SHL PUSH1 0x0 MSTORE PUSH1 0x22 PUSH1 0x4 MSTORE PUSH1 0x24 PUSH1 0x0 REVERT JUMPDEST DUP4 DUP9 MSTORE PUSH1 0x20 DUP9 ADD DUP3 DUP1 ISZERO PUSH2 0x568F JUMPI PUSH1 0x1 DUP2 EQ PUSH2 0x56A0 JUMPI PUSH2 0x56CB JUMP JUMPDEST PUSH1 0xFF NOT DUP8 AND DUP3 MSTORE DUP3 DUP3 ADD SWAP8 POP PUSH2 0x56CB JUMP JUMPDEST PUSH1 0x0 DUP10 DUP2 MSTORE PUSH1 0x20 SWAP1 KECCAK256 PUSH1 0x0 JUMPDEST DUP8 DUP2 LT ISZERO PUSH2 0x56C5 JUMPI DUP2 SLOAD DUP5 DUP3 ADD MSTORE SWAP1 DUP7 ADD SWAP1 DUP5 ADD PUSH2 0x56AC JUMP JUMPDEST DUP4 ADD SWAP9 POP POP JUMPDEST POP POP POP POP POP POP POP SWAP3 SWAP2 POP POP JUMP JUMPDEST PUSH1 0x0 DUP2 MLOAD PUSH1 0xE0 DUP5 MSTORE PUSH2 0x56ED PUSH1 0xE0 DUP6 ADD DUP3 PUSH2 0x560C JUMP JUMPDEST SWAP1 POP PUSH1 0x20 DUP1 DUP5 ADD MLOAD DUP6 DUP4 SUB DUP3 DUP8 ADD MSTORE DUP3 DUP2 MLOAD DUP1 DUP6 MSTORE DUP4 DUP6 ADD SWAP2 POP DUP4 DUP2 PUSH1 0x5 SHL DUP7 ADD ADD DUP5 DUP5 ADD SWAP4 POP PUSH1 0x0 JUMPDEST DUP3 DUP2 LT ISZERO PUSH2 0x5745 JUMPI PUSH1 0x1F NOT DUP8 DUP4 SUB ADD DUP5 MSTORE PUSH2 0x5733 DUP3 DUP7 MLOAD PUSH2 0x560C JUMP JUMPDEST SWAP5 DUP7 ADD SWAP5 SWAP4 DUP7 ADD SWAP4 SWAP2 POP PUSH1 0x1 ADD PUSH2 0x5717 JUMP JUMPDEST POP PUSH1 0x40 DUP9 ADD MLOAD SWAP6 POP DUP9 DUP2 SUB PUSH1 0x40 DUP11 ADD MSTORE PUSH2 0x575F DUP2 DUP8 PUSH2 0x560C JUMP JUMPDEST SWAP6 POP POP POP POP POP POP PUSH1 0x60 DUP4 ADD MLOAD DUP5 DUP3 SUB PUSH1 0x60 DUP7 ADD MSTORE PUSH2 0x577D DUP3 DUP3 PUSH2 0x560C JUMP JUMPDEST SWAP2 POP POP PUSH1 0x80 DUP4 ADD MLOAD DUP5 DUP3 SUB PUSH1 0x80 DUP7 ADD MSTORE PUSH2 0x5797 DUP3 DUP3 PUSH2 0x560C JUMP JUMPDEST SWAP2 POP POP PUSH1 0xA0 DUP4 ADD MLOAD DUP5 DUP3 SUB PUSH1 0xA0 DUP7 ADD MSTORE PUSH2 0x57B1 DUP3 DUP3 PUSH2 0x560C JUMP JUMPDEST SWAP2 POP POP PUSH1 0xC0 DUP4 ADD MLOAD PUSH2 0x57C7 PUSH1 0xC0 DUP7 ADD DUP3 ISZERO ISZERO SWAP1 MSTORE JUMP JUMPDEST POP SWAP4 SWAP3 POP POP POP JUMP JUMPDEST PUSH1 0x0 DUP2 MLOAD PUSH1 0x80 DUP5 MSTORE PUSH2 0x57E4 PUSH1 0x80 DUP6 ADD DUP3 PUSH2 0x560C JUMP JUMPDEST SWAP1 POP PUSH1 0x20 DUP4 ADD MLOAD DUP5 DUP3 SUB PUSH1 0x20 DUP7 ADD MSTORE PUSH2 0x57FD DUP3 DUP3 PUSH2 0x560C JUMP JUMPDEST SWAP2 POP POP PUSH1 0x40 DUP4 ADD MLOAD DUP5 DUP3 SUB PUSH1 0x40 DUP7 ADD MSTORE PUSH2 0x5817 DUP3 DUP3 PUSH2 0x560C JUMP JUMPDEST SWAP2 POP POP PUSH1 0x60 DUP4 ADD MLOAD DUP5 DUP3 SUB PUSH1 0x60 DUP7 ADD MSTORE PUSH2 0x5831 DUP3 DUP3 PUSH2 0x560C JUMP JUMPDEST SWAP6 SWAP5 POP POP POP POP POP JUMP JUMPDEST DUP1 MLOAD PUSH1 0x60 DUP1 DUP5 MSTORE DUP2 MLOAD SWAP1 DUP5 ADD DUP2 SWAP1 MSTORE PUSH1 0x0 SWAP2 PUSH1 0x20 SWAP2 SWAP1 DUP3 ADD SWAP1 PUSH1 0x80 DUP7 ADD SWAP1 DUP5 JUMPDEST DUP2 DUP2 LT ISZERO PUSH2 0x587F JUMPI DUP4 MLOAD PUSH1 0x1 PUSH1 0x1 PUSH1 0xA0 SHL SUB AND DUP4 MSTORE SWAP3 DUP5 ADD SWAP3 SWAP2 DUP5 ADD SWAP2 PUSH1 0x1 ADD PUSH2 0x585A JUMP JUMPDEST POP POP DUP3 DUP6 ADD MLOAD SWAP2 POP DUP6 DUP2 SUB DUP4 DUP8 ADD MSTORE PUSH2 0x5898 DUP2 DUP4 PUSH2 0x55D1 JUMP JUMPDEST SWAP3 POP POP POP PUSH1 0x40 DUP4 ADD MLOAD DUP5 DUP3 SUB PUSH1 0x40 DUP7 ADD MSTORE PUSH2 0x5831 DUP3 DUP3 PUSH2 0x55D1 JUMP JUMPDEST PUSH1 0x0 DUP4 MLOAD PUSH2 0x58C5 DUP2 DUP5 PUSH1 0x20 DUP9 ADD PUSH2 0x5CC8 JUMP JUMPDEST DUP4 MLOAD SWAP1 DUP4 ADD SWAP1 PUSH2 0x58D9 DUP2 DUP4 PUSH1 0x20 DUP9 ADD PUSH2 0x5CC8 JUMP JUMPDEST ADD SWAP5 SWAP4 POP POP POP POP JUMP JUMPDEST PUSH1 0x1 PUSH1 0x1 PUSH1 0xA0 SHL SUB DUP6 DUP2 AND DUP3 MSTORE DUP5 AND PUSH1 0x20 DUP3 ADD MSTORE PUSH1 0x40 DUP2 ADD DUP4 SWAP1 MSTORE PUSH1 0x80 PUSH1 0x60 DUP3 ADD DUP2 SWAP1 MSTORE PUSH1 0x0 SWAP1 PUSH2 0x5915 SWAP1 DUP4 ADD DUP5 PUSH2 0x560C JUMP JUMPDEST SWAP7 SWAP6 POP POP POP POP POP POP JUMP JUMPDEST PUSH1 0x0 PUSH1 0x20 DUP1 DUP4 ADD DUP2 DUP5 MSTORE DUP1 DUP6 MLOAD DUP1 DUP4 MSTORE PUSH1 0x40 SWAP3 POP DUP3 DUP7 ADD SWAP2 POP DUP3 DUP2 PUSH1 0x5 SHL DUP8 ADD ADD DUP5 DUP9 ADD PUSH1 0x0 JUMPDEST DUP4 DUP2 LT ISZERO PUSH2 0x5A64 JUMPI PUSH1 0x3F NOT DUP10 DUP5 SUB ADD DUP6 MSTORE DUP2 MLOAD PUSH2 0x180 DUP2 MLOAD DUP6 MSTORE DUP9 DUP3 ADD MLOAD DUP2 DUP11 DUP8 ADD MSTORE PUSH2 0x5975 DUP3 DUP8 ADD DUP3 PUSH2 0x560C JUMP JUMPDEST SWAP2 POP POP DUP8 DUP3 ADD MLOAD DUP6 DUP3 SUB DUP10 DUP8 ADD MSTORE PUSH2 0x598D DUP3 DUP3 PUSH2 0x560C JUMP JUMPDEST SWAP2 POP POP PUSH1 0x60 DUP1 DUP4 ADD MLOAD DUP2 DUP8 ADD MSTORE POP PUSH1 0x80 DUP1 DUP4 ADD MLOAD DUP2 DUP8 ADD MSTORE POP PUSH1 0xA0 DUP1 DUP4 ADD MLOAD DUP7 DUP4 SUB DUP3 DUP9 ADD MSTORE PUSH2 0x59BD DUP4 DUP3 PUSH2 0x57CF JUMP JUMPDEST SWAP3 POP POP POP PUSH1 0xC0 DUP1 DUP4 ADD MLOAD PUSH2 0x59DB DUP3 DUP9 ADD DUP3 PUSH1 0x1 PUSH1 0x1 PUSH1 0xA0 SHL SUB AND SWAP1 MSTORE JUMP JUMPDEST POP POP PUSH1 0xE0 DUP3 DUP2 ADD MLOAD PUSH1 0x1 PUSH1 0x1 PUSH1 0xA0 SHL SUB AND SWAP1 DUP7 ADD MSTORE PUSH2 0x100 DUP1 DUP4 ADD MLOAD ISZERO ISZERO SWAP1 DUP7 ADD MSTORE PUSH2 0x120 DUP1 DUP4 ADD MLOAD DUP7 DUP4 SUB DUP3 DUP9 ADD MSTORE PUSH2 0x5A15 DUP4 DUP3 PUSH2 0x583A JUMP JUMPDEST SWAP3 POP POP POP PUSH2 0x140 DUP1 DUP4 ADD MLOAD DUP7 DUP4 SUB DUP3 DUP9 ADD MSTORE PUSH2 0x5A31 DUP4 DUP3 PUSH2 0x57CF JUMP JUMPDEST SWAP3 POP POP POP PUSH2 0x160 DUP1 DUP4 ADD MLOAD SWAP3 POP DUP6 DUP3 SUB DUP2 DUP8 ADD MSTORE POP PUSH2 0x5A50 DUP2 DUP4 PUSH2 0x56D8 JUMP JUMPDEST SWAP7 DUP10 ADD SWAP7 SWAP5 POP POP POP SWAP1 DUP7 ADD SWAP1 PUSH1 0x1 ADD PUSH2 0x5946 JUMP JUMPDEST POP SWAP1 SWAP9 SWAP8 POP POP POP POP POP POP POP POP JUMP JUMPDEST PUSH1 0x20 DUP2 MSTORE PUSH1 0x0 PUSH2 0x3EF6 PUSH1 0x20 DUP4 ADD DUP5 PUSH2 0x560C JUMP JUMPDEST PUSH1 0x20 DUP1 DUP3 MSTORE PUSH1 0x32 SWAP1 DUP3 ADD MSTORE PUSH32 0x4552433732313A207472616E7366657220746F206E6F6E204552433732315265 PUSH1 0x40 DUP3 ADD MSTORE PUSH18 0x31B2B4BB32B91034B6B83632B6B2B73A32B9 PUSH1 0x71 SHL PUSH1 0x60 DUP3 ADD MSTORE PUSH1 0x80 ADD SWAP1 JUMP JUMPDEST PUSH1 0x20 DUP1 DUP3 MSTORE PUSH1 0xF SWAP1 DUP3 ADD MSTORE PUSH15 0x125B9D985B1A59081CDBDB99C81A59 PUSH1 0x8A SHL PUSH1 0x40 DUP3 ADD MSTORE PUSH1 0x60 ADD SWAP1 JUMP JUMPDEST PUSH1 0x20 DUP1 DUP3 MSTORE PUSH1 0x2E SWAP1 DUP3 ADD MSTORE PUSH32 0x4552433732313A2063616C6C6572206973206E6F7420746F6B656E206F776E65 PUSH1 0x40 DUP3 ADD MSTORE PUSH14 0x1C881B9BDC88185C1C1C9BDD9959 PUSH1 0x92 SHL PUSH1 0x60 DUP3 ADD MSTORE PUSH1 0x80 ADD SWAP1 JUMP JUMPDEST DUP6 DUP2 MSTORE PUSH1 0xA0 PUSH1 0x20 DUP3 ADD MSTORE PUSH1 0x0 PUSH2 0x5B67 PUSH1 0xA0 DUP4 ADD DUP8 PUSH2 0x560C JUMP JUMPDEST DUP3 DUP2 SUB PUSH1 0x40 DUP5 ADD MSTORE PUSH2 0x5B79 DUP2 DUP8 PUSH2 0x560C JUMP JUMPDEST PUSH1 0x60 DUP5 ADD SWAP6 SWAP1 SWAP6 MSTORE POP POP PUSH1 0x80 ADD MSTORE SWAP4 SWAP3 POP POP POP JUMP JUMPDEST DUP8 DUP2 MSTORE PUSH1 0xE0 PUSH1 0x20 DUP3 ADD MSTORE PUSH1 0x0 PUSH2 0x5BA7 PUSH1 0xE0 DUP4 ADD DUP10 PUSH2 0x5638 JUMP JUMPDEST DUP3 DUP2 SUB PUSH1 0x40 DUP5 ADD MSTORE PUSH2 0x5BB9 DUP2 DUP10 PUSH2 0x5638 JUMP JUMPDEST PUSH1 0x60 DUP5 ADD SWAP8 SWAP1 SWAP8 MSTORE POP POP PUSH1 0x1 PUSH1 0x1 PUSH1 0xA0 SHL SUB SWAP4 DUP5 AND PUSH1 0x80 DUP3 ADD MSTORE SWAP2 SWAP1 SWAP3 AND PUSH1 0xA0 DUP3 ADD MSTORE SWAP1 ISZERO ISZERO PUSH1 0xC0 SWAP1 SWAP2 ADD MSTORE SWAP4 SWAP3 POP POP POP JUMP JUMPDEST PUSH1 0x40 MLOAD PUSH1 0xE0 DUP2 ADD PUSH1 0x1 PUSH1 0x1 PUSH1 0x40 SHL SUB DUP2 GT DUP3 DUP3 LT OR ISZERO PUSH2 0x5C0E JUMPI PUSH2 0x5C0E PUSH2 0x5D9A JUMP JUMPDEST PUSH1 0x40 MSTORE SWAP1 JUMP JUMPDEST PUSH1 0x40 MLOAD PUSH1 0x80 DUP2 ADD PUSH1 0x1 PUSH1 0x1 PUSH1 0x40 SHL SUB DUP2 GT DUP3 DUP3 LT OR ISZERO PUSH2 0x5C0E JUMPI PUSH2 0x5C0E PUSH2 0x5D9A JUMP JUMPDEST PUSH1 0x40 MLOAD PUSH1 0x1F DUP3 ADD PUSH1 0x1F NOT AND DUP2 ADD PUSH1 0x1 PUSH1 0x1 PUSH1 0x40 SHL SUB DUP2 GT DUP3 DUP3 LT OR ISZERO PUSH2 0x5C5E JUMPI PUSH2 0x5C5E PUSH2 0x5D9A JUMP JUMPDEST PUSH1 0x40 MSTORE SWAP2 SWAP1 POP JUMP JUMPDEST PUSH1 0x0 DUP3 NOT DUP3 GT ISZERO PUSH2 0x5C79 JUMPI PUSH2 0x5C79 PUSH2 0x5D58 JUMP JUMPDEST POP ADD SWAP1 JUMP JUMPDEST PUSH1 0x0 DUP3 PUSH2 0x5C8D JUMPI PUSH2 0x5C8D PUSH2 0x5D6E JUMP JUMPDEST POP DIV SWAP1 JUMP JUMPDEST PUSH1 0x0 DUP2 PUSH1 0x0 NOT DIV DUP4 GT DUP3 ISZERO ISZERO AND ISZERO PUSH2 0x5CAC JUMPI PUSH2 0x5CAC PUSH2 0x5D58 JUMP JUMPDEST POP MUL SWAP1 JUMP JUMPDEST PUSH1 0x0 DUP3 DUP3 LT ISZERO PUSH2 0x5CC3 JUMPI PUSH2 0x5CC3 PUSH2 0x5D58 JUMP JUMPDEST POP SUB SWAP1 JUMP JUMPDEST PUSH1 0x0 JUMPDEST DUP4 DUP2 LT ISZERO PUSH2 0x5CE3 JUMPI DUP2 DUP2 ADD MLOAD DUP4 DUP3 ADD MSTORE PUSH1 0x20 ADD PUSH2 0x5CCB JUMP JUMPDEST DUP4 DUP2 GT ISZERO PUSH2 0x3E83 JUMPI POP POP PUSH1 0x0 SWAP2 ADD MSTORE JUMP JUMPDEST PUSH1 0x1 DUP2 DUP2 SHR SWAP1 DUP3 AND DUP1 PUSH2 0x5D08 JUMPI PUSH1 0x7F DUP3 AND SWAP2 POP JUMPDEST PUSH1 0x20 DUP3 LT DUP2 EQ ISZERO PUSH2 0x1F33 JUMPI PUSH4 0x4E487B71 PUSH1 0xE0 SHL PUSH1 0x0 MSTORE PUSH1 0x22 PUSH1 0x4 MSTORE PUSH1 0x24 PUSH1 0x0 REVERT JUMPDEST PUSH1 0x0 PUSH1 0x0 NOT DUP3 EQ ISZERO PUSH2 0x5D3D JUMPI PUSH2 0x5D3D PUSH2 0x5D58 JUMP JUMPDEST POP PUSH1 0x1 ADD SWAP1 JUMP JUMPDEST PUSH1 0x0 DUP3 PUSH2 0x5D53 JUMPI PUSH2 0x5D53 PUSH2 0x5D6E JUMP JUMPDEST POP MOD SWAP1 JUMP JUMPDEST PUSH4 0x4E487B71 PUSH1 0xE0 SHL PUSH1 0x0 MSTORE PUSH1 0x11 PUSH1 0x4 MSTORE PUSH1 0x24 PUSH1 0x0 REVERT JUMPDEST PUSH4 0x4E487B71 PUSH1 0xE0 SHL PUSH1 0x0 MSTORE PUSH1 0x12 PUSH1 0x4 MSTORE PUSH1 0x24 PUSH1 0x0 REVERT JUMPDEST PUSH4 0x4E487B71 PUSH1 0xE0 SHL PUSH1 0x0 MSTORE PUSH1 0x32 PUSH1 0x4 MSTORE PUSH1 0x24 PUSH1 0x0 REVERT JUMPDEST PUSH4 0x4E487B71 PUSH1 0xE0 SHL PUSH1 0x0 MSTORE PUSH1 0x41 PUSH1 0x4 MSTORE PUSH1 0x24 PUSH1 0x0 REVERT JUMPDEST PUSH1 0x1 PUSH1 0x1 PUSH1 0xE0 SHL SUB NOT DUP2 AND DUP2 EQ PUSH2 0x4448 JUMPI PUSH1 0x0 DUP1 REVERT INVALID LOG2 PUSH5 0x6970667358 0x22 SLT KECCAK256 STATICCALL ISZERO ADD 0xAB 0xC9 PUSH11 0xB974DFF78A968703397E89 0xFB PUSH29 0x87DB023937D1D49E24070FEFFC64736F6C634300080700330000000000 "
		},
		"gasEstimates": {
			"creation": {
				"codeDepositCost": "4812000",
				"executionCost": "infinite",
				"totalCost": "infinite"
			},
			"external": {
				"approve(address,uint256)": "infinite",
				"balanceOf(address)": "2656",
				"createSong(string,string,uint256,string,string,string,string,bool,(string,string,string,string),(string,string[],string,string,string,string,bool))": "infinite",
				"fetchAllNFTs()": "infinite",
				"fetchMyNFTs()": "infinite",
				"fetchNFTsCreated()": "infinite",
				"getApproved(uint256)": "4792",
				"isApprovedForAll(address,address)": "infinite",
				"name()": "infinite",
				"ownerOf(uint256)": "2583",
				"purchaseSong(uint256)": "infinite",
				"safeTransferFrom(address,address,uint256)": "infinite",
				"safeTransferFrom(address,address,uint256,bytes)": "infinite",
				"setApprovalForAll(address,bool)": "infinite",
				"songsCount()": "2384",
				"supportsInterface(bytes4)": "534",
				"symbol()": "infinite",
				"toggleOnSale(uint256)": "infinite",
				"tokenURI(uint256)": "infinite",
				"transferFrom(address,address,uint256)": "infinite",
				"updatePrice(uint256,uint256)": "infinite"
			}
		},
		"methodIdentifiers": {
			"approve(address,uint256)": "095ea7b3",
			"balanceOf(address)": "70a08231",
			"createSong(string,string,uint256,string,string,string,string,bool,(string,string,string,string),(string,string[],string,string,string,string,bool))": "5375faa5",
			"fetchAllNFTs()": "3f0e317b",
			"fetchMyNFTs()": "202e3740",
			"fetchNFTsCreated()": "5cc11b34",
			"getApproved(uint256)": "081812fc",
			"isApprovedForAll(address,address)": "e985e9c5",
			"name()": "06fdde03",
			"ownerOf(uint256)": "6352211e",
			"purchaseSong(uint256)": "7b3e4ce0",
			"safeTransferFrom(address,address,uint256)": "42842e0e",
			"safeTransferFrom(address,address,uint256,bytes)": "b88d4fde",
			"setApprovalForAll(address,bool)": "a22cb465",
			"songsCount()": "4e8172b8",
			"supportsInterface(bytes4)": "01ffc9a7",
			"symbol()": "95d89b41",
			"toggleOnSale(uint256)": "ee169bd3",
			"tokenURI(uint256)": "c87b56dd",
			"transferFrom(address,address,uint256)": "23b872dd",
			"updatePrice(uint256,uint256)": "82367b2d"
		}
	},
	"abi": [
		{
			"inputs": [],
			"stateMutability": "nonpayable",
			"type": "constructor"
		},
		{
			"anonymous": false,
			"inputs": [
				{
					"indexed": true,
					"internalType": "address",
					"name": "owner",
					"type": "address"
				},
				{
					"indexed": true,
					"internalType": "address",
					"name": "approved",
					"type": "address"
				},
				{
					"indexed": true,
					"internalType": "uint256",
					"name": "tokenId",
					"type": "uint256"
				}
			],
			"name": "Approval",
			"type": "event"
		},
		{
			"anonymous": false,
			"inputs": [
				{
					"indexed": true,
					"internalType": "address",
					"name": "owner",
					"type": "address"
				},
				{
					"indexed": true,
					"internalType": "address",
					"name": "operator",
					"type": "address"
				},
				{
					"indexed": false,
					"internalType": "bool",
					"name": "approved",
					"type": "bool"
				}
			],
			"name": "ApprovalForAll",
			"type": "event"
		},
		{
			"anonymous": false,
			"inputs": [
				{
					"indexed": false,
					"internalType": "uint256",
					"name": "fundsTransferredToSeller",
					"type": "uint256"
				},
				{
					"indexed": false,
					"internalType": "uint256",
					"name": "fundsTransferredToArtist",
					"type": "uint256"
				}
			],
			"name": "FundsTransferred",
			"type": "event"
		},
		{
			"anonymous": false,
			"inputs": [
				{
					"indexed": false,
					"internalType": "uint256",
					"name": "fundsTransferredToArtist",
					"type": "uint256"
				}
			],
			"name": "FundsTransferredToArtist",
			"type": "event"
		},
		{
			"anonymous": false,
			"inputs": [
				{
					"indexed": false,
					"internalType": "uint256",
					"name": "id",
					"type": "uint256"
				},
				{
					"indexed": false,
					"internalType": "string",
					"name": "songName",
					"type": "string"
				},
				{
					"indexed": false,
					"internalType": "string",
					"name": "artistName",
					"type": "string"
				},
				{
					"indexed": false,
					"internalType": "uint256",
					"name": "price",
					"type": "uint256"
				},
				{
					"indexed": false,
					"internalType": "uint256",
					"name": "createTime",
					"type": "uint256"
				}
			],
			"name": "SongCreated",
			"type": "event"
		},
		{
			"anonymous": false,
			"inputs": [
				{
					"indexed": false,
					"internalType": "uint256",
					"name": "id",
					"type": "uint256"
				},
				{
					"indexed": false,
					"internalType": "string",
					"name": "songName",
					"type": "string"
				},
				{
					"indexed": false,
					"internalType": "string",
					"name": "artistName",
					"type": "string"
				},
				{
					"indexed": false,
					"internalType": "uint256",
					"name": "price",
					"type": "uint256"
				},
				{
					"indexed": false,
					"internalType": "address payable",
					"name": "artistAddress",
					"type": "address"
				},
				{
					"indexed": false,
					"internalType": "address payable",
					"name": "currentOwnerAddress",
					"type": "address"
				},
				{
					"indexed": false,
					"internalType": "bool",
					"name": "onSale",
					"type": "bool"
				}
			],
			"name": "SongPurchased",
			"type": "event"
		},
		{
			"anonymous": false,
			"inputs": [
				{
					"indexed": false,
					"internalType": "uint256",
					"name": "id",
					"type": "uint256"
				},
				{
					"indexed": false,
					"internalType": "string",
					"name": "songName",
					"type": "string"
				},
				{
					"indexed": false,
					"internalType": "string",
					"name": "artistName",
					"type": "string"
				},
				{
					"indexed": false,
					"internalType": "uint256",
					"name": "price",
					"type": "uint256"
				},
				{
					"indexed": false,
					"internalType": "address payable",
					"name": "artistAddress",
					"type": "address"
				},
				{
					"indexed": false,
					"internalType": "address payable",
					"name": "currentOwnerAddress",
					"type": "address"
				},
				{
					"indexed": false,
					"internalType": "bool",
					"name": "onSale",
					"type": "bool"
				}
			],
			"name": "SongUpdated",
			"type": "event"
		},
		{
			"anonymous": false,
			"inputs": [
				{
					"indexed": true,
					"internalType": "address",
					"name": "from",
					"type": "address"
				},
				{
					"indexed": true,
					"internalType": "address",
					"name": "to",
					"type": "address"
				},
				{
					"indexed": true,
					"internalType": "uint256",
					"name": "tokenId",
					"type": "uint256"
				}
			],
			"name": "Transfer",
			"type": "event"
		},
		{
			"inputs": [
				{
					"internalType": "address",
					"name": "to",
					"type": "address"
				},
				{
					"internalType": "uint256",
					"name": "tokenId",
					"type": "uint256"
				}
			],
			"name": "approve",
			"outputs": [],
			"stateMutability": "nonpayable",
			"type": "function"
		},
		{
			"inputs": [
				{
					"internalType": "address",
					"name": "owner",
					"type": "address"
				}
			],
			"name": "balanceOf",
			"outputs": [
				{
					"internalType": "uint256",
					"name": "",
					"type": "uint256"
				}
			],
			"stateMutability": "view",
			"type": "function"
		},
		{
			"inputs": [
				{
					"internalType": "string",
					"name": "_songName",
					"type": "string"
				},
				{
					"internalType": "string",
					"name": "_artistName",
					"type": "string"
				},
				{
					"internalType": "uint256",
					"name": "_price",
					"type": "uint256"
				},
				{
					"internalType": "string",
					"name": "_imgHash",
					"type": "string"
				},
				{
					"internalType": "string",
					"name": "_songHash",
					"type": "string"
				},
				{
					"internalType": "string",
					"name": "_descHash",
					"type": "string"
				},
				{
					"internalType": "string",
					"name": "_lyricsHash",
					"type": "string"
				},
				{
					"internalType": "bool",
					"name": "_onSale",
					"type": "bool"
				},
				{
					"components": [
						{
							"internalType": "string",
							"name": "spotify",
							"type": "string"
						},
						{
							"internalType": "string",
							"name": "appleMusic",
							"type": "string"
						},
						{
							"internalType": "string",
							"name": "amazonMusic",
							"type": "string"
						},
						{
							"internalType": "string",
							"name": "youtubeMusic",
							"type": "string"
						}
					],
					"internalType": "struct Musicosmos.Link",
					"name": "_links",
					"type": "tuple"
				},
				{
					"components": [
						{
							"internalType": "string",
							"name": "genre",
							"type": "string"
						},
						{
							"internalType": "string[]",
							"name": "instruments",
							"type": "string[]"
						},
						{
							"internalType": "string",
							"name": "typeOfLyrics",
							"type": "string"
						},
						{
							"internalType": "string",
							"name": "songType",
							"type": "string"
						},
						{
							"internalType": "string",
							"name": "frequency",
							"type": "string"
						},
						{
							"internalType": "string",
							"name": "instrumentType",
							"type": "string"
						},
						{
							"internalType": "bool",
							"name": "sampleBased",
							"type": "bool"
						}
					],
					"internalType": "struct Musicosmos.Characteristic",
					"name": "_characteristics",
					"type": "tuple"
				}
			],
			"name": "createSong",
			"outputs": [],
			"stateMutability": "nonpayable",
			"type": "function"
		},
		{
			"inputs": [],
			"name": "fetchAllNFTs",
			"outputs": [
				{
					"components": [
						{
							"internalType": "uint256",
							"name": "id",
							"type": "uint256"
						},
						{
							"internalType": "string",
							"name": "songName",
							"type": "string"
						},
						{
							"internalType": "string",
							"name": "artistName",
							"type": "string"
						},
						{
							"internalType": "uint256",
							"name": "price",
							"type": "uint256"
						},
						{
							"internalType": "uint256",
							"name": "createTime",
							"type": "uint256"
						},
						{
							"components": [
								{
									"internalType": "string",
									"name": "imgHash",
									"type": "string"
								},
								{
									"internalType": "string",
									"name": "songHash",
									"type": "string"
								},
								{
									"internalType": "string",
									"name": "descHash",
									"type": "string"
								},
								{
									"internalType": "string",
									"name": "lyricsHash",
									"type": "string"
								}
							],
							"internalType": "struct Musicosmos.Hashes",
							"name": "hashes",
							"type": "tuple"
						},
						{
							"internalType": "address payable",
							"name": "artistAddress",
							"type": "address"
						},
						{
							"internalType": "address payable",
							"name": "currentOwnerAddress",
							"type": "address"
						},
						{
							"internalType": "bool",
							"name": "onSale",
							"type": "bool"
						},
						{
							"components": [
								{
									"internalType": "address[]",
									"name": "previousOwners",
									"type": "address[]"
								},
								{
									"internalType": "uint256[]",
									"name": "previousPrices",
									"type": "uint256[]"
								},
								{
									"internalType": "uint256[]",
									"name": "previousSaleTimes",
									"type": "uint256[]"
								}
							],
							"internalType": "struct Musicosmos.Sales",
							"name": "sales",
							"type": "tuple"
						},
						{
							"components": [
								{
									"internalType": "string",
									"name": "spotify",
									"type": "string"
								},
								{
									"internalType": "string",
									"name": "appleMusic",
									"type": "string"
								},
								{
									"internalType": "string",
									"name": "amazonMusic",
									"type": "string"
								},
								{
									"internalType": "string",
									"name": "youtubeMusic",
									"type": "string"
								}
							],
							"internalType": "struct Musicosmos.Link",
							"name": "links",
							"type": "tuple"
						},
						{
							"components": [
								{
									"internalType": "string",
									"name": "genre",
									"type": "string"
								},
								{
									"internalType": "string[]",
									"name": "instruments",
									"type": "string[]"
								},
								{
									"internalType": "string",
									"name": "typeOfLyrics",
									"type": "string"
								},
								{
									"internalType": "string",
									"name": "songType",
									"type": "string"
								},
								{
									"internalType": "string",
									"name": "frequency",
									"type": "string"
								},
								{
									"internalType": "string",
									"name": "instrumentType",
									"type": "string"
								},
								{
									"internalType": "bool",
									"name": "sampleBased",
									"type": "bool"
								}
							],
							"internalType": "struct Musicosmos.Characteristic",
							"name": "characteristics",
							"type": "tuple"
						}
					],
					"internalType": "struct Musicosmos.Song[]",
					"name": "",
					"type": "tuple[]"
				}
			],
			"stateMutability": "view",
			"type": "function"
		},
		{
			"inputs": [],
			"name": "fetchMyNFTs",
			"outputs": [
				{
					"components": [
						{
							"internalType": "uint256",
							"name": "id",
							"type": "uint256"
						},
						{
							"internalType": "string",
							"name": "songName",
							"type": "string"
						},
						{
							"internalType": "string",
							"name": "artistName",
							"type": "string"
						},
						{
							"internalType": "uint256",
							"name": "price",
							"type": "uint256"
						},
						{
							"internalType": "uint256",
							"name": "createTime",
							"type": "uint256"
						},
						{
							"components": [
								{
									"internalType": "string",
									"name": "imgHash",
									"type": "string"
								},
								{
									"internalType": "string",
									"name": "songHash",
									"type": "string"
								},
								{
									"internalType": "string",
									"name": "descHash",
									"type": "string"
								},
								{
									"internalType": "string",
									"name": "lyricsHash",
									"type": "string"
								}
							],
							"internalType": "struct Musicosmos.Hashes",
							"name": "hashes",
							"type": "tuple"
						},
						{
							"internalType": "address payable",
							"name": "artistAddress",
							"type": "address"
						},
						{
							"internalType": "address payable",
							"name": "currentOwnerAddress",
							"type": "address"
						},
						{
							"internalType": "bool",
							"name": "onSale",
							"type": "bool"
						},
						{
							"components": [
								{
									"internalType": "address[]",
									"name": "previousOwners",
									"type": "address[]"
								},
								{
									"internalType": "uint256[]",
									"name": "previousPrices",
									"type": "uint256[]"
								},
								{
									"internalType": "uint256[]",
									"name": "previousSaleTimes",
									"type": "uint256[]"
								}
							],
							"internalType": "struct Musicosmos.Sales",
							"name": "sales",
							"type": "tuple"
						},
						{
							"components": [
								{
									"internalType": "string",
									"name": "spotify",
									"type": "string"
								},
								{
									"internalType": "string",
									"name": "appleMusic",
									"type": "string"
								},
								{
									"internalType": "string",
									"name": "amazonMusic",
									"type": "string"
								},
								{
									"internalType": "string",
									"name": "youtubeMusic",
									"type": "string"
								}
							],
							"internalType": "struct Musicosmos.Link",
							"name": "links",
							"type": "tuple"
						},
						{
							"components": [
								{
									"internalType": "string",
									"name": "genre",
									"type": "string"
								},
								{
									"internalType": "string[]",
									"name": "instruments",
									"type": "string[]"
								},
								{
									"internalType": "string",
									"name": "typeOfLyrics",
									"type": "string"
								},
								{
									"internalType": "string",
									"name": "songType",
									"type": "string"
								},
								{
									"internalType": "string",
									"name": "frequency",
									"type": "string"
								},
								{
									"internalType": "string",
									"name": "instrumentType",
									"type": "string"
								},
								{
									"internalType": "bool",
									"name": "sampleBased",
									"type": "bool"
								}
							],
							"internalType": "struct Musicosmos.Characteristic",
							"name": "characteristics",
							"type": "tuple"
						}
					],
					"internalType": "struct Musicosmos.Song[]",
					"name": "",
					"type": "tuple[]"
				}
			],
			"stateMutability": "view",
			"type": "function"
		},
		{
			"inputs": [],
			"name": "fetchNFTsCreated",
			"outputs": [
				{
					"components": [
						{
							"internalType": "uint256",
							"name": "id",
							"type": "uint256"
						},
						{
							"internalType": "string",
							"name": "songName",
							"type": "string"
						},
						{
							"internalType": "string",
							"name": "artistName",
							"type": "string"
						},
						{
							"internalType": "uint256",
							"name": "price",
							"type": "uint256"
						},
						{
							"internalType": "uint256",
							"name": "createTime",
							"type": "uint256"
						},
						{
							"components": [
								{
									"internalType": "string",
									"name": "imgHash",
									"type": "string"
								},
								{
									"internalType": "string",
									"name": "songHash",
									"type": "string"
								},
								{
									"internalType": "string",
									"name": "descHash",
									"type": "string"
								},
								{
									"internalType": "string",
									"name": "lyricsHash",
									"type": "string"
								}
							],
							"internalType": "struct Musicosmos.Hashes",
							"name": "hashes",
							"type": "tuple"
						},
						{
							"internalType": "address payable",
							"name": "artistAddress",
							"type": "address"
						},
						{
							"internalType": "address payable",
							"name": "currentOwnerAddress",
							"type": "address"
						},
						{
							"internalType": "bool",
							"name": "onSale",
							"type": "bool"
						},
						{
							"components": [
								{
									"internalType": "address[]",
									"name": "previousOwners",
									"type": "address[]"
								},
								{
									"internalType": "uint256[]",
									"name": "previousPrices",
									"type": "uint256[]"
								},
								{
									"internalType": "uint256[]",
									"name": "previousSaleTimes",
									"type": "uint256[]"
								}
							],
							"internalType": "struct Musicosmos.Sales",
							"name": "sales",
							"type": "tuple"
						},
						{
							"components": [
								{
									"internalType": "string",
									"name": "spotify",
									"type": "string"
								},
								{
									"internalType": "string",
									"name": "appleMusic",
									"type": "string"
								},
								{
									"internalType": "string",
									"name": "amazonMusic",
									"type": "string"
								},
								{
									"internalType": "string",
									"name": "youtubeMusic",
									"type": "string"
								}
							],
							"internalType": "struct Musicosmos.Link",
							"name": "links",
							"type": "tuple"
						},
						{
							"components": [
								{
									"internalType": "string",
									"name": "genre",
									"type": "string"
								},
								{
									"internalType": "string[]",
									"name": "instruments",
									"type": "string[]"
								},
								{
									"internalType": "string",
									"name": "typeOfLyrics",
									"type": "string"
								},
								{
									"internalType": "string",
									"name": "songType",
									"type": "string"
								},
								{
									"internalType": "string",
									"name": "frequency",
									"type": "string"
								},
								{
									"internalType": "string",
									"name": "instrumentType",
									"type": "string"
								},
								{
									"internalType": "bool",
									"name": "sampleBased",
									"type": "bool"
								}
							],
							"internalType": "struct Musicosmos.Characteristic",
							"name": "characteristics",
							"type": "tuple"
						}
					],
					"internalType": "struct Musicosmos.Song[]",
					"name": "",
					"type": "tuple[]"
				}
			],
			"stateMutability": "view",
			"type": "function"
		},
		{
			"inputs": [
				{
					"internalType": "uint256",
					"name": "tokenId",
					"type": "uint256"
				}
			],
			"name": "getApproved",
			"outputs": [
				{
					"internalType": "address",
					"name": "",
					"type": "address"
				}
			],
			"stateMutability": "view",
			"type": "function"
		},
		{
			"inputs": [
				{
					"internalType": "address",
					"name": "owner",
					"type": "address"
				},
				{
					"internalType": "address",
					"name": "operator",
					"type": "address"
				}
			],
			"name": "isApprovedForAll",
			"outputs": [
				{
					"internalType": "bool",
					"name": "",
					"type": "bool"
				}
			],
			"stateMutability": "view",
			"type": "function"
		},
		{
			"inputs": [],
			"name": "name",
			"outputs": [
				{
					"internalType": "string",
					"name": "",
					"type": "string"
				}
			],
			"stateMutability": "view",
			"type": "function"
		},
		{
			"inputs": [
				{
					"internalType": "uint256",
					"name": "tokenId",
					"type": "uint256"
				}
			],
			"name": "ownerOf",
			"outputs": [
				{
					"internalType": "address",
					"name": "",
					"type": "address"
				}
			],
			"stateMutability": "view",
			"type": "function"
		},
		{
			"inputs": [
				{
					"internalType": "uint256",
					"name": "_id",
					"type": "uint256"
				}
			],
			"name": "purchaseSong",
			"outputs": [],
			"stateMutability": "payable",
			"type": "function"
		},
		{
			"inputs": [
				{
					"internalType": "address",
					"name": "from",
					"type": "address"
				},
				{
					"internalType": "address",
					"name": "to",
					"type": "address"
				},
				{
					"internalType": "uint256",
					"name": "tokenId",
					"type": "uint256"
				}
			],
			"name": "safeTransferFrom",
			"outputs": [],
			"stateMutability": "nonpayable",
			"type": "function"
		},
		{
			"inputs": [
				{
					"internalType": "address",
					"name": "from",
					"type": "address"
				},
				{
					"internalType": "address",
					"name": "to",
					"type": "address"
				},
				{
					"internalType": "uint256",
					"name": "tokenId",
					"type": "uint256"
				},
				{
					"internalType": "bytes",
					"name": "data",
					"type": "bytes"
				}
			],
			"name": "safeTransferFrom",
			"outputs": [],
			"stateMutability": "nonpayable",
			"type": "function"
		},
		{
			"inputs": [
				{
					"internalType": "address",
					"name": "operator",
					"type": "address"
				},
				{
					"internalType": "bool",
					"name": "approved",
					"type": "bool"
				}
			],
			"name": "setApprovalForAll",
			"outputs": [],
			"stateMutability": "nonpayable",
			"type": "function"
		},
		{
			"inputs": [],
			"name": "songsCount",
			"outputs": [
				{
					"internalType": "uint256",
					"name": "",
					"type": "uint256"
				}
			],
			"stateMutability": "view",
			"type": "function"
		},
		{
			"inputs": [
				{
					"internalType": "bytes4",
					"name": "interfaceId",
					"type": "bytes4"
				}
			],
			"name": "supportsInterface",
			"outputs": [
				{
					"internalType": "bool",
					"name": "",
					"type": "bool"
				}
			],
			"stateMutability": "view",
			"type": "function"
		},
		{
			"inputs": [],
			"name": "symbol",
			"outputs": [
				{
					"internalType": "string",
					"name": "",
					"type": "string"
				}
			],
			"stateMutability": "view",
			"type": "function"
		},
		{
			"inputs": [
				{
					"internalType": "uint256",
					"name": "_id",
					"type": "uint256"
				}
			],
			"name": "toggleOnSale",
			"outputs": [],
			"stateMutability": "nonpayable",
			"type": "function"
		},
		{
			"inputs": [
				{
					"internalType": "uint256",
					"name": "tokenId",
					"type": "uint256"
				}
			],
			"name": "tokenURI",
			"outputs": [
				{
					"internalType": "string",
					"name": "",
					"type": "string"
				}
			],
			"stateMutability": "view",
			"type": "function"
		},
		{
			"inputs": [
				{
					"internalType": "address",
					"name": "from",
					"type": "address"
				},
				{
					"internalType": "address",
					"name": "to",
					"type": "address"
				},
				{
					"internalType": "uint256",
					"name": "tokenId",
					"type": "uint256"
				}
			],
			"name": "transferFrom",
			"outputs": [],
			"stateMutability": "nonpayable",
			"type": "function"
		},
		{
			"inputs": [
				{
					"internalType": "uint256",
					"name": "_id",
					"type": "uint256"
				},
				{
					"internalType": "uint256",
					"name": "_newPrice",
					"type": "uint256"
				}
			],
			"name": "updatePrice",
			"outputs": [],
			"stateMutability": "nonpayable",
			"type": "function"
		}
	]
}